:100000000C9400060C941D060C941D060C94B7224B
:100010000C941D060C941D060C941D060C941D06D4
:100020000C941D060C941D060C943E120C94FA11AF
:100030000C94CA1B0C941D060C941D060C941D06F2
:100040000C941D060C941D060C941D060C941D06A4
:100050000C941D060C9416130C941D060C941D068E
:100060000C941D060C941D060C941D060C941D0684
:100070000C941D060C941D060C941D060C941D0674
:100080000C941D060C941D060C941D060C941D0664
:100090000C941D060C941D060C941D060C941D0654
:1000A0000C941D060C941D060C941D0629001E00C0
:1000B0001F002000210022002B0014001A0008005D
:1000C00015001700E10004281624072109220A0060
:1000D000E0001D001B000600190005000000292893
:1000E00023522B242C002F0035002700260025004A
:1000F000240023002D00130012000C0018001C0027
:10010000340033380F240E310D320B00E500380077
:1001100037003600100011000000E70024522A00CA
:100120002800300029001E001F00200021002200AE
:100130002B0014001A00090013000A00E100042833
:100140001524162117220700E0001D001B000600E1
:10015000190005000000292823522B242C002F0011
:100160003500270026002500240023002D00330041
:100170001C0018000F000D00340012380C24083148
:1001800011320B00E50038003700360010000E0079
:100190000000E70024522A002800300029001E0039
:1001A0001F002000210022002B0014001A0008006C
:1001B00015001700E10004001600070009000A00FE
:1001C000E0001D001B000600190005000000E30010
:1001D0002352E2002C002F003500270026002500C6
:1001E000240023002D00130012000C0018001C0036
:1001F000340033000F000E000D000B00E500380046
:1002000037003600100011000000E70024522A00D9
:100210002800300001000100010001000100010080
:100220003A003B003C003D003E003F0035001E020E
:100230001F02200221022202010001000100010030
:1002400001000100000001000100010001000100A7
:10025000010001000100010001000100450044000F
:1002600043004200410040003502270226022502D9
:1002700024022302310230022F022E022D0200003E
:100280000000010001000100010001000100010067
:10029000010001000100010035001E001F002000C8
:1002A000210022003A003B003C003D003E003F00A0
:1002B00040004100420043004400450000000100AE
:1002C0000100010001000100010001000100010026
:1002D0000100010001002700260025002400230062
:1002E000000000004F00520051005000310030006B
:1002F0002F002E002D002E02000001000100010041
:1003000001000100000000000000000000000000EB
:1003100000000000000000000000000000000000DD
:10032000407E417E427E0000000000000000000090
:1003300000000000000001000100010001000000B9
:1003400000000000000000000000000000000000AD
:10035000000000000000000000000000000000009D
:10036000000000000000000000000000000000008D
:1003700000000100010001000100000000DA02811C
:10038000FFD9F1DB20A4A62EAF00A0C0D30000A1AE
:10039000C8D30000AED580A81F408D1420000000F7
:1003A0000080C0E07038180C0CCEE6F6F6FEFEF6C3
:1003B000F6E68E0C1C183870E0C08000000000F8D3
:1003C000FEE7F9F8FCFCFCFCF8FBE70F1FFFFF1F42
:1003D0000FF7F9FCFCFCFCFCF8F34FFEF800001FE3
:1003E0007FF0C30707070707070F1C3870FFFF7868
:1003F0003C1F0F070707070707C3F07F1F00000018
:10040000000103070E1C183030706060607F7F6051
:100410006060703038181C0E0703010000000000F7
:100420000000000000C0E0F0F87C3E1F1F1F1C1EF3
:100430001F1F1F9FDF9F0000000000000000000042
:100440000000000000C33FFFFFF8E0C0C0C0C0C014
:10045000E0F8FFFF3F870000000000000000000000
:1004600000000000001F7FFEF9F1C3830303038334
:10047000C3F1F9FC3F0F0000000000000000000085
:1004800000000000007878787B7F7F7F7E7C3E1FB5
:100490007F7F7B00000000000000000000000000E3
:1004A0000000000000C0E0F0F87C3E1F1F1F1C1E73
:1004B0001F1F1F9FDF9F00000000000000000000C2
:1004C0000000000000033FFFFFF8E0C0C0C0C0C054
:1004D000E0F8FFFF3F070000000000000000000000
:1004E00000000000000080E0E1010303070787C36C
:1004F000F3F9F9F8F8F8000000000000000000002F
:1005000000000000003F3F3F3FC0E0F8FCFE3F1FFF
:100510000707FFFFFFFF00000000000000000000D1
:100520000000000000000000001F8FC3C1C0009E3B
:10053000DEDEDFDFCFC700000000000000000000AB
:100540000000000000F0F8FCFE1F0F070707070778
:100550000707C7E7F7E70000000000000000000001
:100560000000000000000F3F7F7EF8F0F0F0F0F098
:10057000F87E7F3F0F010000000000000000000037
:100580000000000000E0F8F8FCFC3C3C0101010028
:1005900000000080E0F0000000000000000000000B
:1005A0000000000000FFFFFFFFFF00000080C0F020
:1005B000F8FE7F1F0F030000000000000000000095
:1005C00000000000000F0F0F0F8FCFEFEFEF87C37A
:1005D000EFEFEFE0E0E000000000000000000000AE
:1005E000000000000078FCFEFF0F07030303030375
:1005F0000303E3F3FBF30000000000000000000031
:10060000000000000000071F3F3F7C78F8F8F878F2
:100610007C3F3F1F0700000000000000000000AF0B
:1006200000AE05010906A101050719E029E715003B
:10063000250195087501810295017508810105075D
:10064000190029FF150026FF009506750881000591
:1006500008190129051500250195057501910295D7
:100660000175039101C009022200010100A0FA09ED
:1006700004000001030101000921110100012244CD
:1006800000070581030800011201000200000008B4
:10069000D8042DEB0001010200010E034C0069009B
:1006A0006C00790035003800000010036C00690010
:1006B0006C00690075006D007300000004030904FC
:1006C0000000000000003E5B4F5B3E003E6B4F6B46
:1006D0003E001C3E7C3E1C00183C7E3C18001C5713
:1006E0007D571C001C5E7F5E1C0000183C1800003B
:1006F000FFE7C3E7FF00001824180000FFE7DBE76F
:10070000FF0030483A060E00262979292600407F4E
:1007100005050700407F05253F005A3CE73C5A008D
:100720007F3E1C1C0800081C1C3E7F0014227F22F8
:1007300014005F5F005F5F0006097F017F000066B5
:1007400089956A0060606060600094A2FFA29400D6
:1007500008047E04080010207E20100008082A1CCF
:100760000800081C2A0808001E10101010000C1E9B
:100770000C1E0C0030383E383000060E3E0E0600CF
:1007800000000000000000005F00000000070007FC
:100790000000147F147F1400242A7F2A12002313E0
:1007A0000864620036495620500000080703000024
:1007B000001C224100000041221C00002A1C7F1C5A
:1007C0002A0008083E080800008070300000080871
:1007D0000808080000006060000020100804020003
:1007E0003E5149453E0000427F4000007249494960
:1007F00046002141494D33001814127F100027454F
:10080000454539003C4A4949310041211109070059
:10081000364949493600464949291E00000014005E
:1008200000000040340000000008142241001414AD
:100830001414140000412214080002015909060092
:100840003E415D594E007C1211127C007F4949499E
:1008500036003E41414122007F4141413E007F49F7
:10086000494941007F09090901003E414151730096
:100870007F0808087F0000417F4100002040413F81
:1008800001007F08142241007F40404040007F0269
:100890001C027F007F0408107F003E4141413E0062
:1008A0007F09090906003E4151215E007F0919298F
:1008B000460026494949320003017F0103003F40B9
:1008C00040403F001F2040201F003F4038403F0075
:1008D0006314081463000304780403006159494D4C
:1008E0004300007F41414100020408102000004104
:1008F00041417F00040201020400404040404000AA
:100900000003070800002054547840007F28444426
:100910003800384444442800384444287F00385480
:100920005454180000087E0902001824241C780082
:100930007F080404780000447D4000002040403DD2
:1009400000007F102844000000417F4000007C042C
:10095000780478007C080404780038444444380063
:100960007C1824241800182424187C007C08040413
:10097000080048545454240004043F4424003C40DC
:1009800040207C001C2040201C003C4030403C00AB
:100990004428102844004C9090907C004464544CAF
:1009A00044000008364100000000770000000041CC
:1009B000360800000201020402003C2623263C0007
:1009C000000000000080808080000000000080E0C7
:1009D00070180C1830E080000010F890103078305B
:1009E00010B8FC3810000000000000F8FCF800000F
:1009F00000000000000000000000001C9C1C000023
:100A00000000F8FCF80000000000001CFCF8C0002A
:100A1000000000000080E0F87C1C000000F0FCFCFE
:100A2000FC1C1C1C1C1C1C1C1C000000000000C02A
:100A3000F0F8381C1C1C1C1C1C3CF8F0E000E0F01A
:100A4000F0F0E0ECEEF7F37020007C7C7C7E007E22
:100A50007E7E7F7F7F000080C0E07E5B4F5BFEC0BC
:100A60000000C000DCD7DEDEDED7DC00C000000006
:100A70000000000000000000000000000000000076
:100A800000000000000FBCE0818181838382870C1D
:100A9000183060C000001FFE90B9FFBB91983C1851
:100AA00011133F1100000000000000FFFFFF0000D5
:100AB0000000000000000000000000FFFFFF000039
:100AC0000000FFFFFF0000000000000000030F7F98
:100AD000F8E080F0FC3F0F0100000000003F3F3FC6
:100AE0001C1C1C1C1C3C78F8F0E08000000000C3BB
:100AF000E7FF7E3C3878787070F8FFDF87000F1FC3
:100B00003F7F7F7F7F7F3F1E0C001F1F1F3F003FE7
:100B10003F3F7F7F7F00307B7F7830202030787FA1
:100B20003B0003000F7F0F0F0F7F0F00030000003B
:100B300000000000000000000000000000000000B5
:100B4000183C24666341C18180808080808081C19F
:100B50004162386C4CC68181808080808081C14335
:100B600062361C1800000000000000FFFFFFC0C03C
:100B7000C0C0C0C0C0C0C0800000007FFF7F0000B8
:100B800000007FFFFFC080000000E0E0C0C0C0E0C8
:100B9000F97F1F0700000000000000000070F0E077
:100BA000E0C0C0C0C0E0F0F87F3F0F0000000F3F82
:100BB0007FF9E0E0C0C0C0C0C0E0F97F3F1F000087
:100BC0000000000000000000000000000000000025
:100BD0000000000000000000000000000000000015
:100BE0000000000000000000000000000000000005
:100BF00000000000000000000000000000000000F5
:100C000011241FBECFEFDAE0DEBFCDBF11E0A0E0C0
:100C1000B1E0E2EBFAE402C005900D92A838B1070A
:100C2000D9F724E0A8E8B1E001C01D92A73EB207C1
:100C3000E1F70E94F11B0C9418250C940000909190
:100C4000DC02899FC0011124811522E0920714F073
:100C500090E080E081529D4F9093E6048093E504FC
:100C60000895482F2091D80290919F0257E02913B0
:100C700002C080E0089530E0529FF001539FF00DD4
:100C80001124E056FD4F8181681306C0808148130E
:100C900003C085818111EECF2F5F3F4F2770E7CFD3
:100CA000FC01AC014B5F5F4F8FEF91E321918227F5
:100CB00028E030E087FF09C0880F892721503109DB
:100CC000C9F7E417F50791F70895880FF7CF982F24
:100CD0009093E900891779F05091EC002091ED0094
:100CE0004091F00021FD0AC09F5F973089F7809303
:100CF000E90081E00895562F40E022E03091EB00BA
:100D00003E7F3093EB003091ED003D7F3093ED005E
:100D10003091EB0031603093EB005093EC00209366
:100D2000ED004093F0002091EE0027FDDDCF80E044
:100D30000895E8EDF0E080818E7F80831092E200DC
:100D40001092DA001092E100A0EEB0E08C91816088
:100D50008C9380818F77808319BCA7EDB0E08C9154
:100D60008E7F8C9380818F7E80831092880208957D
:100D7000B0E0A0E0EEEBF6E00C94F123C8EDD0E09B
:100D800088818F7E8883E7EDF0E0808181608083B9
:100D900084E082BF81E08093880288818E7F88838F
:100DA00002EE10E0F80110821092DA0081EEC82EF7
:100DB000D12CF601108288818F77888388818068A2
:100DC000888388818F7D888319BC10929E0210923F
:100DD0009502109294021092930290EEE92EF12C5B
:100DE000F70180818B7F808388818160888360E0C8
:100DF00080E00E946706F60180818E7F8083F80183
:100E0000808181608083808188608083F701808118
:100E10008E7F8083888180618883CDB7DEB7E8E0EC
:100E20000C940D242091E4003091E50095E6A90191
:100E30002091EC00822F817020FF06C08091E80095
:100E400080FF06C080E008952091E80022FD1AC0CE
:100E500080919E02882389F0853089F08091EB0093
:100E600085FD0FC02091E4003091E5004217530743
:100E7000F9F29150E1F684E0089582E0089583E06C
:100E8000089581E008958091960287FF13C08091B4
:100E9000E80082FF06C08091E8008B778093E8002D
:100EA00004C080919E028111F2CF089580919E022C
:100EB0008823D9F38091E80080FFF8CF8091E80083
:100EC0008E77ECCFFC0180919C0290919D02861759
:100ED0009707A0F06115710529F49091E8009E77BD
:100EE0009093E80090E06115710551F4911108C0EC
:100EF0008091E80082FF34C080E00895BC01F2CF09
:100F000080919E028823C1F18530C1F18091E80073
:100F100083FD30C08091E80082FDEACF8091E80037
:100F200080FFE1CF8091F3002091F200382F61150E
:100F3000710519F02830310558F091E0283031055D
:100F400009F090E02091E8002E772093E800CBCFC5
:100F500081918093F100615071092F5F3F4FE7CF7E
:100F600080919E02882341F0853041F08091E80015
:100F700083FFBECF81E0089582E0089583E0089565
:100F800008950895089580918A0208952FB7F894DE
:100F9000609184027091850280918602909187020F
:100FA0002FBF08959C01FC0132969FEF80E0419194
:100FB000461751F09F3F19F4411101C0982F8F5FE0
:100FC0008630A9F79F3F09F40895290F311D97FD39
:100FD0003A95F9016283089580917F02882359F040
:100FE000E0918102F0918202309729F00190F08126
:100FF000E02D0995089580E00895CF93DF93209127
:10100000E5043091E6042F5D3240A901460F571FD9
:101010004130524020F060E072E0621B730B40915F
:10102000DD025091DE02FC01C901620F731FC1E0B5
:10103000D0E08617970738F05093DE024093DD0228
:10104000DF91CF9108952491DC01A152BD4F3C91D5
:10105000321781F02C939C01A5E036952795AA952F
:10106000E1F7DE0102C0AA0FBB1F2A95E2F79D013E
:101070004A2B532B01963196DCCF80E00895F894EB
:10108000E82FE295EF70F0E031A1282F2F7081E07A
:1010900090E001C0880F2A95EAF7982F9095932346
:1010A00091A392A1892B82A3789408950F931F9303
:1010B00080917F02882329F00E94C6071F910F911B
:1010C00008950E94C6070091EB011091EC01209158
:1010D000ED013091EE01600F711F821F931FEECF63
:1010E0009091FB0192FF10C041E0282F2471243021
:1010F00009F040E031E0282F2871283009F030E075
:10110000431711F02CE0822793FF10C041E0282FF5
:101110002471243109F040E031E0282F2871283172
:1011200009F030E0431711F02CE082273091FC01E8
:1011300030FF10C051E0282F2171213009F050E01C
:1011400041E0282F2871283009F040E0541711F0B1
:1011500029E0822731FF10C041E0282F2171213181
:1011600009F040E031E0282F2871283109F030E003
:10117000431711F029E0822794FD877E0895823875
:101180009105B9F1B0F48133910509F47DC048F4BB
:101190008932910509F46DC08A32910509F47BC04A
:1011A00008958533910509F45FC08933910509F1EC
:1011B0000895833E9105D9F138F4803E910529F1D7
:1011C000823E910579F10895863E9105D9F1873ED9
:1011D000910509F43EC0843E910541F52091FC0142
:1011E00021FF24C08091FB0184FD19C087EE90E0AF
:1011F00008952091FB01237009F05AC02091FC0151
:1012000023FF14C089E290E008952091FB0120FDA6
:1012100038C03091FC0130FF09C024FF43C090E08A
:1012200080E008952091FB0122FDF7CF08952091E1
:10123000FB0122FD3AC03091FC0130FD39C024FF92
:10124000F5CFEDCF2091FB0123FFF0CF24FDE7CFB9
:10125000CDCF2091FB0123FD2EC03091FC0131FF49
:10126000EECF84EE90E008952091FB0125FFDECFC4
:10127000C9CF2091FB0125FD21C02091FC0123FF56
:10128000D5CF89E390E0D2CF2091FB0126FFCECFCE
:101290008AE290E008952091FB0126FFC7CF81E309
:1012A00090E0089583EE90E0089582EE90E0089536
:1012B00080EE90E0089586EE90E0089585E390E05A
:1012C0000895972F7A30B8F46630A8F48630B0F4D9
:1012D00070E026E0929F600D711D1124FB019CE3DC
:1012E000899FE00DF11D1124EE0FFF1FE455FF4F04
:1012F00085919491089580E090E0089581E0FCCF7D
:101300001F93CF93DF930E94BF08EC01C11582E5C4
:10131000D80708F03FC0C11590E5D90708F0C2C052
:10132000C83ED105C0F4C03ED10580F4C53AD10510
:1013300048F4C430D10550F4C130D10539F0D0E0C3
:10134000C0E004C0CD3CD105D0F3D065CE01DF9123
:10135000CF911F910895C11580E4D80708F053C0BC
:10136000C11590E2D90708F0B7C0C11581E0D807D0
:1013700030F38D2F0E947008182FCE0199270E94FC
:10138000BF08C12FD0E0DC2FCC27CC27DF71C82BC2
:10139000D92BDCCFC03892E5D907A8F4C03682E556
:1013A000D80708F063C0C03492E5D90708F049C0F7
:1013B000C03282E5D80788F1CF71D0E0DC2FCC278E
:1013C000C16FD06AC3CFC03C92E5D90780F48C2F9F
:1013D0008F71C03AD24508F45EC00E947008C82FD1
:1013E000D0E0DC2FCC27CC27DF71D062AFCFC03E5E
:1013F00082E5D80708F0A3CFDC2FCC27CC27DF71FC
:10140000C06FD06AA3CFCE0199270E94BF08CC2716
:10141000DF70C82BD92BD06A99CF2C2F2695269513
:1014200090E2299F900111248C2F8370C1E0D0E0BD
:1014300002C0CC0FDD1F8A95E2F7C22BD32BDD68EB
:1014400085CF2C2F26952695277080E2289F900126
:1014500011248C2F8370C1E0D0E002C0CC0FDD1FBF
:101460008A95E2F7C22BD32BDC6870CF2C2F269500
:101470002695277090E2299F900111248C2F83706C
:10148000C1E0D0E002C0CC0FDD1F8A95E2F7C22B8D
:10149000D32BDA685BCFC82FD0E0DC2FCC27C46F0A
:1014A000D06A54CF8C2F8F710E94700855E0D6956A
:1014B000C7955A95E1F7CF70D0E0DC2FCC27282FC5
:1014C00030E084FF05C044E0220F331F4A95E1F766
:1014D000C22BD32BD0693ACF8D2F8F710E94700809
:1014E000182FCE0199270E94BF08C12FD0E0DC2F12
:1014F000CC27CC27DF71C82BD92B77CF8095909143
:10150000C60198239093C60108958091D8029091C6
:101510009F02981301C008958F5F8770FACFB0E0E3
:10152000A0E0E5E9FAE00C94F0237C010091500280
:10153000109151028091520290915302082B192B65
:10154000CFE0D0E0CC24C394D12CBC2EC6010C2E0D
:1015500002C0880F991F0A94E2F780239123892BF8
:1015600049F4219790F7B12C8B2DCDB7DEB7E9E088
:101570000C940C24B7018C2F0E9461090E948009F1
:10158000019779F3F1CFCF93DF93EC010E948F0A9B
:10159000BE010E9461090E948009DF91CF910895E8
:1015A0009A3078F5863068F5E82FF0E086E0989F6D
:1015B000E00DF11D11249E2F977083E0F695E795BD
:1015C0008A95E1F7EE0FFF1FEE0FFF1FEC56FE4F5F
:1015D00050E040E080E0219130E0092E02C03695D5
:1015E00027950A94E2F721703327042E01C0220FB9
:1015F0000A94EAF7822B4F5F5F4F4430510559F749
:10160000089580E008959A3098F5863088F5E82F9F
:10161000F0E086E0989FE00DF11D11248E2F877079
:1016200041E001C0440F8A95EAF783E0F695E7951B
:101630008A95E1F7EE0FFF1FEE0FFF1FEC56FE4FEE
:1016400030E020E070E05191DF011197CB01022ED4
:1016500002C0969587950A94E2F781708195852757
:10166000842385278C932F5F3F4F2430310559F712
:1016700008959C01287133272831310531F48062A7
:10168000909351028093500208958F7DF9CF21E00D
:1016900030E002C0220F331F8A95E2F72095309583
:1016A0008091500290915102822393230E94390B22
:1016B00008959091BB01809589238093BB01282FC9
:1016C000277069F4891759F09091FC0192FF07C0C7
:1016D0008695869586950E94470B1092BB010895CA
:1016E00021E030E002C0220F331F8A95E2F780919B
:1016F000500290915102822B932B0E94390B089536
:1017000090935302809352020895FC012481222376
:10171000C1F0808191810E94C30A92959F7096309A
:1017200091F058F4925F9F70923058F4803F19F016
:1017300030F4883E30F481E008959A5FF4CF843F1E
:10174000D1F380E00895883EB0F3813FD1F7F3CF25
:10175000292F332740E02115310511F0C90148E058
:101760009C0164E0369527956A95E1F721153105CE
:1017700011F04C5FC9019C01369527953695279548
:101780002115310511F04E5FC90196958795892B7A
:1017900009F04F5F842F0895A6E0B0E0E2EDFBE092
:1017A0000C94F62349835A8349815A819923A1F0E5
:1017B000222391F0CA010E948F0A182F682F898175
:1017C0009A810E94030B69817A81812F0E946109AD
:1017D0002696E3E00C941224CA010E94D00A182F26
:1017E000F2CFCF93DF93C091E504D091E6048A3025
:1017F000C1F42091DC02CE018F5D9240622F70E037
:101800000E94D323281B822F66E00E941E24C82F2B
:10181000C15018F4DF91CF91089580E20E94F10B3E
:10182000F7CF8D30E9F4CF5DD2402091DC02622FFA
:1018300070E0CE010E94D323281B822F9E01280F27
:10184000311D2115324018F080E0D0E0C0E0C80F13
:10185000D11DC152DD4FD093E604C093E504DACF29
:1018600096E0FE01AFEDB4E001900D929A95E1F79C
:10187000803E08F458C086E0FE0111928A95E9F78F
:10188000C091E504D091E60446E050E0BE018FED42
:1018900094E00E94B0249E012F5D3240892B41F1DB
:1018A000C90145E0969587954A95E1F741E050E0FA
:1018B000BA0102C0660F771F8A95E2F7CB016091EB
:1018C000DD027091DE02862B972BB9016B5F7F4F93
:1018D000E5E076956795EA95E1F702C0440F551F5C
:1018E0006A95E2F7842B952B9093DE028093DD02BC
:1018F0002A5F3F4F4091DC02642F70E0C9010E94D3
:10190000D323481B463010F4240F311D211572E0FB
:10191000370710F030E020E021523D4F3093E604CD
:101920002093E50477CFF6E08F9FB0011124605437
:10193000794F46E050E0CE010E94A724A1CF20912C
:10194000C6018091BD01282B8091BC01882381F0C4
:10195000282B30E08CE891E0FC014191CF0141114E
:101960003F5FF1E082399F07B9F731111092BC0156
:1019700020938A0148E050E06EEB71E08AE891E044
:101980000E94B024892BA9F088E0EAE8F1E0AEEBF0
:10199000B1E001900D928A95E1F7E0918102F0911A
:1019A0008202309731F00280F381E02D8AE891E0E5
:1019B000099508951092C601ECE8F1E086E0DF0198
:1019C0001D928A95E9F71092BD010E949F0C08951F
:1019D000AAE2B0E0EEEEFCE00C94F62386E992E099
:1019E0002091F100FC012193CF01F2E08E399F0795
:1019F000B9F780919702833009F470C0B8F4813050
:101A000009F447C0823009F4B1C08091E80083FF37
:101A100064C280919602909197029A3008F05DC25C
:101A2000E92FF0E0E65EFA4D0C947F248A3009F449
:101A30008CC08B3009F46FC0893039F780919602E1
:101A4000813219F780919A0290919B02892BE9F6D5
:101A50008091E800877F8093E8008091E80082FF12
:101A600038C09091F3008091F200029731F4809198
:101A7000F100813011F0863021F48091F1008093E3
:101A80008A028091E8008B778093E8000E944307E8
:101A9000BCCF80919602813A09F0B7CF8091E800DF
:101AA000877F8093E80080919A0290919B02892B16
:101AB00061F468E08BE892E070E00E946207809138
:101AC000E8008B778093E800A0CF60E090E080E0B2
:101AD000F3CF80919E028111C0CF97CF8091960263
:101AE000813A09F092CF80919A0290919B02892BC2
:101AF00009F08BCF8091E800877F8093E800809188
:101B0000E80080FFFCCF80912B018093F100809151
:101B1000E8008E77B9CF80919602813209F075CFB7
:101B200080919A0290919B02892B09F06ECF80914F
:101B3000E800877F8093E8000E9443078091980225
:101B400080932B010E94DA0C60CF80919602813243
:101B500009F05BCF8091E800877F8093E8000E94C6
:101B6000430780919902809389024FCF809196021A
:101B7000813A09F04ACF8091E800877F8093E8009E
:101B80008091E80080FFFCCF80918902BECF803831
:101B900099F0823809F0A1C180919A028F70873044
:101BA00008F09BC18093E9008091EB0085FB8827BA
:101BB00080F91092E90006C08091930290919402FE
:101BC000911182609091E800977F9093E800809354
:101BD000F1001092F1008091E8008E777AC188239D
:101BE00009F468C1823009F078C1809198028111AE
:101BF0006BC180919A028F702FEF280F263008F06A
:101C00006CC18093E9002091EB0020FF5DC193300F
:101C100031F48091EB0080628093EB0055C190918C
:101C2000EB0090619093EB0021E030E001C0220FC7
:101C30008A95EAF72093EA001092EA008091EB007F
:101C40008860EACF811149C1109198021F77809175
:101C5000E3008078812B8093E3008091E800877F08
:101C60008093E8000E9443078091E80080FFFCCF4A
:101C70008091E30080688093E30082E0111183E0AB
:101C800080939E022AC18058823008F026C180913C
:101C90009802909199028C3D23E09207A1F583E090
:101CA0008A838AE289834FB7F894DE01139620E095
:101CB0003EE051E2E32FF0E050935700E49120FF23
:101CC00003C0E295EF703F5FEF708E2F90E0EA3037
:101CD000C0F0C7968D939D932F5F243159F74FBF66
:101CE0008091E800877F8093E8006AE270E0CE018F
:101CF00001960E9462078091E8008B778093E8004C
:101D0000ECC0C096E7CF40919A0250919B02292FD8
:101D100033272330310509F43FC078F521303105F0
:101D200009F466C082E290E0E6E6F6E02230310592
:101D300009F0D3C02091E800277F2093E80020918C
:101D40009C0230919D028217930708F49C0140E0A9
:101D50002115310509F051C041114FC08091E800B3
:101D600082FDC9CF80919E02882329F2853019F225
:101D70008091E80083FFF2CFBECF2132310581F19F
:101D80002232310509F0A9C0452B09F0A6C084E430
:101D900090E0E2E2F6E0CECF992781309105C1F0E4
:101DA000009759F0029709F098C0EAE9F6E0E4914B
:101DB0008E2F90E0EAE9F6E007C0ECEBF6E0E49164
:101DC0008E2F90E0ECEBF6E0009709F0B3CF85C0E2
:101DD000EAEAF6E0E4918E2F90E0EAEAF6E0F4CF4A
:101DE000452B09F07AC089E090E0E8E7F6E0A2CF61
:101DF00082E190E0E8E8F6E09DCF80919E028823A2
:101E000009F479CF853009F476CF8091E80083FD1D
:101E100072CF8091E80082FDA1CF8091E80080FF21
:101E200097CF9091F3008091F2002115310519F0C0
:101E30008830910550F041E0089709F040E080912A
:101E4000E8008E778093E80083CF44914093F100BF
:101E50003196215031090196E8CF8038F1F5809113
:101E6000E800877F8093E800809195028093F100DD
:101E7000B2CE811132C010919802123070F580916B
:101E8000E800877F8093E800109395020E94430743
:101E9000112311F084E005C08091E30087FDFACFA3
:101EA00081E080939E0261EC81E00E946706809150
:101EB0009E0213C080919802813079F481E09330C2
:101EC00009F080E0809394021092E9008091E8008C
:101ED000877F8093E8000E9443078091E80083FF9A
:101EE0000AC08091E800877F8093E8008091EB0032
:101EF00080628093EB00AA96E3E00C94122488237E
:101F000021F00E947E0A0E949F0C0895882339F0D8
:101F10009091C601982B9093C6010E949F0C089542
:101F2000882391F09CEF980F913A78F4ECE8F1E077
:101F30009191891303C0DF0111971C9291E0E2395E
:101F4000F907B1F70E949F0C089590E2980F98301E
:101F5000D8F7877091E001C0990F8A95EAF7892F29
:101F60000E947E0AEFCFCF93C82F8823A9F08CEF71
:101F70008C0F813A00F5ECE8F1E0DF018D91C81794
:101F800069F081E0A239B807C9F76C2F8AE891E0BF
:101F90000E94D2070E949F0CCF9108958191C8138F
:101FA00003C0DF0111971C9281E0E239F807B1F715
:101FB0000E949F0CEACF80E28C0F883068F7C770D0
:101FC00021E030E001C0220FCA95EAF78091C601F6
:101FD000822B8093C601DECF0F931F93CF93DF93A5
:101FE000EC01FC0101900020E9F78F01015011097B
:101FF000C017D10728F0DF91CF911F910F9108955D
:1020000089910E94F10BF4CF0F931F93CF93DF932D
:102010008C0180919E02843059F581E08093E90023
:102020008FEF9091E800815095FD06C095ED9A954F
:10203000F1F700008111F5CF8091E80085FF18C00D
:102040000E94120781110FC0C8E0D0E08091E80023
:1020500085FD13C08091E8008E778093E8000E9490
:102060001207882399F38091E8008E778093E80027
:10207000DF91CF911F910F910895F80181918F0108
:102080008093F100219711F7EECFCF93DF93EC010E
:102090000E94041088E0FE01ABE8B2E001900D92CE
:1020A0008A95E1F7DF91CF910895B0E0A0E0EBE5EC
:1020B000F0E10C94EF237C015B016A018091EA015D
:1020C00001E010E08A3010F40AE010E0C1E0D0E056
:1020D000B501C701F6010995811104C021960C17BD
:1020E0001D072CF4CDB7DEB7EAE00C940B24CC9F8F
:1020F0009001CD9F300D300D112490E080E045E33C
:102100004A95F1F70000019682179307C1F7E0CFD7
:102110000E94DA0C2FEF84E39CE021508040904035
:10212000E1F700C0000088E19AE00FB6F894A895A6
:10213000809360000FBE90936000FFCFAB0124E658
:1021400030E0BC0188E70E94872121E0892B09F05B
:1021500020E0822F089580917D0290917E0291115E
:1021600003C091E089270895882369F062E070E058
:1021700080E296E00E949E10811103C080917D0252
:10218000089510927D0280917D02EBCFCF93C09194
:102190007D0280917E028823D1F00E94C607605A9A
:1021A00075418F4F9F4F6093790270937A028093AD
:1021B0007B0290937C02C11108C062E070E08EE166
:1021C00096E00E949E10811105C0C0917D028C2F67
:1021D000CF91089581E080937D02F7CF9091FC012B
:1021E00092FB222720F9281779F080FB92F990932F
:1021F000FC016091FB017091FC0184E090E00E9481
:10220000022582E00E94590B0895A4E0B0E0EBE0C3
:10221000F1E10C94F6234091E6015091E7016091C1
:10222000E8017091E9012FB7F894809184029091B0
:102230008502A0918602B09187022FBF841B950B67
:10224000A60BB70B11E084369105A105B10570F11D
:102250000E9456086E5F7F4F8F4F9F4F69837A832E
:102260008B839C83809111019091120184529E4F27
:102270004091100150E04530510510F044E050E02D
:10228000BE016F5F7F4F0E94BD2482E090E00E94FC
:102290005D23182F882351F00E94C6076093E60142
:1022A0007093E7018093E8019093E901812F2496D0
:1022B000E3E00C941224EF92FF921F93CF93DF93ED
:1022C00000D000D000D0CDB7DEB77B0190E080E039
:1022D0000E945D23182F882309F480C040910301D8
:1022E00050E04115510511F041E050E060910401CA
:1022F0007091050164527E4FCE0106960E94BD2466
:102300004091D8015091D9016091DA017091DB01BF
:102310002FB7F8948091840290918502A091860253
:10232000B09187022FBF841B950BA60BB70B843689
:102330009105A105B10540F48DED91E00E94500694
:102340009E81891709F44AC081E090E00E945D23D4
:10235000811116C010E085E0E3EDF1E0D7010190B6
:102360000D928A95E1F7812F26960FB6F894DEBF7D
:102370000FBECDBFDF91CF911F91FF90EF900895D9
:1023800040910B0150E04630510510F045E050E01F
:1023900060910C0170910D0164527E4FCE01019647
:1023A0000E94BD248DED91E00E9450069E8189130C
:1023B000D1CF0E94C6076093D8017093D901809352
:1023C000DA019093DB0185E0FE013196A3EDB1E0E7
:1023D00001900D928A95E1F711E0BDCF85E0EDED1A
:1023E000F1E0DE01119601900D928A95E1F711114D
:1023F000EACFB1CF1F920F920FB60F9211242F93F5
:102400003F934F935F936F937F938F939F93AF937C
:10241000BF93CF93DF93EF93FF93D091E900DF70E9
:102420008091EC00C82FC17080FDC0E81092E900D7
:102430008091F000877F8093F00078940E94E80CF0
:102440001092E9008091F00088608093F000CD2B1D
:10245000CF70C093E900FF91EF91DF91CF91BF91D1
:10246000AF919F918F917F916F915F914F913F912C
:102470002F910F900FBE0F901F9018951F920F92E3
:102480000FB60F9211242F933F934F935F936F9347
:102490007F938F939F93AF93BF93EF93FF9380911D
:1024A000E10082FF09C08091E20082FF05C08091B7
:1024B000E1008B7F8093E1008091DA0080FF24C0EF
:1024C0008091D80080FF20C08091DA008E7F8093B9
:1024D000DA008091D90080FF9CC080E189BD82E153
:1024E00089BD09B400FEFDCF81E080939E028091FA
:1024F0008802811109C00E9499060E94B806809145
:10250000E20084608093E2008091E10080FF17C0C8
:102510008091E20080FF13C08091E2008E7F809363
:10252000E2008091E20080618093E2008091D80017
:1025300080628093D80019BC85E080939E028091D0
:10254000E10084FF2BC08091E20084FF27C080E17E
:1025500089BD82E189BD89B5982F917080FFFBCF3D
:102560008091D8008F7D8093D8008091E1008F7E8C
:102570008093E1008091E2008F7E8093E200809161
:10258000E20081608093E20080919502882309F443
:1025900046C084E080939E0280919E028091E1007B
:1025A00083FF26C08091E20083FF22C08091E1007A
:1025B000877F8093E10082E080939E0210929502D3
:1025C0008091E1008E7F8093E1008091E2008E7F18
:1025D0008093E2008091E20080618093E20060E0FD
:1025E00080E00E9467068091F00088608093F00090
:1025F000FF91EF91BF91AF919F918F917F916F91DB
:102600005F914F913F912F910F900FBE0F901F90B0
:10261000189519BC10929E021092880275CF809175
:10262000E30087FD93E090939E02B6CF78941F92CB
:102630001FB61F9211248F939F93AF93BF938091E6
:10264000840290918502A0918602B0918702019642
:10265000A11DB11D8093840290938502A0938602F0
:10266000B0938702BF91AF919F918F911F901FBE32
:102670001F9018959C014FB7F89480918402909117
:102680008502A0918602B09187024FBF821B930BF7
:1026900008952FB7F8948091840290918502A091BB
:1026A0008602B09187022FBF08950F931F93CF9397
:1026B000DF93C62FD42F022FFC0185818823A9F038
:1026C0006093DB020E9449139093DA028093D9024F
:1026D000C77081E001C0880FCA95EAF70E94860F93
:1026E000DF91CF911F910F9108958091DB026813C4
:1026F00035C08091D9029091DA020E943A138A3A49
:10270000910560F510E21D0FCD17B9F080E28C0F36
:10271000883040F4C77081E001C0880FCA95EAF79D
:102720000E947F0F183048F481E09D2F977001C000
:10273000880F9A95EAF70E94860F802F0E94B30FA8
:10274000802F0E94900F183058F6D77081E001C09A
:10275000880FDA95EAF70E947F0FC2CFC77081E039
:1027600001C0880FCA95EAF7F6CFB0E0A0E0EBEB26
:10277000F3E10C94EF238C01FC018481882309F49C
:10278000F4C321E0408151816281738195810E946F
:10279000CC0BEC01F8012581222309F4AAC39A95F8
:1027A00081159F4450F5CE019927AC014450510941
:1027B0004432510518F08B970E9788F4E091180277
:1027C000F0E0EE0FFF1FE35EFD4F808191818F3FB0
:1027D0003FE7930709F4A3C3019691838083C13433
:1027E0008EE7D807A9F0C2349EE7D907C9F0C034F4
:1027F000EEE7DE0709F4A1C387C390E080E0CF3F96
:10280000D10509F090F6CE01D0CF222309F49EC362
:1028100062E083E090E00E94E42482E090E094C3D0
:1028200064E083E090E00E94E42484E090E08CC3C4
:1028300026E241EE61EEC8010E94551387C327E2EC
:1028400045EE65EEF8CF26E241EE60EEF4CF27E2EA
:1028500045EE64EEF0CF26E241EE62EEECCF27E2E9
:1028600045EE66EEE8CF28E241E0EBCF222309F403
:1028700097C31092DB02CE019057839708F07AC37A
:1028800084E090E00E94CE249093FC018093FB01B1
:10289000FE01E150F047E232F10520F4EC5DFA4D23
:1028A0000C947F248091FB0181608093FB0195C093
:1028B0008091FC0188608093FC018FC08091FB01B6
:1028C0008260F3CF8091FB018460EFCF8091FB01A8
:1028D0008860EBCF8091FC018160EDCF8091FC019D
:1028E0008260E9CF8091FB018061DFCF8091FB01A5
:1028F0008062DBCF8091FB018064D7CF0E94DA0C2D
:102900008091FB018068D1CF8091FB018C60CDCF9D
:102910008091FC018360CFCF8091FB018E7FC5CF7A
:102920008091FC01877FC7CF8091FB018D7FBDCF58
:102930008091FB018B7FB9CF8091FB01877FB5CF61
:102940008091FC018E7FB7CF8091FC018D7FB3CF4A
:102950008091FB018F7EA9CF8091FB018F7DA5CF58
:102960008091FB018F7BA1CF0E94DA0C8091FB014B
:102970008F779BCF8091FB01837F97CF8091FC0164
:102980008C7F99CF8091FB0182FB992790F921E000
:10299000922790FB82F990FB83F987CF8091FC010D
:1029A000982F909591708E7F892B90FB81F983CF22
:1029B0009091FB01892F8F7B96FF806476CF0E94D8
:1029C000DA0C9091FB01892F97FB87F980586DCF26
:1029D00061E08EE090E00E94E4246091FB01709140
:1029E000FC0184E090E00E9402250E94DA0CAEC255
:1029F00060E0EFCF9091FB01892F8F7E94FF806183
:102A000054CF9091FB01892F8E7F90FF81604DCF35
:102A10009091FC01892F877F93FF88604CCF85E3DD
:102A2000C8C20E94DA0C8FEF94E3ECE08150904032
:102A3000E040E1F700C0000087E797E790930108C6
:102A40008093000888E19AE00FB6F894A8958093E7
:102A500060000FBE90936000FFCF6FEF7FEF90E0BC
:102A600080E00E9402250E9488108091FC0182FB78
:102A7000882780F991E089270E94EE10F80185816E
:102A8000C081D181882309F44DC0CE010E948F0AF4
:102A9000F82E682FCE010E94030BBE018F2D0E94DD
:102AA00061090E948009F82EC92FA82EF801C5805F
:102AB000B680B2949FE0B9228091BB01877009F182
:102AC000EC2CCC20F9F08C2F807F803469F080E2F0
:102AD0008F0D8830B0F08C2F807E803229F4F1E0A9
:102AE000FF1578F4BB2069F08091FC0182FF09C0DA
:102AF00082E00E94590B8091BB018770EE24E39421
:102B00008111E12CDC2ED2948FE0D8222BE02D1500
:102B100008F46AC0ED2DF0E0EA5BFA4D0C947F24D6
:102B200080E0AACFCE010E94D00AF82EB6CFDC2FCB
:102B3000DF70C07F11F0D295D07FCC20B9F0DD23BB
:102B400069F080E28F0D883010F0A11009C08091EB
:102B5000C601D82BD093C6010E949F0C8F2D42C076
:102B60008091BD01D82BD093BD01F6CF8F2D0E944F
:102B7000900FDD23C9F180E28F0D883010F0A11095
:102B800004C08D2F0E947E0A06C0D0958091BD01A1
:102B9000D823D093BD010E949F0C26C0DC2FDF708C
:102BA000C07FC03211F0D295D07FAA2059F031E019
:102BB000A31609F478C0CC2009F484C0BB2009F422
:102BC00046C0CCCF8091FC0182FD3DC0CC20A9F154
:102BD000DD2339F08091C601D82BD093C6010E9425
:102BE0009F0C80E00E94B30FED2DE850FF0B34974F
:102BF00010F40E94EC07EE20A9F08091BB0180FD4B
:102C000011C0F80115828695869586950E94700BF5
:102C1000C8010E94B5138091BB0186958695869563
:102C20000E94470B20E0F80140815181628173814D
:102C3000848195810E94CC0B98C180E00E94900F06
:102C4000DD2391F29ECFCC20A1F0B11004C08D2FD6
:102C50000E94860FC9CF81E0B812C6CF8091BC0117
:102C60009D2F9823D91709F4BFCFD82BD093BC013F
:102C7000BBCFB110B9CF8D2F0E947F0F9091BC01B7
:102C80008D2F892329F08D2F809589238093BC0176
:102C9000809193019D2F982309F4A6CFD095D82336
:102CA000D0939301A1CFCC2029F095E09B1508F497
:102CB0009BCFCDCFE4E0EB1508F496CF8D2F0E948B
:102CC0007F0F92CFBB20D1F3F9E3AF120BC12FEFEF
:102CD00037EE83E0215030408040E1F700C0000033
:102CE00001C18C2F837009F03FC0C1107DCF4F2DE3
:102CF000429546954770440F440F2F2D2F7030E0BA
:102D0000042E02C0220F331F0A94E2F790E080E005
:102D1000F4FE09C08FE090E002C0880F991F4A9529
:102D2000E2F780959095C695C695C370C23099F02C
:102D300078F44091520250915302C13039F0822B05
:102D4000932B842395230E94800B4ECF242B352B6D
:102D5000822B932BF8CF822B932B20915202309110
:102D6000530282279327EFCF8695CC2011F08C2F2A
:102D70008170882309F438CF4F2D429546954770CE
:102D8000440F440F2F2D2F7030E0042E02C0220F6D
:102D9000331F0A94E2F790E080E0F4FE09C08FE070
:102DA00090E002C0880F991F4A95E2F780959095B0
:102DB000C695C695C370C23099F078F44091500220
:102DC00050915102C13039F0822B932B84239523EB
:102DD0000E94390B09CF242B352B822B932BF8CF54
:102DE000822B932B209150023091510282279327FE
:102DF000EFCFCF70CC2029F08C2F0E94700B8F2D3D
:102E000027CF8F2D0E947F0F8C2F0E94470BECCE77
:102E10008F2D92EFA91699F19A1570F0E0EFAE168A
:102E2000D1F0F1EFAF1691F0CC2009F456C0B110FB
:102E300095CE8C2F8F7127C023EFA21639F134EF76
:102E4000A312F2CF9091FC0192FD2EC08C2F8F71B6
:102E5000CC20D9F218C0CC2069F084E08B1508F49E
:102E6000C3CECF7181E090E002C0880F991FCA9550
:102E7000E2F7B8CF95E09B1508F4B6CEF2CF8C2FD1
:102E80008F71C110C2CF0E94700BAECE90E080E077
:102E9000CC2009F49DCFCF7181E090E002C0880F73
:102EA000991FCA95E2F794CFCC2061F08C2F8F71D7
:102EB00092FFE9CFE8E08E9F9001112423602093D8
:102EC000BB01E1CF81E00E94590BF1E0FB1508F056
:102ED0008BCE82E00E94590B87CEBB2039F089331C
:102EE00009F4F5CE8F2D0E94900F7ECE8C2F8F711E
:102EF0008CCF8134FEE79F0749F182349E4731F140
:102F0000C0348EE7D80711F1FE01E851FC47E730E5
:102F1000F10508F0ABCCEE5AFA4D0C947F24C13485
:102F20009EE7D90709F471CCC234EEE7DE0709F455
:102F300077CCC034FEE7DF0739F761E083E090E04B
:102F40000E94E42481E090E00E94800B8091BB010C
:102F5000877059F0F8018581882339F08091FC0150
:102F600082FF03C082E00E94590BCDB7DEB7EAE0D2
:102F70000C940B24C6312CE7D20749F58091C60189
:102F80008A7A91E009F490E09093920169E28111CC
:102F900065E38AE891E00E94D2070E949F0CD6CF99
:102FA000C631DC4709F06ACD80919201811137CD9D
:102FB00089E2ECE8F1E022E931E09191891303C064
:102FC000DF0111971C922E173F07B9F7E6CFC330E8
:102FD000FCE7DF0709F441CD50F4C1153CE7D30706
:102FE00009F41FCDC130DC4709F43DCD47CDCB35C9
:102FF0009CE7D90709F494CDCC35ECE7DE0709F45A
:1030000034CDCA35DC4709F039CD81E035CDCF93D9
:10301000DF938091BA01807F09F04DC08091B901A2
:10302000882309F448C0E091D80250919F02C091D2
:10303000B501D091B4016091B6017091B70147E03C
:103040005E17C9F18E2F90E0E49FF0011124E05645
:10305000FD4F2481222391F1489FF001499FF00DFB
:103060001124DF01A056BD4F11962C9111972C13FE
:1030700025C02C912D1322C015962C911597211146
:103080001DC012962D913C91261B370B2A3A310513
:10309000A8F48091BA018F7080618093BA01EA55DB
:1030A000FD4F80818F708061808384EB91E00E946E
:1030B000B5130E94850ADF91CF910895FC013196E6
:1030C000E770BECFA4E1B0E0E8E6F8E10C94ED23B0
:1030D0008C0186E0F801DE011F9601900D928A9521
:1030E000E1F7F8018481E58094EBA92E91E0B92EF7
:1030F0009091B801911128C0882319F1EE20F1F0C8
:10310000C8010E94850BF82E8823C1F087E0F801E2
:10311000D50101900D928A95E1F78091B801813037
:1031200031F48091B4019091B5010E94C30A0E94CC
:1031300007188F2D6496ECE00C940924C8010E94B6
:10314000B513FF24F394F5CFD080C18082809380A3
:10315000F090B9012091B6013091B701A401421B52
:10316000530BFF2009F4E5C04A3A510508F09EC010
:103170008823F9F29091B5018091BA01282F207F20
:1031800009F056C0C91214C09091B401D91210C0F0
:10319000E11048C08F7080618093BA0184EB91E0A8
:1031A0000E94B5138091BA01F8018683F12CC1CF3A
:1031B000E11038C06C2D8D2D0E9431066C2D8D2DA7
:1031C0000E943106E82E8111F1CFDF86C88A8F85F3
:1031D00098890E94C30A292F22952F70243058F411
:1031E0009F70223088F0992399F0F8019681907FA2
:1031F00079F4FE2C9ECF2A5F2F70223068F0C80130
:103200000E94B513EF2CF5CF992311F0882389F391
:10321000805E883070F3F3CF803F58F3815F833056
:1032200070F7E7CF8091BA0181608093BA01BECF79
:10323000C91213C09091B401D9120FC0E1100DC092
:103240008683C8010E94B51387E0F801A4EBB1E0C2
:1032500001900D928A95E1F76CCFC8010E94850B11
:10326000882309F46BCFEE2009F468CF8091BA016E
:10327000803288F02091B4013091B50139872887D8
:103280009B868A869091B8019C871D868E87CE0189
:1032900008960E94B51387E0F801A4EBB1E0019015
:1032A0000D928A95E1F70E9407184BCF9091BA01D1
:1032B000292F207F51F484EB91E00E94B51387E021
:1032C000F50111928A95E9F771CF882309F431CF7E
:1032D0008091B5018C1110C08091B401D8120CC03E
:1032E000E1100AC09683C8010E94B51387E0F5017A
:1032F00011928A95E9F71DCFC8010E94850B88239A
:1033000009F41CCFEE2009F419CF8091BA01803264
:1033100010F22091B4013091B5013A8329839C8247
:103320008B829091B8019D831E828F83CE0101967E
:10333000B0CF4A3A5105D0F6882309F402CFFE2CCB
:10334000EE2009F4FBCE8091B5018C1105C080916F
:10335000B401D81609F478CFC8010E94850B8111F9
:103360009ACF8091BA0181608093BA01C8010E940E
:10337000B513DFCEABE1B0E0E0ECF9E10C94F5235E
:103380004E8B5F8B688F798F8A8F9B8F192F91114E
:103390001092BD011D8A86E0FE017696DE011F9621
:1033A00001900D928A95E1F70A8D002341F021E00A
:1033B0004F85588969897A89C8010E94CC0B0B8B8B
:1033C0001C8B87E0FE013F96DE01189601900D925E
:1033D0008A95E1F7CE0108960E94621881110CC00F
:1033E00087E0FE013896DE01119601900D928A95D4
:1033F000E1F78C8581110BC017E08091D802909184
:103400009F02891331C06B96E4E00C941124209143
:103410009F0230E0C9010196877099274091D80238
:103420004817190699F097E0929FD001939FB00D2D
:103430001124A056BD4FFE01319601900D929A9530
:10344000E1F780939F020E94850AD6CF0E94DA0C92
:1034500010929F021092D80287E0E4EBF1E0DF01C6
:103460001D928A95E9F7C8CF819FC001112480562B
:103470009D4F0E946218882331F28091D80290E01B
:103480000196877099278093D802B7CFAFE0B0E05C
:10349000ECE4FAE10C94EC238E010F5F1F4F8AE0FD
:1034A000F80111928A95E9F784E7C82E81E0D82EB9
:1034B000F12CE12CAA24A394B12C2FE7822E21E039
:1034C000922EF60181916F018F3F09F442C0F8946A
:1034D000E82FE295EF70F0E021A18F70A50102C006
:1034E000440F551F8A95E2F7CA01922F982B91A39A
:1034F00092A18095892382A3789400C0E9E7F1E046
:10350000712C31E021912F3F09F48CC0A22FA2959C
:10351000AF70B0E090968C9190E02F7002C09595BE
:1035200087952A95E2F780FD7DC0832F782A330F97
:103530008E169F0639F7F601319780818F3F11F083
:103540000E943F0850EA5A95F1F7F801EE0DFF1D71
:1035500070828FEFE81AF80AE5E0EE16F10409F040
:10356000B0CF4AE050E0B8018FEE91E00E94B02465
:10357000009741F02AE0F801AFEEB1E001900D9222
:103580002A95E1F70091FA0110E003501E4F892BB4
:1035900009F44AC081E08093CB010E9449139093C3
:1035A000CA018093C901F12CE0907F02EE2009F45A
:1035B00092C06E01FBE0CF0ED11C85E0F6011192A6
:1035C0008A95E9F78091EA018A3008F051C04BE50D
:1035D00051E1B601C8010E945510882309F46AC060
:1035E00045E051E1B601C8010E945510882309F455
:1035F00061C01092EA018091F90190E045E050E04D
:10360000B60183509E4F0E94B02421E02093D20146
:10361000892B09F042C0E12C8E2D8F292F96EDE0E9
:103620000C94082480E082CFF090CB01FF2009F4B5
:10363000BACF8091C9019091CA010E943A130597AF
:1036400008F4B1CF45E050E06FEE71E0C8010E9490
:10365000B024892B59F085E0EFEEF1E0D80101901C
:103660000D928A95E1F71092CB019ECFF12CFBCF02
:103670008091CC019091CD010E943A13843F9140FA
:1036800008F0A5CF8091D201882329F285E0F601C8
:1036900011928A95E9F71092D201A091F901B0E058
:1036A000A350BE4F85E0FE013B9601900D928A9596
:1036B000E1F7B2CF8091EA018F3F31F08F5F8093C5
:1036C000EA018A3008F497CF0E9449139093CD0104
:1036D0008093CC01D7CF85E0F801ADEDB1E001904A
:1036E0000D928A95E1F78DED91E00E94500680934E
:1036F000DC018090E2019090E301A090E401B090A1
:10370000E5018091CE019091CF01A091D001B091BF
:10371000D10188169906AA06BB0609F47DCF8092CE
:10372000CE019092CF01A092D001B092D1010E941F
:10373000C607861A970AA80AB90A8092EB019092E6
:10374000EC01A092ED01B092EE0166CFA6E0B0E0F0
:10375000ECEAFBE10C94F5230E9449138C01809163
:10376000C7019091C8018017910781F019821A82D0
:103770000E944913682F49815A81792F80E090E097
:103780000E94BA191093C8010093C7012696E4E07D
:103790000C9411241F921FB61F9211248F939F9394
:1037A000AF93BF9380918302811113C080918402F3
:1037B00090918502A0918602B09187024196A11D49
:1037C000B11D8093840290938502A0938602B093EA
:1037D0008702BF91AF919F918F911F901FBE1F9045
:1037E0001895CDB7DEB72F970FB6F894DEBF0FBE92
:1037F000CDBF85B7806885BF85B7806885BF84B732
:10380000877F84BF0FB6F894A89580916000886187
:1038100080936000109260000FBE80E890E00FB6C9
:10382000F89480936100909361000FBE8DE398E05F
:1038300090938901809388010E9499060E94B8069E
:103840008091E20084608093E200789480919E02EF
:103850008823A1F01091E9001F709091EC00892F4E
:10386000817090FD80E8182B1092E9008091E800AB
:1038700083FD0E94E80C1F701093E90082E084BD74
:1038800093E095BD9AEF97BD80936E001092EB0187
:103890001092EC011092ED011092EE018091D8008F
:1038A00080618093D8002AE12A95F1F700C08091C9
:1038B000D900182F117080FD04C00E949906109243
:1038C0009E0210937F021093800210931801111131
:1038D0000E947122809118018091180195E0811158
:1038E00090E09093FA0185E0891B8093F90104E749
:1038F00011E0D8018D918D018F3F11F00E943F089A
:10390000B1E009371B07A9F709E711E0FFE7EF2E40
:10391000F1E0FF2EF80181918F018F3F11F00E949D
:103920003F08E016F106B1F78AE0EDEFF1E0DF01C4
:10393000282F1D922A95E9F7EFEEF1E0DF011D92A5
:103940008A95E9F790E080E00E94CE24853E9E4F64
:1039500009F461C065EE7EEF90E080E00E940225F0
:1039600060E082E090E00E94E42481E090E09093A7
:1039700053028093520261E083E090E00E94E424CD
:1039800060E074E184E090E00E94022560E086E05F
:1039900090E00E94E42460E087E090E00E94E4244C
:1039A00040E050E0BA0188E090E00E94F62460E038
:1039B00083E290E00E94E42460E08CE090E00E94CA
:1039C000E42460E08DE090E00E94E42419821A82F1
:1039D0001B821C821D821E821F82188648E050E0D6
:1039E00067E170E0CE0101960E94D42440E050E0EF
:1039F000BA018FE190E00E94F62440E050E0BA0165
:103A00008FE090E00E94F62440E050E0BA0183E1AC
:103A100090E00E94F62482E090E00E94C624809309
:103A2000070284E090E00E94CE249093FC018093F2
:103A3000FB0183E090E00E94C62490E00E94800B8E
:103A400080917F028111B4C081E08093740280E292
:103A50008093DC020E940F216BE070E083E993E029
:103A60000E949E108823E9F18091740265E070E065
:103A700081FDA0C08EE893E00E949E10882389F10A
:103A80006DE070E08CE793E00E949E10882349F17E
:103A90000E94C607605A75418F4F9F4F609379020D
:103AA00070937A0280937B0290937C02EFEDF2E0B8
:103AB00080E092E0DF019C011D9221503040E1F74F
:103AC000F093E604E093E5048FEF9FEF9093DE021E
:103AD0008093DD0281E080937E0280937D021092CC
:103AE000750280917F02811102C00E94742289E1D7
:103AF00091E09093820280938102E4E68E2E912CD5
:103B0000A12CB12C80919E0200E112E1853009F4D4
:103B10008DC00E94461A08E012E07DEFE72E71E0AA
:103B2000F72ED701F80191918D9122E132E02E1705
:103B30003F0709F485C09817B1F340907F02D12C5C
:103B400033243394D701CD907D01F80151908F013A
:103B50005C1429F15C24712C66246394852D8621E4
:103B6000B1F04420A1F07982DA820E9449139C834B
:103B70008B833D8291E08C2D862109F490E09E8319
:103B800049815A816B817C818D810E94BA1973941D
:103B9000660CF6E07F12E2CFF8013197C082D39431
:103BA0002AE0D212CFCF0E94560831E03D874DC0A7
:103BB00083E04BCF89E893E05FCF80919E02843011
:103BC00031F10E94AB101092830288E190E0A0E4F2
:103BD0000FB6F894A895809360000FBEA093600084
:103BE00083B7817F846083BF83B7816083BF78940C
:103BF000889583B78E7F83BF0FB6F894A895809180
:103C00006000886180936000109260000FBE809118
:103C10009402882359F00E94461AEDEFF1E0819159
:103C2000811195C2B2E0E730FB07C9F780919E028F
:103C3000853009F4C2CF0E94DA0C0E94EC0769CFEC
:103C400098137BCF0E94A61B1D8680917F0288233C
:103C500009F4C5C040901D0250901E02052C000CB6
:103C6000660877088091230190E0EDE1F2E021E021
:103C700030E03296821793070CF0E8C08091190269
:103C800090911A02A0911B02B0911C026FB7F89498
:103C9000C0908402D0908502E0908602F090870266
:103CA0006FBFC81AD90AEA0AFB0A1091230189ECEE
:103CB000C816D104E104F10414F18091180290E0D7
:103CC000019669E170E00E942A2480931802880F0F
:103CD000991FFC01E35EFD4F11821082812F183184
:103CE00008F087E18F5F809323010E94C6076093ED
:103CF000190270931A0280931B0290931C0292E0A7
:103D000049165104610471040CF4ADC0A0E6BAEE8A
:103D1000A30192010E9485242B013C01A8EC1A9F6B
:103D200090011124032E000C440B550B2C0D3D1D4E
:103D30004E1D5F1DA5E0B0E00E9485249B01AC01F3
:103D4000C301B2010E943E2469017A01B1EFCB1692
:103D5000D104E104F1042CF050EFC52ED12CE12C5C
:103D6000F12C8091140290911502A0911602B0914D
:103D700017022FB7F894409084025090850260900B
:103D80008602709087022FBF481A590A6A0A7B0A76
:103D9000E5E64E1651046104710484F00E94C607E2
:103DA0006093140270931502809316029093170289
:103DB00080914F0280931302C0921202109113025D
:103DC000A0911202A11BBB0BA30192010E9490249F
:103DD000A50194010E946024120F10934F0280915C
:103DE0007E02882309F4BAC080917602909177020E
:103DF0000E943A13C29708F492C00E94491390930C
:103E000077028093760280E00E941F0680917F02F5
:103E1000882309F4B9C080E00E941F0660E870E0C2
:103E20008EE993E00E94FD0785E00E941F068091C5
:103E30005202909153020E94A80B8130A9F188236D
:103E4000B1F08230A1F18EE391E013C04081518145
:103E5000052E000C660B770B440E551E661E771E52
:103E60002F5F3F4F06CFC12CD12C76017ACF8CE249
:103E700091E00E94EC0F87E00E941F0684E491E02D
:103E80000E94EC0F88E00E941F06809150029091E2
:103E900051020E94A80B833009F473C058F48823A0
:103EA00089F082E691E010C082E391E0E2CF88E3FE
:103EB00091E0DFCF843009F461C0853091F78CE563
:103EC00091E002C08AE491E00E94EC0F10914F0251
:103ED0008AE00E941F061C862AE0812F622F0E9422
:103EE0001E24905D9B870E941E24905D9A87812FDF
:103EF00064E60E941E24805D8987CE0109960E9497
:103F0000EC0F8BE00E941F0688E691E00E94EC0F08
:103F10008DE00E941F068CE691E00E94EC0F8091DC
:103F2000DD029091DE02892BB1F580917D0288231C
:103F3000A9F00E94C6070091790210917A0220919F
:103F40007B0230917C02601B710B820B930B6F3FE5
:103F50007F4F8F4F9F4710F40E94AB108D858111CA
:103F60000E94C6100E94EC0790917802891709F40C
:103F7000C9CD809378020E94C607C4CD80E591E048
:103F8000A3CF86E591E0A0CF60E072E08EE194E0FF
:103F90000E94FD07C4CF80917E02882331F2809178
:103FA00075028111C2CF0E94C6102091DD023091AE
:103FB000DE022115310509F4B8CF80E041E050E080
:103FC000082F10E02A01082E02C0440C551C0A9448
:103FD000E2F7B20162237323672B11F48F5FF0CFF6
:103FE0009091740290FF9AC0880F880F880F809379
:103FF000260110922901895F8093270183E0809335
:104000002A0124E630E047E050E064E271E088E70E
:104010000E944321892B09F088CFA80195E0440F25
:10402000551F9A95E1F78091740280FF89C0E4E5FD
:10403000F2E080E2DF011D928A95E9F7E3E8F1E022
:10404000FF87EE876FE771E087E0F82EAE85BF85CA
:104050002D91BF87AE87FB012190BF01240E352E25
:10406000311CC10181529D4F1C01E22FF0E0EC5A3E
:10407000FD4F90E080E06F2C681AEE24E394082E48
:1040800001C0EE0C0A94EAF7610100E0D6011D912F
:104090006D011E21262D201B2770722E022E000C72
:1040A000330BB12F01C0BB0F7A94EAF77B2E319509
:1040B000219531092770332701C016952A95EAF713
:1040C000712A1081712A70820F5F0830F9F601960B
:1040D00031968830910579F6E7E8F1E02E853F8545
:1040E000E217F30709F0B2CF04E610E020E230E077
:1040F00044E552E060E488E70E94CD21892B09F075
:1041000014CF409450948091DD029091DE024822B9
:1041100059225092DE024092DD0207CF8295880F2D
:1041200080768093260198013695279536952795B8
:1041300020932901815E8093270120932A0161CF7A
:1041400041525D4F04E610E020E230E0D3CF09BDDC
:1041500019BD09B400FEFDCF8091D8008F7D8093FA
:10416000D8008091E00082608093E0008091E000C0
:1041700081FDFCCF0E94DA0C59CDEF92FF920F9394
:104180001F93CF93DF93182FEB011092BC0084EAAA
:104190008093BC000E9449137C018091BC0087FF82
:1041A00027C08091B900887F883029F08091B900BC
:1041B000887F803189F51093BB0084E88093BC0030
:1041C0000E9449138C018091BC0087FF1EC0209182
:1041D000B900287F90E080E0283191F081E090E004
:1041E000203411F490E080E091958195910908C008
:1041F000C7010E943A13C817D90778F68EEF9FEFD0
:10420000CDB7DEB7E6E00C940F24C8010E943A1344
:10421000C817D907C0F6F2CF8FEF9FEFF1CF1092FA
:10422000B9008CE08093B80008950F931F93CF934B
:10423000DF93EB018093BB0084E88093BC000E9475
:1042400049138C018091BC0087FF11C02091B900F7
:10425000287F81E090E0283211F490E080E0919591
:1042600081959109DF91CF911F910F910895CF3FD3
:10427000DC0741F3C8010E943A13C817D90710F7A9
:104280008EEF9FEFEFCFB0E0A0E0E9E4F1E20C9415
:10429000EC23782E5B016A0189010E9449134C01CD
:1042A000C1E0D0E00431110558F0C5E0D0E00F3F87
:1042B000100731F0C80164E170E00E94D323EB01E4
:1042C000BE01872D0E94BD207C0197FF09C00F3FD2
:1042D0001007B1F3C4010E943A130817190780F7B9
:1042E000E501CA0CDB1CCC15DD0511F0F7FE09C099
:1042F00084E98093BC00C701CDB7DEB7EDE00C9434
:104300000824B80189910E9415217C01ECCFB0E00E
:10431000A0E0EDE8F1E20C94EC23782E5B016A0159
:1043200089010E9449134C01C1E0D0E0043111051C
:1043300058F0C5E0D0E00F3F100731F0C80164E14C
:1043400070E00E94D323EB01BE01872D0E94BD20A7
:104350007C0197FF09C00F3F1007B1F3C4010E9411
:104360003A130817190780F7E501CA0CDB1CCC15B6
:10437000DD0511F0F7FE09C084E98093BC00C70198
:10438000CDB7DEB7EDE00C940824FE018491B801AE
:104390000E9415217C012196EACFB0E0A0E0E3ED78
:1043A000F1E20C94EB23682E762E5A0169010E94EB
:1043B00049134C01C1E0D0E00431110558F0C5E0CB
:1043C000D0E00F3F100731F0C80164E170E00E94B7
:1043D000D323EB01BE01862D0E94BD207C0197FFF7
:1043E0001DC00F3F1007B1F3C4010E943A13081714
:1043F000190780F784E98093BC00C701CDB7DEB709
:10440000EEE00C940724B80189910E9415217C01EB
:10441000CC16DD0679F3F7FEF6CFECCFB801872D89
:104420000E9415217C01E501CA0CDB1CF1CF8EE155
:104430004A9B02C08150E1F74A9BFECF08955A98EB
:1044400080E28A95F1F75A9A0895FC013BE03A958B
:10445000F1F798E020E080E031E040E14A95F1F7A3
:10446000880F4A9B02C08160232742E04A95F1F7FA
:10447000000040E14A95F1F7915079F790E19A9563
:10448000F1F799B132E03A95F1F7000040E14A9531
:10449000F1F792FB992790F992272081920F908350
:1044A0000895A1E0B0E0E7E5F2E20C94F32319826D
:1044B0008C017C01E60EF11C0E151F0541F481E014
:1044C0009981911180E02196E6E00C940F240E94DE
:1044D0001722CE0101960E942522F80181938F01B7
:1044E000EBCF529A5A9A089552985A9AEA9AE9E664
:1044F000F0E080818F7C808308956150770B91E09C
:1045000001C0990F6A95EAF720E031E0911108C0E7
:10451000222391F05A9A80E28A95F1F75A980895E9
:10452000492F482339F05A9A232740E24A95F1F758
:104530009695ECCF5A98F9CF5A98EDCFFF920F93FA
:104540001F93CF93DF93EC018C01060F111DC01751
:10455000D10729F4CDB7DEB7E5E00C941024F9902B
:104560000E941F2268E08F2D0E947D22F0CF1F92B3
:104570000F920FB60F9211240F931F932F933F9317
:104580004F935F936F937F938F939F93AF93BF935B
:10459000EF93FF93CF93DF930F92CDB7DEB71982DE
:1045A0000E941722CE0101960E942522082F06950F
:1045B00006950695282F22952570902F9570290F26
:1045C000922F937026952695920F98279770898140
:1045D000982B09F05CC0043008F059C080E18A953E
:1045E000F1F75A9A529A82E08A95F1F700C05A98E8
:1045F00088E0089F80011124D801A050BF4F169673
:10460000ED91FC9117973097A9F06091720170912C
:10461000730114962D913C911597260F371F119613
:104620008D919C911297680F791F13964C91139757
:104630008C910995F801E050FF4F6381662351F09A
:10464000209172013091730184819581820F931FB3
:104650000E949E220E941F2280E18A95F1F75A98BB
:1046600052985A9A80E18A95F1F7F801E050FF4F8D
:104670006081662351F02091720130917301818134
:104680009281820F931F0E9451220E9417220F9045
:10469000DF91CF91FF91EF91BF91AF919F918F915A
:1046A0007F916F915F914F913F912F911F910F914A
:1046B0000F900FBE0F901F9018950F931F93CF93DD
:1046C000DF93EC0104970CF04CC0F894529A5A987E
:1046D00085E08A95F1F700009C2F969595708C2FB8
:1046E0008570980F892F83709695969523E0CC0F4F
:1046F000DD1F2A95E1F7980F8E01092B0E941F22DA
:1047000000C068E0802F0E947D2280E18A95F1F749
:1047100052985A9A4A9B1EC087E090E04A991CC062
:10472000FE01E050FF4F63816623F9F02091720192
:104730003091730184819581820F931F0E945122D1
:10474000811113C0529A5A9A7894DF91CF911F9198
:104750000F91089500C0DECF019729F4529A5A9A1A
:10476000789480E0F2CF00C0D9CF0E94172280E277
:104770008A95F1F75A98529A80E18A95F1F7C050DC
:10478000DF4F6881662351F02091720130917301EF
:1047900089819A81820F931F0E949E220E941F226C
:1047A000789481E0D2CFAA1BBB1B51E107C0AA1F9E
:1047B000BB1FA617B70710F0A61BB70B881F991FC2
:1047C0005A95A9F780959095BC01CD0108952F9237
:1047D0003F924F925F926F927F928F929F92AF9291
:1047E000BF92CF92DF92EF92FF920F931F93CF93DE
:1047F000DF93CDB7DEB7CA1BDB0B0FB6F894DEBF75
:104800000FBECDBF09942A88398848885F846E849A
:104810007D848C849B84AA84B984C884DF80EE80E4
:10482000FD800C811B81AA81B981CE0FD11D0FB6ED
:10483000F894DEBF0FBECDBFED010895991B79E05E
:1048400004C0991F961708F0961B881F7A95C9F720
:104850008095089597FB072E16F4009407D077FDF6
:1048600009D00E94D32307FC05D03EF49095819592
:104870009F4F0895709561957F4F0895A1E21A2E7C
:10488000AA1BBB1BFD010DC0AA1FBB1FEE1FFF1FF4
:10489000A217B307E407F50720F0A21BB30BE40B44
:1048A000F50B661F771F881F991F1A9469F760958B
:1048B0007095809590959B01AC01BD01CF01089545
:1048C000052E97FB1EF400940E94772457FD07D015
:1048D0000E943E2407FC03D04EF40C94772450959C
:1048E0004095309521953F4F4F4F5F4F08959095DC
:1048F0008095709561957F4F8F4F9F4F0895EE0F74
:10490000FF1F0590F491E02D09940E949824A59F23
:10491000900DB49F900DA49F800D911D11240895BA
:10492000B7FF0C9485240E948524821B930B089565
:10493000A29FB001B39FC001A39F700D811D1124E0
:10494000911DB29F700D811D1124911D0895FB01D1
:10495000DC0102C005900D9241505040D8F70895F7
:10496000FB01DC0104C08D910190801921F44150BC
:104970005040C8F7881B990B0895FB01DC0102C069
:1049800001900D9241505040D8F70895F999FECF0B
:1049900092BD81BDF89A992780B50895A8E1B0E04D
:1049A00042E050E00C940A25DC01A40FB51F4150F1
:1049B000504048F0CB01840F951F2E910E94E524B2
:1049C00041505040D0F70895262FF999FECF92BD5F
:1049D00081BDF89A019700B4021639F01FBA20BDC4
:1049E0000FB6F894FA9AF99A0FBE08950396272FF6
:1049F0000E94E5240E94E424252F0E94E524242F10
:104A00000C94E5240196272F0E94E5240C94E424BD
:104A1000DC01CB01FC01F999FECF06C0F2BDE1BD7E
:104A2000F89A319600B40D9241505040B8F708956D
:104A3000F894FFCFC70DEF0D6D0FEF0D6D0F220E28
:104A4000430E6D0F2D0F390F8C14011594145E1445
:104A50006214981466149C14A8147214FA14761430
:104A6000AC147A14B014D8147E14B414DF14841463
:104A7000BA14C2146A14A0146E14A4148814BE14B8
:104A8000CE14E814F81458149014081597159715B7
:104A9000CE15CE15F415F415F415F4157116F91696
:104AA000081708172314271418141F142B142F1475
:024AB0003314BD
:104AB20000000001000000000000000501000000ED
:104AC200040600000000000001C3074510C007C231
:104AD20007C107010021007F2200030151575254F0
:104AE2005900434F4C4D4B0047414D455300554EE5
:104AF200444546004C4159455200426173652000CD
:104B02005261697365004C6F7765720041646A2077
:104B12002000556E6465660077706D002D2D2D2D79
:104B22002D00DC016697C63435F6F7313332360094
:084B320008101818100800001B
:00000001FF
