:100000000C9400060C941D060C941D060C942923D8
:100010000C941D060C941D060C941D060C941D06D4
:100020000C941D060C941D060C94F01F0C94C72014
:100030000C9434120C941D060C941D060C941D0691
:100040000C941D060C941D060C941D060C941D06A4
:100050000C941D060C94CC1F0C941D060C941D06CC
:100060000C941D060C941D060C941D060C941D0684
:100070000C941D060C941D060C941D060C941D0674
:100080000C941D060C941D060C941D060C941D0664
:100090000C941D060C941D060C941D060C941D0654
:1000A0000C941D060C941D060C941D0600AF00AEAA
:1000B0000000000000003E5B4F5B3E003E6B4F6B5C
:1000C0003E001C3E7C3E1C00183C7E3C18001C5729
:1000D0007D571C001C5E7F5E1C0000183C18000051
:1000E000FFE7C3E7FF00001824180000FFE7DBE785
:1000F000FF0030483A060E00262979292600407F65
:1001000005050700407F05253F005A3CE73C5A00A3
:100110007F3E1C1C0800081C1C3E7F0014227F220E
:1001200014005F5F005F5F0006097F017F000066CB
:1001300089956A0060606060600094A2FFA29400EC
:1001400008047E04080010207E20100008082A1CE5
:100150000800081C2A0808001E10101010000C1EB1
:100160000C1E0C0030383E383000060E3E0E0600E5
:1001700000000000000000005F0000000007000712
:100180000000147F147F1400242A7F2A12002313F6
:10019000086462003649562050000008070300003A
:1001A000001C224100000041221C00002A1C7F1C70
:1001B0002A0008083E080800008070300000080887
:1001C0000808080000006060000020100804020019
:1001D0003E5149453E0000427F4000007249494976
:1001E00046002141494D33001814127F1000274565
:1001F000454539003C4A4949310041211109070070
:10020000364949493600464949291E000000140074
:1002100000000040340000000008142241001414C3
:1002200014141400004122140800020159090600A8
:100230003E415D594E007C1211127C007F494949B4
:1002400036003E41414122007F4141413E007F490D
:10025000494941007F09090901003E4141517300AC
:100260007F0808087F0000417F4100002040413F97
:1002700001007F08142241007F40404040007F027F
:100280001C027F007F0408107F003E4141413E0078
:100290007F09090906003E4151215E007F091929A5
:1002A000460026494949320003017F0103003F40CF
:1002B00040403F001F2040201F003F4038403F008B
:1002C0006314081463000304780403006159494D62
:1002D0004300007F4141410002040810200000411A
:1002E00041417F00040201020400404040404000C0
:1002F0000003070800002054547840007F2844443D
:100300003800384444442800384444287F00385496
:100310005454180000087E0902001824241C780098
:100320007F080404780000447D4000002040403DE8
:1003300000007F102844000000417F4000007C0442
:10034000780478007C080404780038444444380079
:100350007C1824241800182424187C007C08040429
:10036000080048545454240004043F4424003C40F2
:1003700040207C001C2040201C003C4030403C00C1
:100380004428102844004C9090907C004464544CC5
:1003900044000008364100000000770000000041E2
:1003A000360800000201020402003C2623263C001D
:1003B000000000000080808080000000000080E0DD
:1003C00070180C1830E080000010F8901030783071
:1003D00010B8FC3810000000000000F8FCF8000025
:1003E00000000000000000000000001C9C1C000039
:1003F0000000F8FCF80000000000001CFCF8C00041
:10040000000000000080E0F87C1C000000F0FCFC14
:10041000FC1C1C1C1C1C1C1C1C000000000000C040
:10042000F0F8381C1C1C1C1C1C3CF8F0E000E0F030
:10043000F0F0E0ECEEF7F37020007C7C7C7E007E38
:100440007E7E7F7F7F000080C0E07E5B4F5BFEC0D2
:100450000000C000DCD7DEDEDED7DC00C00000001C
:10046000000000000000000000000000000000008C
:1004700000000000000FBCE0818181838382870C33
:10048000183060C000001FFE90B9FFBB91983C1867
:1004900011133F1100000000000000FFFFFF0000EB
:1004A0000000000000000000000000FFFFFF00004F
:1004B0000000FFFFFF0000000000000000030F7FAE
:1004C000F8E080F0FC3F0F0100000000003F3F3FDC
:1004D0001C1C1C1C1C3C78F8F0E08000000000C3D1
:1004E000E7FF7E3C3878787070F8FFDF87000F1FD9
:1004F0003F7F7F7F7F7F3F1E0C001F1F1F3F003FFE
:100500003F3F7F7F7F00307B7F7830202030787FB7
:100510003B0003000F7F0F0F0F7F0F000300000051
:1005200000000000000000000000000000000000CB
:10053000183C24666341C18180808080808081C1B5
:100540004162386C4CC68181808080808081C1434B
:1005500062361C1800000000000000FFFFFFC0C052
:10056000C0C0C0C0C0C0C0800000007FFF7F0000CE
:1005700000007FFFFFC080000000E0E0C0C0C0E0DE
:10058000F97F1F0700000000000000000070F0E08D
:10059000E0C0C0C0C0E0F0F87F3F0F0000000F3F98
:1005A0007FF9E0E0C0C0C0C0C0E0F97F3F1F00009D
:1005B000000000000000000000000000000000003B
:1005C000000000000000000000000000000000002B
:1005D000000000000000000000000000000000001B
:1005E000000000000000000000000000000000000B
:1005F00005010906A101050719E029E715002501F4
:10060000950875018102950175088101050719009A
:1006100029FF150026FF00950675088100050819B9
:1006200001290515002501950575019102950175B2
:10063000039101C009022200010100A0FA0904008F
:1006400000010301010009211101000122440007FA
:100650000581030800011201000200000008D8040F
:100660002DEB0001010200010E034C0069006C003B
:10067000790035003800000010036C0069006C0040
:10068000690075006D00730000000403090400DABE
:100690000281FFD9F1DB20A4A62EAF00A0C0D300B9
:1006A00000A1C8D30000AED580A81F408D14200043
:1006B00000000080C0E07038180C0CCEE6F6F6FEA4
:1006C000FEF6F6E68E0C1C183870E0C080000000C4
:1006D00000F8FEE7F9F8FCFCFCFCF8FBE70F1FFF55
:1006E000FF1F0FF7F9FCFCFCFCFCF8F34FFEF800D1
:1006F000001F7FF0C30707070707070F1C3870FFAD
:10070000FF783C1F0F070707070707C3F07F1F008D
:100710000000000103070E1C183030706060607F1D
:100720007F606060703038181C0E07030100000005
:1007300000000000000000C0E0F0F87C3E1F1F1F1A
:100740001C1E1F1F1F9FDF9F0000000000000000F5
:1007500000000000000000C33FFFFFF8E0C0C0C081
:10076000C0C0E0F8FFFF3F8700000000000000006D
:10077000000000000000001F7FFEF9F1C3830303A7
:100780000383C3F1F9FC3F0F0000000000000000EC
:10079000000000000000007878787B7F7F7F7E7CFF
:1007A0003E1F7F7F7B000000000000000000000073
:1007B00000000000000000C0E0F0F87C3E1F1F1F9A
:1007C0001C1E1F1F1F9FDF9F000000000000000075
:1007D00000000000000000033FFFFFF8E0C0C0C0C1
:1007E000C0C0E0F8FFFF3F0700000000000000006D
:1007F000000000000000000080E0E10103030707A3
:1008000087C3F3F9F9F8F8F80000000000000000D1
:10081000000000000000003F3F3F3FC0E0F8FCFE4A
:100820003F1F0707FFFFFFFF000000000000000060
:1008300000000000000000000000001F8FC3C1C0C6
:10084000009EDEDEDFDFCFC70000000000000000FA
:1008500000000000000000F0F8FCFE1F0F07070773
:1008600007070707C7E7F7E70000000000000000E0
:1008700000000000000000000F3F7F7EF8F0F0F065
:10088000F0F0F87E7F3F0F01000000000000000044
:1008900000000000000000E0F8F8FCFC3C3C010116
:1008A000010000000080E0F00000000000000000F7
:1008B00000000000000000FFFFFFFFFF00000080BD
:1008C000C0F0F8FE7F1F0F030000000000000000D2
:1008D000000000000000000F0F0F0F8FCFEFEFEFB1
:1008E00087C3EFEFEFE0E0E0000000000000000051
:1008F0000000000000000078FCFEFF0F0703030368
:1009000003030303E3F3FBF3000000000000000017
:100910000000000000000000071F3F3F7C78F8F84F
:10092000F8787C3F3F1F0700000000000000000037
:1009300029001E001F002000210022002B001400AF
:100940001A00080015001700E100042816240721EA
:1009500009220A00E0001D001B0006001900050026
:100960000000E3002352E2002C002F003500270096
:1009700026002500240023002D00130012000C0087
:1009800018001C00340033380F240E310D320B00D8
:10099000E500380037003600100011000000E700C5
:1009A00024522A002800300029001E001F002000C9
:1009B000210022002B0014001A00090013000A0075
:1009C000E10004281524162117220700E0001D006D
:1009D0001B000600190005000000E3002352E2009E
:1009E0002C002F00350027002600250024002300BE
:1009F0002D0033001C0018000F000D0034001238C9
:100A00000C24083111320B00E500380037003600A5
:100A100010000E000000E70024522A0028003000D9
:100A200029001E001F002000210022002B001400BE
:100A30001A00080015001700E10004001600070066
:100A400009000A00E0001D001B0006001900050057
:100A50000000E3002352E2002C002F0035002700A5
:100A600026002500240023002D00130012000C0096
:100A700018001C00340033000F000E000D000B00A6
:100A8000E500380037003600100011000000E700D4
:100A900024522A002800300001000100010001005A
:100AA000010001003A003B003C003D003E003F00D9
:100AB00035001E021F022002210222020100010055
:100AC000010001000100010000000100010001001F
:100AD000010001000100010001000100010001000E
:100AE0004500440043004200410040003502270217
:100AF0002602250224022302310230022F022E0296
:100B00002D020000000001000100010001000100B1
:100B100001000100010001000100010035001E007C
:100B20001F002000210022003A003B003C003D0055
:100B30003E003F00400041004200430044004500A9
:100B4000000001000100010001000100010001009E
:100B5000010001000100010001002700260025001E
:100B600024002300000000004F00520051005000FC
:100B7000310030002F002E002D002E020000010059
:100B80000100010001000100000000000000000061
:100B90000000000000000000000000000000000055
:100BA00000000000407E417E427E00000000000008
:100BB0000000000000000000000001000100010032
:100BC0000100000000000000000000000000000024
:100BD0000000000000000000000000000000000015
:100BE0000000000000000000000000000000000005
:100BF00000000000000001000100010001000000F1
:100C000011241FBECFEFDAE0DEBFCDBF11E0A0E0C0
:100C1000B1E0ECE7FBE402C005900D92A838B10703
:100C2000D9F724E0A8E8B1E001C01D92A73EB207C1
:100C3000E1F70E94E71A0C9489250C9400009C01AE
:100C4000892F99270097E9F09C0188E0A90174E0B9
:100C5000569547957A95E1F74115510511F08C5F4E
:100C60009A01A90156954795569547954115510505
:100C700011F08E5F9A0136952795232B09F08F5F2F
:100C8000089580E0E3CF90939F0480939E0408959D
:100C90009C0188719927489731F420623093A10410
:100CA0002093A00408952F7DF9CF21E030E002C009
:100CB000220F331F8A95E2F78091A0049091A1043E
:100CC000822B932B0E944806089521E030E002C059
:100CD000220F331F8A95E2F7209530958091A0046A
:100CE0009091A104822393230E94480608959A308C
:100CF00098F5863088F5E82FF0E086E0989FE00DC3
:100D0000F11D11248E2F877041E001C0440F8A9598
:100D1000EAF783E0F695E7958A95E1F7EE0FFF1F76
:100D2000EE0FFF1FEA5BFB4F20E030E070E05191D7
:100D3000DF011197CB01022E02C0969587950A9488
:100D4000E2F7817081958527842385278C932F5F17
:100D50003F4F2430310559F708959A3078F58630A1
:100D600068F5E82FF0E086E0989FE00DF11D112472
:100D70009E2F977083E0F695E7958A95E1F7EE0F41
:100D8000FF1FEE0FFF1FEA5BFB4F40E050E080E0EB
:100D9000219130E0092E02C0369527950A94E2F79A
:100DA00021703327042E01C0220F0A94EAF7822B08
:100DB0004F5F5F4F4430510559F7089580E0089523
:100DC0008091A7049091A604981301C008958F5FA5
:100DD0008770FACF9091A204809589238093A20412
:100DE000282F277021110DC0891759F09091A40464
:100DF00092FF07C08695869586950E94650610929B
:100E0000A2040895982F909580919B048923809344
:100E10009B0408957A30B8F46630A8F48630B0F4B4
:100E2000E62FF0E096E0799FE00DF11D11249CE3A0
:100E3000899FE00DF11D1124EE0FFF1FE05DF64FBD
:100E400085919491089580E090E0089581E0FCCF31
:100E5000803E9105D1F1C8F48133910509F47FC03A
:100E600048F48932910509F46FC08A32910509F47A
:100E70007DC0089589339105E1F082389105C9F06C
:100E80008533910509F45BC00895843E9105D1F145
:100E900048F4823E910531F1833E910541F181EEA6
:100EA00090E00895863E9105C1F1873E9105E1F1FC
:100EB00008952091A3042370211165C02091A404FA
:100EC00023FF14C089E290E008952091A30420FD3F
:100ED00043C03091A40430FF09C024FF4EC080E01D
:100EE00090E008952091A30422FDF7CF089520916A
:100EF000A30422FD45C03091A40430FD44C024FF6A
:100F0000F5CFEDCF2091A40421FFF0CF8091A30471
:100F100084FDE5CF87EE90E008952091A30423FFA0
:100F2000E5CF24FDDCCFF6CF2091A30423FD2EC016
:100F30003091A40431FFE3CF84EE90E00895209136
:100F4000A30425FFD3CFBECF2091A30425FD21C04C
:100F50002091A40423FFCACF89E390E00895209153
:100F6000A30426FFC3CF8AE290E008952091A30452
:100F700026FFBCCF81E390E0089583EE90E00895D2
:100F800082EE90E0089580EE90E0089586EE90E085
:100F9000089585E390E0AACF9091A30492FF10C03A
:100FA00041E0282F2471243009F040E031E0282F5F
:100FB0002871283009F030E0431711F02CE0822727
:100FC00093FF10C041E0282F2471243109F040E044
:100FD00031E0282F2871283109F030E0431711F053
:100FE0002CE082273091A40430FF10C051E0282F5C
:100FF0002171213009F050E041E0282F287128307C
:1010000009F040E0541711F029E0822731FF10C0A9
:1010100041E0282F2171213109F040E031E0282FF3
:101020002871283109F030E0431711F029E08227B8
:1010300094FD877E08951F93CF93DF930E94280726
:10104000EC01811522E5920708F04DC0811540E5BD
:10105000940708F0C5C0883E910588F0811550E4DA
:10106000950728F199270E942807CC27DF70C82B05
:10107000D92BD06ACE01DF91CF911F910895803E88
:101080009105C0F7853A910550F4049798F781E0EF
:10109000219709F080E0C82F80E0D82FEBCF8D5C3E
:1010A0009109D065439730F3C0E0D0E0E3CFC1159C
:1010B00090E2D90708F0ADC0CE019A9581159F4105
:1010C00098F78D2F0E94CC07182FCE0199270E94E8
:1010D0002807212F30E0322F2227E901CC27DF71AA
:1010E000C82BD92BC7CF803842E59407C0F580368E
:1010F00052E5950708F055C0C03482E5D807B0F036
:101100008C2F86958695877020E2829FC0011124DE
:10111000C37021E030E0A90102C0440F551FCA95F9
:10112000E2F7EA01C82BD92BDC68A4CFC03252E524
:10113000D50780F58C2F8695869520E2829FC00189
:101140001124C37021E030E0A90102C0440F551FF3
:10115000CA95E2F7EA01C82BD92BDD688BCF803C1A
:1011600052E5950758F48F71C03AD24578F590E072
:10117000982F8827EC01C46FD06A7CCF805C9245A1
:10118000809708F091CFDC2FCC27CC27DF71C06F80
:10119000D06A70CFCF71D0E0DC2FCC27C16FD06A7E
:1011A00069CF86958695877020E2829FC0011124C1
:1011B000C37021E030E0A90102C0440F551FCA9559
:1011C000E2F7EA01C82BD92BDA6854CF0E94CC078A
:1011D000C82FD0E0DC2FCC27CC27DF71D0624ACFDC
:1011E0008F710E94CC0765E0D695C7956A95E1F7A7
:1011F000CF70D0E0DC2FCC27282F30E084FF05C053
:1012000054E0220F331F5A95E1F7C22BD32BD0693C
:1012100031CF8D2F8F710E94CC07182FCE019927C7
:101220000E942807212F30E0322F222722273F71EA
:10123000282B392BE901D2CFA0E0B0E0E2E2F9E0BF
:101240000C9461248C01E090A004F090A1048091A2
:101250009E0490919F04E82AF92ACFE0D0E0CC24A4
:10126000C394D12CC6010C2E02C0880F991F0A947A
:10127000E2F78E219F21892B49F4219798F7B12C11
:101280008B2DCDB7DEB7E9E00C947D24BC2EB801E0
:101290008C2F0E940A070E941B08019771F3F0CF60
:1012A0000F931F93CF93FC018581008111818823C7
:1012B00091F0662381F0C8010E941C09C82F682F95
:1012C000C8010E947706B8018C2F0E940A07CF91AF
:1012D0001F910F910895C8010E94AD06C82FF3CF4A
:1012E000CF93DF93D82FC92F0E941C096D2F7C2F1D
:1012F0000E940A070E941B08DF91CF910895FC010C
:1013000084818823A1F0808191810E947009282F17
:1013100092959F70963091F060F4925F9F7092303A
:1013200030F481E0203F79F030F4283E30F080E066
:1013300004C09A5FF3CF243FD1F7089581E0283E9F
:1013400018F0213FF9CF0895089580E00895F894AA
:10135000E82FE295EF70F0E041A18F7021E030E0DE
:10136000B90102C0660F771F8A95E2F7CB01962F6D
:101370009095942391A392A1892B82A378940895A8
:10138000CF93DF93B82FA92F9B018091CA01909131
:10139000CB0180519240AC01460F571F4130524063
:1013A00020F020E032E0281B390B409112045091CC
:1013B0001304EB2FFA2F280F391FC1E0D0E082175A
:1013C000930738F05093130440931204DF91CF91A8
:1013D00008956491DC01A05FBD4F7C91761779F090
:1013E0006C93BC01A5E076956795AA95E1F7DE01BF
:1013F00002C0AA0FBB1F6A95E2F74A2B5B2B01962E
:101400003196DDCF80913404882359F0E0913C047B
:10141000F0913D04309729F00190F081E02D09957D
:10142000089580E008959C01FC0132968FEF90E0D2
:101430004191461751F08F3F19F4411101C0892F96
:101440009F5F9630A9F78F3F09F40895280F311D4B
:1014500087FD3A95F901628308959C01FC0132965B
:10146000285F3F4F8191861303C0DF0111971C92C3
:10147000E217F307B9F70895A4E0B0E0E2E4FAE078
:101480000C9468248FB7F8942091BA013091BB0175
:101490004091BC015091BD0129833A834B835C8309
:1014A0008FBF69817A818B819C812496E2E00C94C4
:1014B0008424A4E0B0E0EFE5FAE00C946824809185
:1014C0003404882371F00E943C0A69837A838B83F9
:1014D0009C8369817A818B819C812496E2E00C94C3
:1014E00084240E943C0A69837A838B839C83809145
:1014F000360490913704A0913804B09139042981C1
:101500003A814B815C81280F391F4A1F5B1F298359
:101510003A834B835C83DDCFA4E0B0E0E2E9FAE0FC
:101520000C946624462F572FBC012FB7F894809156
:10153000BA019091BB01A091BC01B091BD012FBF38
:101540008C019D01041B150B260B370BC901B8013B
:101550002496E4E00C9482248091B90108950895C2
:1015600008950895FC019B018091AF019091B00115
:101570008617970740F0672B29F48091E8008E7753
:101580008093E800C90140E0009741F4411106C092
:101590008091E80082FF2FC080E008952091CF0164
:1015A0002223A9F12530A9F12091E80023FD2DC0C7
:1015B0002091E80022FDECCF2091E80020FFE4CF4D
:1015C0003091F3002091F200009719F02830310596
:1015D00058F041E02830310509F040E02091E80062
:1015E0002E772093E800D0CF41914093F1000197EE
:1015F0002F5F3F4FE9CF8091CF01882341F08530A5
:1016000041F08091E80083FFC3CF81E0089582E03C
:10161000089583E008958091A90187FF13C0809108
:10162000E80082FF06C08091E8008B778093E80095
:1016300004C08091CF018111F2CF08958091CF0134
:101640008823D9F38091E80080FFF8CF8091E800EB
:101650008E77ECCF2091E4003091E50095E6A9016A
:101660008091EC008170882331F08091E80080FF48
:1016700006C080E008952091E80022FD1BC0809103
:10168000CF01882391F0853091F08091EB0085FDAA
:1016900010C02091E4003091E5004217530701F398
:1016A00091509111DCCF84E0089582E0089583E0A9
:1016B000089581E00895E8EDF0E080818E7F8083D9
:1016C0001092E2001092DA001092E100A0EEB0E079
:1016D0008C9181608C9380818F77808319BCA7ED7A
:1016E000B0E08C918E7F8C9380818F7E808310926E
:1016F000A8010895FC01AC014B5F5F4F8FEF91E3B0
:101700002191822728E030E087FF0BC0880F8927CE
:101710002150310921153105B9F7E417F50781F793
:101720000895880FF5CF9091CC01989FC0011124A6
:10173000811522E0920714F080E090E0805F9D4FD9
:101740009093CB018093CA010895982F9093E9005C
:10175000891771F05091EC002091ED004091F0005C
:1017600021FD09C09F5F973089F78093E9000895B4
:10177000562F40E022E03091EB003E7F3093EB00AB
:101780003091ED003D7F3093ED003091EB00316002
:101790003093EB005093EC002093ED004093F00069
:1017A0002091EE0027FDDECF0895A0E0B0E0EBED44
:1017B000FBE00C946224C8EDD0E088818F7E8883A2
:1017C000E7EDF0E080818160808384E082BF81E08A
:1017D0008093A80188818E7F888302EE10E0F80153
:1017E00010821092DA0081EEC82ED12CF601108200
:1017F00088818F77888388818068888388818F7DBE
:10180000888319BC1092CF011092A7011092CE01CB
:101810001092A60190EEE92EF12CF70180818B7FCA
:10182000808388818160888360E080E00E94A50BCE
:10183000F60180818E7F8083F801808181608083C2
:10184000808188608083F70180818E7F808388819A
:1018500080618883CDB7DEB7E8E00C947E24E09108
:10186000A7049091A60427E0E91302C080E0089540
:10187000AE2FB0E02E9FF0011124E855FB4F3181CF
:10188000361306C03081381303C03581341304C0C9
:10189000FD013196E770E8CF81E008950F931F9323
:1018A000CF93DF93EC018091CF01843059F581E033
:1018B0008093E9008FEF9091E80095FD07C095EDCA
:1018C0009A95F1F7000081508111F5CF8091E800E1
:1018D00085FF18C00E942A0B81110FC008E010E09C
:1018E0008091E80085FD13C08091E8008E77809399
:1018F000E8000E942A0B882399F38091E8008E77F4
:101900008093E800DF91CF911F910F910895888116
:101910008093F100015011090115110571F3219611
:10192000DFCFCF93DF93D82FC92F0E944E0C88E0D2
:10193000ED2FFC2FA1EBB1E001900D928A95E1F71C
:10194000DF91CF910895A0E0B0E0E9EAFCE00C94CB
:101950006024F82EE92EB62EA72E8A018091A401CC
:10196000CC24C394D12C8A3018F48AE0C82ED12C10
:10197000C1E0D0E06B2D7A2D8F2D9E2DF8010995B9
:10198000811116C02196CC16DD0694F0CC9FC001C3
:10199000CD9F900D900D112420E030E045E34A9555
:1019A000F1F700002F5F3F4F28173907B9F7E2CF53
:1019B000CDB7DEB7EAE00C947C249091A40492FBAE
:1019C000222720F9281779F080FB92F99093A4043C
:1019D0006091A3047091A40484E090E00E947325B8
:1019E00082E00E94EA06089580919B049091A504EC
:1019F000892B40919C04442389F090E02CE831E04D
:101A0000F90150812F5F3F4F51119F5F51E0223903
:101A10003507B1F7911110929C04842B80938A01B1
:101A200048E050E06EE374E08AE891E00E942125EE
:101A3000892BA9F088E0EAE8F1E0AEE3B4E0019098
:101A40000D928A95E1F7E0913C04F0913D043097C6
:101A500031F00280F381E02D8AE891E00995089544
:101A600010929B04ECE8F1E086E0DF011D928A957C
:101A7000E9F71092A5040E94F40C08950E94300D1D
:101A80002FEF84E39CE0215080409040E1F700C0BC
:101A9000000088E19AE00FB6F894A8958093600062
:101AA0000FBE90936000FFCFAAE2B0E0EAE5FDE050
:101AB0000C94672489EA91E0FC0101962091F100E1
:101AC000208321E0813B9207B9F78091AA018930F8
:101AD00009F456C0C8F4823009F4B2C0833009F466
:101AE00081C0813071F18091E80083FFE6C0809170
:101AF000A9019091AA019A3008F0DFC0E92FF0E027
:101B0000E557FA4D0C94F0248A3009F488C08B30E4
:101B100051F78091A901813231F78091AD01909107
:101B2000AE01892B01F78091E800877F8093E80060
:101B30000E940B0B8091AB01809300010E94300D3D
:101B4000D2CF8091A901813A71F68091E800877F18
:101B50008093E8008091AD019091AE01892B61F0F6
:101B600060E080E090E070E00E94B20A8091E800BE
:101B70008B778093E800B7CF68E081EB91E0F3CFFB
:101B80008091A901813209F0AECF8091AD01909191
:101B9000AE01892B09F0A7CF8091E800877F809361
:101BA000E8008091E80082FF18C09091F3008091D6
:101BB000F200029731F48091F100813011F086300B
:101BC00021F48091F1008093B9018091E8008B7736
:101BD0008093E8000E940B0B86CF8091CF0181118A
:101BE000E0CF81CF8091A901813A09F07CCF80912B
:101BF000AD019091AE01892B09F075CF8091E8007D
:101C0000877F8093E8008091E80080FFFCCF80917F
:101C100000018093F1008091E8008E77D9CF809108
:101C2000A901813209F05FCF8091E800877F80931E
:101C3000E8000E940B0B8091AC018093A50153CF6B
:101C40008091A901813A09F04ECF8091E800877F09
:101C50008093E8008091E80080FFFCCF8091A5018F
:101C6000D8CF803889F0823841F58091AD018F70EE
:101C7000873018F58093E9008091EB0085FB882779
:101C800080F91092E90006C08091A6019091CE01E2
:101C9000911182609091E800977F9093E800809383
:101CA000F1001092F1008091E8008E7723C081113D
:101CB00016C08091AB01813011F18091E80083FF63
:101CC0000AC08091E800877F8093E8008091EB0054
:101CD00080628093EB00AA96E3E00C948324823028
:101CE00061F78091AB01882389F01092E90080911F
:101CF000E800877F8093E8000E940B0BDECF81E035
:101D0000933009F080E08093CE01EFCF8091AD0158
:101D10008F702FEF280F263080F68093E9002091F6
:101D2000EB0020FFE2CF933031F48091EB00806232
:101D30008093EB00DACF9091EB0090619093EB00F1
:101D400021E030E0A90102C0440F551F8A95E2F757
:101D50004093EA001092EA008091EB008860E8CF9F
:101D60008111ABCF1091AB011F778091E300807898
:101D7000812B8093E3008091E800877F8093E800C7
:101D80000E940B0B8091E80080FFFCCF8091E30064
:101D900080688093E30083E0111101C082E08093AA
:101DA000CF018BCF8058823008F087CF2091AB01D4
:101DB0003091AC012C3D53E0350799F583E08A83DF
:101DC0008AE289834FB7F894DE01139620E03EE063
:101DD00051E2E32FF0E050935700849120FF03C0BD
:101DE00082958F703F5F8F708A30C8F0895C90E079
:101DF0008D939D932F5F243161F74FBF8091E80051
:101E0000877F8093E8006AE270E0CE0101960E942D
:101E1000B20A8091E8008B778093E8004ECF805D16
:101E2000E6CF4091AD015091AE01832F99278330C9
:101E30009105E1F060F48130910509F468C00297E2
:101E400009F03BCF82E290E0E4E3F6E024C0813287
:101E5000910509F454C0829709F02FCF452B09F062
:101E60002CCF84E490E0E0EFF5E015C0C90199279C
:101E70002130A9F18230910509F439C0892B09F08C
:101E80001CCFEAE8F6E0E4918E2F90E0EAE8F6E075
:101E9000009709F412CF2091E800277F2093E800F3
:101EA0002091AF013091B0018217930708F49C0193
:101EB00040E02115310581F541112EC08091E800E7
:101EC00082FDA7CF8091CF01882309F4A2CF85306E
:101ED00009F49FCF8091E80083FFF0CF9ACFE8E725
:101EE000F6E0E4918E2F90E0E8E7F6E0D1CFE8E667
:101EF000F6E0E4918E2F90E0E8E6F6E0C9CF452BBE
:101F000009F0DBCE89E090E0E6E4F6E0C4CF82E1C0
:101F100090E0E6E5F6E0BFCF8091CF01882309F499
:101F200078CF853009F475CF8091E80083FD71CFBB
:101F30008091E80082FDC2CF8091E80080FFB9CF98
:101F40009091F3008091F2002115310519F088304D
:101F5000910550F041E0089709F040E08091E800D9
:101F60008E778093E800A5CF44914093F10031969D
:101F7000215031090196E8CF803809F09ECE80913A
:101F8000E800877F8093E8008091A7018093F100AB
:101F90008ACE811192CE1091AB01123008F08DCE15
:101FA0008091E800877F8093E8001093A7010E944A
:101FB0000B0B112351F084E08093CF0161EC81E0A1
:101FC0000E94A50B8091CF0178CE8091E30087FD20
:101FD000F2CF81E0F1CFCF93C82F8823A1F08CEF0F
:101FE0008C0F813A90F4ECE8F1E08191C817F1F0A0
:101FF00081E0E239F807C9F76C2F8AE891E00E9486
:10200000130A0E94F40CCF91089580E28C0F88305F
:10201000D0F7C77021E030E001C0220FCA95EAF77F
:1020200080919B04822B80939B04EBCF6C2F8AE8DA
:1020300091E00E942D0A0E94F40CDECF682F8823C5
:1020400051F08CEF860F813A38F48AE891E00E94D3
:102050002D0A0E94F40C089580E2860F8830D8F78C
:10206000677081E001C0880F6A95EAF70E94020755
:10207000F0CF882339F090919B04892B80939B04A7
:102080000E94F40C0895882321F00E9402070E9408
:10209000F40C0895A8E0B0E0E0E5F0E10C946724CA
:1020A00080911D0490911E04A0911F04B091200402
:1020B000BC01CD010E948C0A11E0643671058105D6
:1020C000910578F10E94590ADC01CB010296A11D0D
:1020D000B11D89839A83AB83BC8380912501909144
:1020E00026018F5D9B4F20912401422F50E0253027
:1020F00010F044E050E0BE016F5F7F4F0E942E253C
:1021000082E090E00E94CF23182F882351F00E9494
:102110003C0A60931D0470931E0480931F049093E7
:102120002004812F2896E3E00C948324AAE0B0E0F9
:10213000ECE9F0E10C946524F62E072F80E090E0A6
:102140000E94CF23182F882309F462C080911701C1
:10215000482F50E0882311F041E050E060911801D1
:10216000709119016F5D7B4FCE0106960E942E255E
:102170008091300490913104A0913204B0913304E5
:10218000BC01CD010E948C0A6F83788789879A876A
:10219000643671058105910538F482E294E00E946D
:1021A0007A0B9E818917A1F181E090E00E94CF23F4
:1021B0008823C9F180911F01482F50E0863010F02C
:1021C00045E050E060912001709121016F5D7B4FEF
:1021D000CE0101960E942E2582E294E00E947A0BA5
:1021E0009E81891320C00E943C0A60933004709342
:1021F0003104809332049093330485E0FE013196DC
:10220000ABE2B4E001900D928A95E1F781E00CC059
:1022100085E0E2E2F4E0DE01119601900D928A95EC
:10222000E1F71111EACF80E095E0EBE2F4E0AF2DA9
:10223000B02F01900D929A95E1F72A96E5E00C9463
:102240008124AB0124E630E0BC0188E70E94E6214E
:102250009C0181E0232B09F080E0089580911B040C
:10226000882369F080911804882349F062E070E0C7
:102270008EEA90E00E9421118111109218040895B5
:10228000A4E0B0E0E6E4F1E10C94682480911B0442
:102290008823F9F00E943C0ADC01CB01805A954169
:1022A000AF4FBF4F8093140490931504A09316046E
:1022B000B09317048091180481110BC062E070E0A4
:1022C0008CEA90E00E942111882319F081E080932C
:1022D00018042496E2E00C948424CF93DF93682FB3
:1022E0008091CA019091CB016A30B9F42091CC0160
:1022F00080519240622F70E00E944424281B822F5C
:1023000066E00E948F24C82FC15018F4DF91CF914E
:10231000089580E20E946D11F7CF6D30F9F49C01B1
:10232000205132404091CC01642F70E0C9010E94DD
:102330004424481B842FA901480F511D41155240C8
:1023400018F080E020E030E0820F932F911D805F35
:102350009D4F9093CB018093CA01D8CF26E0FC011A
:10236000AEE9B1E001900D922A95E1F7603E08F4E4
:1023700058C026E0FC0111922A95E9F7C091CA01E4
:10238000D091CB0146E050E0BE018EE991E00E9481
:1023900021259E0120513240892B41F1C90145E0A0
:1023A000969587954A95E1F741E050E0BA0102C061
:1023B000660F771F8A95E2F7CB0160911204709146
:1023C0001304862B972BB9016B5F7F4FE5E0769561
:1023D0006795EA95E1F702C0440F551F6A95E2F749
:1023E000842B952B90931304809312042A5F3F4F04
:1023F0004091CC01642F70E0C9010E944424481B25
:10240000463010F4240F311D211572E0370710F00B
:1024100020E030E0205F3D4F3093CB012093CA0194
:1024200075CFF6E06F9FB001112460557F4F46E0F5
:1024300050E00E941825A2CF0F931F93CF93DF93F4
:10244000EC01FC0101900020E9F78F010150110916
:10245000C017D10728F0DF91CF911F910F910895F8
:1024600089910E946D11F4CF1F921FB61F92112403
:102470008F939F93AF93BF938091CD01811113C030
:102480008091BA019091BB01A091BC01B091BD01B6
:102490004196A11DB11D8093BA019093BB01A093F9
:1024A000BC01B093BD01BF91AF919F918F911F90DF
:1024B0001FBE1F9018952FB7F8948091BA01909184
:1024C000BB01A091BC01B091BD012FBF08959C013B
:1024D0004FB7F8948091BA019091BB01A091BC01D3
:1024E000B091BD014FBF821B930B08950F931F93B3
:1024F000CF93DF93C62FD42F122F8823A9F0609398
:1025000099040E945B1290939D0180939C01C77077
:1025100081E001C0880FCA95EAF70E943910DF9167
:10252000CF911F910F91089580919904681338C03D
:1025300080919C0190919D010E9467128A3A9105B9
:1025400078F5CD130FC0812F0E94EB0F812F0E94D1
:102550001E10D77081E001C0880FDA95EAF70E945B
:102560004310DDCFC77001E0802F01C0880FCA95EE
:10257000EAF70E94431080E28D0F883050F48D2FCF
:10258000877001C0000F8A95EAF7802F0E943910EA
:10259000DACF812F0E94EB0F812F0E941E10BFCF38
:1025A000C77081E001C0880FCA95EAF7D8CFA0E0D4
:1025B000B0E0EDEDF2E10C9462247C01FC01848139
:1025C000882309F4C3C061E0C7010E945009EC01EF
:1025D000F7018581882309F49CC09E013A95211555
:1025E0003F4488F0CF3FD105A9F1A0F1C1342EE7D7
:1025F000D20709F034C462E083E090E00E945525E0
:1026000082E090E03DC4CE0199279C01245031091D
:102610002432310508F453C08B970E9708F44FC04D
:1026200010929904C631FCE7DF0709F076C180916A
:102630009B048A7A91E0811101C090E090939A0402
:1026400069E2811165E38AE891E00E94130A0E9421
:10265000F40C6CC09E01245031092432310588F4F9
:10266000E0919804F0E0EE0FFF1FEA59FB4F8081E4
:1026700091818F3F3FE7930799F201969183808381
:10268000CFCF9E012B5231092E30310548F6E09113
:102690009804F0E0EE0FFF1FEA59FB4F20813181D3
:1026A0002F3F9FE7390721F02F5F3F4F3183208372
:1026B000FE01E851FC47E730F10588F4F8C3E091EA
:1026C0009804F0E0EE0FFF1FEA59FB4F80819181E3
:1026D0008F3F2FE7920719F0019691838083109224
:1026E0009904CE019057839708F09CCF84E090E046
:1026F0000E943F259093A4048093A304FE01E1501F
:10270000F047E232F10508F04BC0EB56FA4D0C945D
:10271000F024C1343EE7D30749F0C2349EE7D9071D
:1027200029F0C034EEE7DE0709F0BBC38091A204B4
:102730008770882359F0F7018581882339F08091CB
:10274000A40482FF03C082E00E94EA06CDB7DEB790
:10275000E8E00C947E2464E083E090E00E9455253C
:1027600084E090E08DC326E241EE61EE0E94761295
:10277000DDCF27E245EE65EEF9CF26E241EE60EED1
:10278000F5CF27E245EE64EEF1CF26E241EE62EEB0
:10279000EDCF27E245EE66EEE9CF28E241E0EBCF50
:1027A0008091A30481608093A3046091A30470913D
:1027B000A40484E090E00E9473250E94300DB6CFFF
:1027C0008091A40488608093A404EFCF8091A30437
:1027D0008260E9CF8091A3048460E5CF8091A30457
:1027E0008860E1CF8091A4048160EDCF8091A40442
:1027F0008260E9CF8091A3048061D5CF8091A3044A
:102800008062D1CF8091A3048064CDCF0E94300D2F
:102810008091A3048068C7CF8091A3048C60C3CF4C
:102820008091A4048360CFCF8091A3048E7FBBCF1F
:102830008091A404877FC7CF8091A3048D7FB3CFFD
:102840008091A3048B7FAFCF8091A304877FABCF10
:102850008091A4048E7FB7CF8091A4048D7FB3CFE5
:102860008091A3048F7E9FCF8091A3048F7D9BCF07
:102870008091A3048F7B97CF0E94300D8091A30499
:102880008F7791CF8091A304837F8DCF8091A40413
:102890008C7F99CF8091A30482FB992790F921E046
:1028A000922790FB82F990FB83F97DCF8091A4045D
:1028B000982F909591708E7F892B90FB81F983CF13
:1028C0009091A304892F8F7B96FF80646CCF0E9428
:1028D000300D9091A304892F97FB87F9805863CF1F
:1028E00061E08EE090E00E9455255FCF60E0F9CF77
:1028F0009091A304892F8F7E94FF806154CF909193
:10290000A304892F8E7F90FF81604DCF9091A40406
:10291000892F877F93FF886056CFCA352CE7D2076F
:1029200009F4B4C008F07CC0C1308CE7D80709F4C2
:10293000ABC0C3309CE7D90709F4A0C0C115DC4780
:1029400009F480C0F701858100811181882309F491
:10295000A1C0C8010E941C09C82F682FC8010E948D
:102960007706B8018C2F0E940A070E941B08D82FF7
:10297000C92FF701D580C680C2948FE0C82280910C
:10298000A20487708823F9F00D2DDD20E9F0892F4E
:10299000807F803461F080E28D0F8830A0F0892F35
:1029A000807E803221F4D23070F0CC2061F08091B2
:1029B000A40482FF08C082E00E94EA068091A2047B
:1029C000877001E0811100E08C2F82958F70883034
:1029D00009F42DC108F063C0823008F472C0825F30
:1029E0008F70823008F4A5C00023A9F08091A20462
:1029F00080FD11C0F70115828695869586950E9407
:102A00005506C7010E94D7128091A204869586952B
:102A100086950E94650660E0C7010E94500996CE27
:102A2000CB35FCE7DF07A1F1CC35DC4709F08ACFD5
:102A30008091A40482FB882780F991E089270E9475
:102A4000DD0C80CF0E94300D3FEF84E39CE03150DD
:102A500080409040E1F700C0000087E797E790933F
:102A600001088093000888E19AE00FB6F894A895D1
:102A7000809360000FBE90936000FFCF6FEF7FEFF9
:102A800080E090E00E9473250E943E0D81E0D7CF48
:102A900080E0D5CFC8010E94AD06C82F62CF893033
:102AA00009F451C18A5F8F70823008F09DCFD23F08
:102AB00009F05AC18C2F8F71D11053C10E94550655
:102AC000EBC01C2F1F70C03110F01295107FDD205D
:102AD000B9F0112369F080E28D0F883010F0D11128
:102AE00009C080919B04812B80939B040E94F40C6D
:102AF0008D2F41C08091A504812B8093A504F6CF32
:102B00008D2F0E941E10112309F46ECF80E28D0FCD
:102B1000883010F0D11104C0812F0E94020706C036
:102B200010958091A50481238093A5040E94F40C44
:102B30005BCF1C2F1F70C07FC03211F01295107F29
:102B4000DD2349F0D13009F452C0DD2009F45EC024
:102B5000CC20F9F0CDCF8091A40482FD16C0DD20F9
:102B600069F0112339F080919B04812B80939B04A1
:102B70000E94F40C80E00E94EB0F36CF80E00E94B0
:102B80001E10112309F430CFC7CFDD20A1F0C110F2
:102B900004C0812F0E94391027CFF1E0CF1224CF3B
:102BA00080919C04912F9823191709F41DCF812B34
:102BB00080939C0419CFC11017CF812F0E9443101E
:102BC00090919C04812F8923882329F0812F80955F
:102BD000892380939C0480919D04912F98239923AD
:102BE00009F402CF1095182310939D04FDCEDD202B
:102BF00029F025E02C1508F4F7CECBCF34E03C15B6
:102C000008F4F2CE812F0E944310EECECC20D1F3F7
:102C1000D93349F48FEF97EEE3E081509040E040E4
:102C2000E1F700C000008D2F0E941E10DDCE8C2F1A
:102C30008370811142C0D1102FC04D2F429546950F
:102C40004770440F440F2D2F2F7030E0042E02C028
:102C5000220F331F0A94E2F780E090E0D4FF09C00E
:102C60008FE090E002C0880F991F4A95E2F78095A7
:102C70009095C695C695C370C230B1F0C33089F047
:102C800040919E0450919F04C13049F0822B932BB8
:102C9000842395230E9443060E94020AA5CE242B7A
:102CA000352B822B932BF6CF822B932B20919E04D6
:102CB00030919F0482279327EDCFDD2091F1C0FF53
:102CC000EBCF4D2F429546954770440F440F2D2F63
:102CD0002F7030E0042E02C0220F331F0A94E2F757
:102CE00080E090E0D4FF09C08FE090E002C0880F40
:102CF000991F4A95E2F780959095C695C695C37041
:102D0000C230C1F0C33099F04091A0045091A104A9
:102D1000C13059F0822B932B842395230E944806BF
:102D2000BBCF823008F4B8CFCCCF242B352B822BED
:102D3000932BF4CF822B932B2091A0043091A104EC
:102D400082279327EBCFCF70DD2039F08C2F0E94A4
:102D500055068D2F0E9439109FCF8D2F0E94431052
:102D60008C2F0E94650698CFD33F78F4D03FC1F0F6
:102D7000D13F09F440C0DD2009F45FC0CC2009F444
:102D800059C08D2F0E94EB0F87CFD33F11F1D43F55
:102D900071F1D110F3CFC1105EC08C2F8F71E1CFD4
:102DA000DD20A1F0F4E0FC1508F476CFCF7181E0CE
:102DB00090E09C0102C0220F331FCA95E2F7809178
:102DC000A0049091A10482279327A8CF35E0C316D1
:102DD000EBCF80E090E0DD2009F4A0CFCF7181E05F
:102DE00090E002C0880F991FCA95E2F797CF9091A3
:102DF000A40492FD06C08C2F8F71DD2009F4B1CFA1
:102E00005DCEDD2061F08C2F8F7192FF57CE98E060
:102E1000899F9001112423602093A2044FCE81E06A
:102E20000E94EA06E1E0EC1508F036CF82E00E944D
:102E3000EA0632CF8C2F8F7141CECC2009F4ADCF72
:102E4000D93349F4FFEF27EE33E0F1502040304012
:102E5000E1F700C000008D2F0E941E101DCFC2346C
:102E6000FEE7DF0709F477CCC0342EE7D20709F07C
:102E70001FCC61E083E090E00E94552581E090E066
:102E80000E94430653CCC631DC4709F05BCD8091EC
:102E90009A0469E2811165E38AE891E00E942D0AB3
:102EA000D6CBFE01E851FC47E730F10560F7E95465
:102EB000FA4D0C94F0248091E604803178F48091EE
:102EC000E504882359F0E091A7042091A6043091ED
:102ED000E1044091E00457E02E1301C008956E2FE5
:102EE00070E05E9FF0011124DF01A855BB4F1496DE
:102EF0008C911497882361F111968C91119783130B
:102F000027C08C91841324C015968C91159781113C
:102F10001FC012968D919C91A091E204B091E304A0
:102F20008A1B9B0B8A3A910598F48091E6048F7076
:102F300080618093E604E255FB4F80818F70806151
:102F4000808380EE94E00E94D7120E94E0060895EC
:102F5000FB013196E770C0CFADE0B0E0E2EBF7E106
:102F60000C945D248C0186E0F801DE011896019036
:102F70000D928A95E1F7F801E080F580A280B38098
:102F8000C48080EE882E84E0982E7090E404711046
:102F900020C0CC20D9F0FF2009F40AC1C8010E944A
:102FA0007F09882309F404C187E0F801D401019066
:102FB0000D928A95E1F7F1E0CF1206C08091E0040E
:102FC0009091E1040E9470090E945B17FF24F39422
:102FD00051C0D090E5048091E2049091E304950102
:102FE000281B390BDD2009F4C6C02A3A310508F048
:102FF0009CC0CC2059F39091E104C1808091E604FB
:10300000803108F058C0C91214C09091E0049E119C
:1030100010C0F1104AC08F7080618093E60480EE8A
:1030200094E00E94D7128091E604F8018683F12C87
:1030300021C0F1103AC040E06C2D8E2D0E942F0C63
:1030400040E06C2D8E2D0E942F0CF82E8111EFCFB9
:10305000888599850E947009292F22952F709034B8
:1030600070F49F702230A0F09923B1F0F80196819E
:10307000903190F48F2D2D96EDE00C9479242A5FF9
:103080002F70223068F0C8010E94D712FD2CF2CFB9
:10309000992311F0882371F3805E883058F3F3CFC1
:1030A000803F40F3815F8230F9CF8091E6048160F8
:1030B0008093E604BCCFC91213C09091E0049E1126
:1030C0000FC0F1100DC08683C8010E94D71287E09F
:1030D000F801A0EEB4E001900D928A95E1F776CF69
:1030E000C8010E947F09882309F462C0FF2009F407
:1030F0005FC08091E604803278F02091E004309146
:10310000E1043A832983BC82AB827D821E828F8355
:10311000CE0101960E94D71287E0F801A0EEB4E03C
:1031200001900D928A95E1F74FCF8091E6048031AE
:1031300050F480EE94E00E94D71287E0F4011192DF
:103140008A95E9F774CFCC2009F440CF2091E104AF
:1031500091812913C5CF9091E0049E11C1CFF11048
:10316000BFCF8683C8010E94D71287E0F401119275
:103170008A95E9F72BCF2A3A3105F8F6CC2009F4E5
:1031800025CFFF20A9F09091E1048181981306C01A
:103190008091E0048E1102C087E09BCFC8010E949D
:1031A0007F098111B9CF8091E60481608093E604A4
:1031B000C8010E94D7120ACFABE1B0E0E2EEF8E11D
:1031C0000C9467244E8B5F8B688F798F8A8F9B8FCF
:1031D00091111092A5041D8A86E0FE017696DE010B
:1031E0001F9601900D928A95E1F78B89882329F02B
:1031F00061E0CE010F960E94500987E0FE013F96E4
:10320000DE01189601900D928A95E1F7CE0108969D
:103210000E94AC1781112BC087E0FE013896DE01B9
:10322000119601900D928A95E1F72091A6044091A4
:10323000A7048C858823D9F030E0C90101968770F6
:10324000992750E084179507E9F097E0929FD00105
:10325000939FB00D1124A855BB4FFE0131960190EC
:103260000D929A95E1F78093A6040E94E00617E07C
:103270008091A7049091A604891312C06B96E3E095
:103280000C9483240E94300D1092A6041092A7047F
:1032900087E0E0EEF4E0DF011D928A95E9F7E7CFE1
:1032A000189FC001112488559B4F0E94AC1788239A
:1032B00029F38091A70490E0019687709927809365
:1032C000A704D6CFA6E0B0E0E8E6F9E10C946624C6
:1032D0000E945B128C0180913A0490913B0480170C
:1032E000910779F019821A820E945B12BC01498110
:1032F0005A8180E090E00E94DC1810933B04009318
:103300003A042696E4E00C948224A3E1B0E0EBE8D2
:10331000F9E10C945D241A821982FE01339688E04B
:10332000DF011D928A95E9F782E7A82E81E0B82E89
:103330008E010F5F1F4F4801EE24E394F12C2DE71F
:10334000C22E21E0D22EF50181915F018F3F09F459
:1033500041C0F894E82FE295EF70F0E021A18F7062
:10336000A70102C0440F551F8A95E2F7CA01922FA8
:10337000982B91A392A18095892382A3789400C071
:10338000E7E7F1E031E0712C21912F3F09F48AC089
:10339000A22FA295AF70A05EB0E08C9190E02F704C
:1033A00002C0959587952A95E2F7817081117AC0C0
:1033B000832F782A330FCE16DF0631F7F5013197C8
:1033C00080818F3F11F00E94A70950EA5A95F1F7CA
:1033D000D8017C920F5F1F4FB7E7AB16B1E0BB0679
:1033E00009F0B1CF4AE050E0B4018EEB91E00E94C9
:1033F00021250091C90110E000531E4F892B09F4CB
:1034000053C08AE0F401AEEBB1E001900D928A95D1
:10341000E1F781E080939B010E945B1290939A01F7
:103420008093990180913404882309F495C01C8607
:103430001B86FE013D9683E0DF011D928A95E9F728
:103440008091A4018A3008F051C07E01BBE0EB0EF0
:10345000F11C46E950E1B701C8010E94A30C6701C5
:10346000882309F467C04AE450E1B701C8010E940B
:10347000A30C882309F45EC01092A4018091C801B6
:1034800090E045E050E0B60180539E4F0E94212518
:1034900021E020939801892B09F03FC06396EDE06D
:1034A0000C94792480E085CF80919B01882309F4D6
:1034B000B9CF8091990190919A010E946712059766
:1034C00008F4B0CF45E050E06EEB71E0C8010E9417
:1034D0002125892B41F085E0EEEBF1E0D801019048
:1034E0000D928A95E1F710929B019CCF80919601F5
:1034F000909197010E946712843F914008F0A5CFF8
:1035000080919801882351F2FE013B9685E0DF010E
:103510001D928A95E9F710929801A091C801B0E038
:10352000A053BE4F85E0FE013B9601900D928A9517
:10353000E1F7B4CF8091A4018F3F39F40E945B1270
:103540009093970180939601DBCF8F5F8093A401C6
:103550008A3008F493CFF2CF85E0F801A2E2B4E01C
:1035600001900D928A95E1F782E294E00E947A0B35
:1035700080932104C0902704D0902804E09029046F
:10358000F0902A048091920190919301A09194016E
:10359000B0919501C816D906EA06FB0609F47ECF5C
:1035A000C0929201D0929301E0929401F092950121
:1035B0000E943C0AC61AD70AE80AF90AC0923604E1
:1035C000D0923704E0923804F092390467CFCDB737
:1035D000DEB760970FB6F894DEBF0FBECDBF85B7DC
:1035E000806885BF85B7806885BF84B7877F84BFC3
:1035F0000FB6F894A8958091600088618093600070
:10360000109260000FBE80E890E00FB6F8948093AF
:103610006100909361000FBE85EA99E09093890163
:10362000809388010E945B0B0E94D50B8091E20081
:1036300084608093E20078948091CF01882399F090
:103640008091E9001091EC001795112717958F7064
:10365000182B1092E9008091E80083FD0E94540D20
:103660001F701093E90082E084BD93E095BD9AEF4E
:1036700097BD80936E00109236041092370410921A
:103680003804109239048091D80080618093D8006A
:103690002AE12A95F1F700C08091D90080FF99C1F5
:1036A00081E08093340480933504809301010E946B
:1036B000E122809101018091010190E0811101C01E
:1036C00095E09093C90185E0891B8093C80102E7CA
:1036D00011E0F7E7EF2EF1E0FF2ED8018D918D017B
:1036E0008F3F11F00E94A709E016F106B1F707E736
:1036F00011E0EDE7EE2EE1E0FE2EF80181918F0161
:103700008F3F11F00E94A709E016F106B1F78AE099
:10371000E0EDF1E0DF01282F1D922A95E9F7EEEBAD
:10372000F1E0DF011D928A95E9F780E090E00E94C8
:103730003F25853E9E4F09F461C065EE7EEF80E037
:1037400090E00E94732560E082E090E00E945525A1
:1037500081E090E090939F0480939E0461E083E079
:1037600090E00E94552560E074E184E090E00E94C2
:10377000732560E086E090E00E94552560E087E0D8
:1037800090E00E94552540E050E0BA0188E090E0CA
:103790000E94672560E083E290E00E94552560E08A
:1037A0008CE090E00E94552560E08DE090E00E9462
:1037B000552519821A821B821C821D821E821F823D
:1037C000188648E050E067E170E0CE0101960E9463
:1037D000452540E050E0BA018FE190E00E94672566
:1037E00040E050E0BA018FE090E00E94672540E0A1
:1037F00050E0BA0183E190E00E94672582E090E00A
:103800000E9437258093DA0184E090E00E943F25F2
:103810009093A4048093A30483E090E00E94372552
:1038200090E00E94430680913404882309F4DCC0B0
:1038300083E08093100480E28093CC010E94652194
:103840006BE070E085EA96E00E942111882309F47C
:1038500043C08091100465E070E081FDC7C080EA3C
:1038600096E00E9421118823B9F16DE070E08EE8A6
:1038700096E00E942111882379F10E943C0A698711
:103880007A878B879C87DC01CB01805A9541AF4FAB
:10389000BF4F8093140490931504A0931604B09323
:1038A0001704E0E1F2E080E092E0DF019C011D926C
:1038B00021503040E1F7F093CB01E093CA018FEF44
:1038C0009FEF909313048093120481E080931B0474
:1038D000809318041092110480913404811102C065
:1038E0000E94E42282E091E090933D0480933C04A6
:1038F000662463948091CF01853049F48091CF0193
:10390000853009F476C00E94300D0E94020A0E94A0
:1039100085190BED11E070EDE72E71E0F72ED70160
:10392000F80191918D9125EE31E02E173F0709F4B2
:10393000B4C09817B1F380903404D12CD701CD9046
:103940007D01F80191908F019C1439F19C24B12CD8
:10395000AA24A394892D8A218823B9F08820A9F06C
:10396000B982DA820E945B129C838B836D8291E024
:103970008C2D8A21811101C090E09E8349815A815A
:103980006B817C818D810E94DC18B394AA0CF6E0D7
:10399000BF12E0CFF8013197C082D3942AE0D2124F
:1039A000CDCF0E94590A7090340480911B0471108D
:1039B0007EC08111A6C10E9440110E94020A90910E
:1039C0001C04891709F496CF80931C040E943C0ABA
:1039D0008FCF0E945B0B1092CF0110923404109293
:1039E00035041092010165CE81E023CF8BE996E08A
:1039F00038CF8091CF01843031F10E942E11109286
:103A0000CD0148E150E080E40FB6F894A8954093CA
:103A100060000FBE8093600083B7817F846083BFA6
:103A200083B7816083BF7894889583B78E7F83BF87
:103A30000FB6F894A895809160008861809360002B
:103A4000109260000FBE8091CE01882309F456CFFA
:103A50000E948519E0EDF1E08AED91E021912111BC
:103A600004C08E179F07D1F749CF80E189BD82E15D
:103A700089BD09B400FEFDCF8091D8008F7D809371
:103A8000D8008091E00082608093E0008091E000A7
:103A900081FDFCCF0E94300D31CF98134CCF0E9496
:103AA000621970903404772009F418C1712C809049
:103AB000660490906704092C000CAA08BB081091BA
:103AC0000C01E12EF12CE6E6F4E081E090E0329684
:103AD000E816F9060CF009C18091EB019091EC0118
:103AE000A091ED01B091EE01BC01CD010E948C0AC4
:103AF0001B012C019401A501B7FE04C020E030E0B9
:103B000040E050E0A0E6BAEE0E94F62469877A878A
:103B10008B879C8788EC8E9D90018F9D300D1124A2
:103B2000032E000C440B550B220D331D441D551D57
:103B3000A5E0B0E00E94F6246D877E878F87988B82
:103B400069857A858B859C852D853E854F8558892D
:103B50000E94AF2469017A01213F310541055105D9
:103B600010F060EFC62EA9EC2A163104410451046E
:103B70000CF18091980490E0019669E170E00E9458
:103B80009B2480939804880F991FFC01EA59FB4FEE
:103B900011821082183108F017E11F5F10930C0199
:103BA0000E943C0A6093EB017093EC018093ED015D
:103BB0009093EE01B2E08B169104A104B1040CF4D1
:103BC000C12C2091E7013091E8014091E901509129
:103BD000EA01CA01B9010E948C0A4B015C0135E679
:103BE00083169104A104B10484F00E943C0A6093FE
:103BF000E7017093E8018093E9019093EA018091D5
:103C0000EF018093E601C092E5011091E601A091D9
:103C1000E501A11BBB0BA50194010E940125698749
:103C20007A878B879C8724E630E040E050E00E9452
:103C3000D124120F1093EF0110911B04112309F4EA
:103C4000D7C08091190490911A040E946712C297FC
:103C500008F491C00E945B1290931A048093190497
:103C600080E00E94930B112309F4CCC080E00E94F5
:103C7000930B60E870E080EB96E00E94C00985E05D
:103C80000E94930B80919E0490919F040E941F06B6
:103C90008130D1F18230D9F181113CC08CE291E0C8
:103CA0000E941C1287E00E94930B84E491E00E9422
:103CB0001C1288E00E94930B8091A0049091A104B3
:103CC0000E941F06843009F497C038F5882351F10B
:103CD000833009F494C082E691E026C080911B04F1
:103CE000882309F46ACE10E0ACCF40815181052EC3
:103CF000000C660B770B840E951EA61EB71E019650
:103D0000E6CE10E0782E9DCF82E391E0C9CF88E324
:103D100091E0C6CF8EE391E0C3CF8530E1F68CE52C
:103D200091E002C08AE491E00E941C121091EF0120
:103D30008AE00E94930B1C822AE0812F622F0E944E
:103D40008F24905D9B830E948F24905D9A83805D79
:103D50008983CE0101960E941C128BE00E94930B76
:103D600088E691E00E941C128DE00E94930B8CE685
:103D700091E00E941C128091120490911304892BEF
:103D8000A1F080911B04882381F08091110481119E
:103D90000CC00E944011209112043091130480E065
:103DA00061E070E021153105A9F5809118048823A0
:103DB000F9F00E943C0A69877A878B879C878091FB
:103DC000140490911504A0911604B091170429854C
:103DD0003A854B855C85281B390B4A0B5B0BDA0156
:103DE000C9018F3F9F4FAF4FBF4710F40E942E1164
:103DF000772009F4E2CDDFCD80E591E095CF86E52F
:103E000091E092CF60E072E080E397E00E94C00909
:103E1000B2CF8F5F082F10E04B01082E02C0880C34
:103E2000991C0A94E2F7A40142235323452B89F3FA
:103E30009091100490FD43C09801369527953695D2
:103E40002795922F8295880F80763FE1380F8093D7
:103E50000F0120931201309310019093130124E677
:103E600030E047E050E06DE071E088E70E949B2180
:103E7000892B09F09ACFA80125E0440F551F2A95F8
:103E8000E1F78091100480FD22C0405F5D4F04E6A1
:103E900010E020E230E060E488E70E943322892BC2
:103EA00009F083CF80949094809112049091130430
:103EB00088219921909313048093120476CF880F60
:103EC000880F880F37E0380F20E093E0C0CFE0EF95
:103ED000F1E080E2DF011D928A95E9F7E1E8F1E087
:103EE000FE87ED876DE771E085E8282E81E0382EAA
:103EF00097E0E92EDD24D394ED85FE85A191FE8720
:103F0000ED87FB018191BF01840F952F911D9C01CD
:103F1000205F3D4F2901EA2FF0E0E051FE4F80E0A5
:103F200090E03E2D381B3987FD2C082E01C0FF0C78
:103F30000A94EAF7520100E0D5011D915D011F21AD
:103F40002985201B277030E0B12F022E01C0BB0F46
:103F50000A94EAF73195219531092770332701C07A
:103F600016952A95EAF71B2B2081212B20830F5FC2
:103F7000083011F7019631968830910591F6ED855C
:103F8000FE852E163F0609F0B7CF04E610E020E2CA
:103F900030E040EF51E07FCF78941F921FB61F9220
:103FA00011248F939F93AF93BF938091BA01909107
:103FB000BB01A091BC01B091BD010196A11DB11D35
:103FC0008093BA019093BB01A093BC01B093BD0153
:103FD000BF91AF919F918F911F901FBE1F90189519
:103FE0001F920F920FB60F9211242F933F934F936E
:103FF0005F936F937F938F939F93AF93BF93EF9351
:10400000FF938091E10082FF09C08091E20082FF6E
:1040100005C08091E1008B7F8093E1008091DA0000
:1040200080FF24C08091D80080FF20C08091DA00FA
:104030008E7F8093DA008091D90080FF9AC080E162
:1040400089BD82E189BD09B400FEFDCF81E0809386
:10405000CF018091A801811109C00E945B0B0E94D1
:10406000D50B8091E20084608093E2008091E100B2
:1040700080FF17C08091E20080FF13C08091E200B2
:104080008E7F8093E2008091E20080618093E20065
:104090008091D80080628093D80019BC85E080931D
:1040A000CF018091E10084FF29C08091E20084FF6C
:1040B00025C080E189BD82E189BD09B400FEFDCF44
:1040C0008091D8008F7D8093D8008091E1008F7E11
:1040D0008093E1008091E2008F7E8093E2008091E6
:1040E000E20081608093E2008091A701882309F4B7
:1040F00046C084E08093CF018091CF018091E100A0
:1041000083FF26C08091E20083FF22C08091E100FE
:10411000877F8093E10082E08093CF011092A70116
:104120008091E1008E7F8093E1008091E2008E7F9C
:104130008093E2008091E20080618093E20060E081
:1041400080E00E94A50B8091F00088608093F000D1
:10415000FF91EF91BF91AF919F918F917F916F915F
:104160005F914F913F912F910F900FBE0F901F9035
:10417000189519BC1092CF011092A80177CF8091A9
:10418000E30087FF02C083E0B5CF81E0B3CF1F9289
:104190000F920FB60F921124FF920F931F932F933C
:1041A0003F934F935F936F937F938F939F93AF93BF
:1041B000BF93CF93DF93EF93FF9309EE10E0F801E5
:1041C0008081C091EC00C795CC27C7958F70FC2EDD
:1041D000F82A1082C0EFD0E08881877F88837894A6
:1041E0000E94540DF8011082888188608883CF2D49
:1041F000CF70C083FF91EF91DF91CF91BF91AF91CD
:104200009F918F917F916F915F914F913F912F91EE
:104210001F910F91FF900F900FBE0F901F90189558
:10422000FF920F931F93CF93DF93182FEB01109200
:10423000BC0084EA8093BC000E945B12082FF92E18
:104240008091BC0087FF28C08091B900887F8830AA
:1042500029F08091B900887F8031A1F51093BB00CF
:1042600084E88093BC000E945B12182F092F809174
:10427000BC0087FF1FC02091B900287F80E090E03C
:10428000283199F081E090E0203411F480E090E052
:1042900091958195910909C0802F9F2D0E946712E9
:1042A000C817D90768F68EEF9FEFCDB7DEB7E5E008
:1042B0000C948124812F902F0E946712C817D90770
:1042C000B0F6F1CF8FEF9FEFF0CF1092B9008CE0F6
:1042D0008093B80008950F931F93CF93DF93EB0162
:1042E0008093BB0084E88093BC000E945B12182F6F
:1042F000092F8091BC0087FF11C02091B900287F51
:1043000081E090E0283211F480E090E09195819571
:104310009109DF91CF911F910F910895CF3FDC0755
:1043200041F3812F902F0E946712C817D90708F711
:104330008EEF9FEFEECFA0E0B0E0E1EAF1E20C9467
:104340005D24782E5B016A0189010E945B124C0199
:104350000431110560F10F3F100769F1C80164E1F4
:1043600070E00E944424F62EE72E6F2D7E2D872DBF
:104370000E941021EC0197FF09C00F3F1007A9F31D
:10438000C4010E9467120817190778F77501CA0C53
:10439000DB1CEC14FD0411F0D7FF10C084E98093FE
:1043A000BC00CE01CDB7DEB7EDE00C947924FF243C
:1043B000F394E12CDACF85E0F82EFBCFB801F701BA
:1043C00081917F010E946B21EC01E3CFA0E0B0E07E
:1043D000ECEEF1E20C945D24782E5B016A01890118
:1043E0000E945B124C010431110560F10F3F100770
:1043F00069F1C80164E170E00E944424F62EE72EC2
:104400006F2D7E2D872D0E941021EC0197FF09C092
:104410000F3F1007A9F3C4010E946712081719077C
:1044200078F77501CA0CDB1CEC14FD0411F0D7FF02
:1044300010C084E98093BC00CE01CDB7DEB7EDE0BB
:104440000C947924FF24F394E12CDACF85E0F82E44
:10445000FBCFF7018491B8010E946B21EC01FFEFC3
:10446000EF1AFF0AE1CFA0E0B0E0E9E3F2E20C943A
:104470005C24682E962E5A01690178010E945B1215
:10448000782E892E0431110530F10F3F100731F1DC
:10449000C80164E170E00E944424162F072F612FA9
:1044A000702F862D0E941021EC0197FF19C0FFEF9D
:1044B000EF16FF06A1F3872D982D0E946712E816CC
:1044C000F90668F784E98093BC00CE01CDB7DEB76A
:1044D000EEE00C94782411E000E0E1CF15E0FCCF91
:1044E000B701892D0E946B21EC018501CA0CDB1CF0
:1044F0000C151D0539F3D7FDE5CFB701F801819102
:104500008F010E946B21EC01F3CF8EE14A9B03C027
:1045100081508111FBCF4A9BFECF08955A9880E2CB
:104520008A95F1F75A9A0895FC013BE03A95F1F724
:1045300098E020E080E031E040E14A95F1F7880F13
:104540004A9B02C08160232742E04A95F1F70000B0
:1045500040E14A95F1F791509111EECF90E19A9593
:10456000F1F799B132E03A95F1F7000040E14A9550
:10457000F1F792FB992790F992272081920F90836F
:104580000895A1E0B0E0E7ECF2E20C946424198213
:104590008C017C01E60EF11C0E151F0541F481E033
:1045A0009981911180E02196E6E00C9480240E948C
:1045B0008522CE0101960E949422F80181938F01F9
:1045C000EBCF529A5A9A089552985A9AEA9AE9E683
:1045D000F0E080818F7C808308956150770B91E0BB
:1045E00001C0990F6A95EAF7692F90E021E0611107
:1045F00008C0992399F05A9A80E28A95F1F75A985F
:104600000895362F3823332339F05A9A922730E20F
:104610003A95F1F76695EBCF5A98F9CF5A98ECCFC7
:10462000FF920F931F93CF93DF93EC018C01060F42
:10463000111DC017D10729F4CDB7DEB7E5E00C9402
:104640008124F9900E948E2268E08F2D0E94ED2235
:10465000F0CF1F920F920FB60F9211240F931F935A
:104660002F933F934F935F936F937F938F939F937A
:10467000AF93BF93EF93FF93CF93DF930F92CDB799
:10468000DEB719820E948522CE0101960E949422F3
:10469000082F069506950695982F92959570202FD0
:1046A0002570920F292F237096959695920F982733
:1046B00097708981892B81115CC0043008F059C042
:1046C00080E18A95F1F75A9A529A82E08A95F1F739
:1046D00000C05A9888E0089F80011124D801AC5E80
:1046E000BE4F1696ED91FC9117973097A9F0609107
:1046F00085017091860114962D913C911597260F96
:10470000371F11968D919C911297680F791F139600
:104710004C9113978C910995F801EC5EFE4F6381E3
:10472000662351F020918501309186018481958125
:10473000820F931F0E9410230E948E2280E18A958F
:10474000F1F75A9852985A9A80E18A95F1F7F80150
:10475000EC5EFE4F6081662351F02091850130911F
:10476000860181819281820F931F0E94C1220E9443
:1047700085220F90DF91CF91FF91EF91BF91AF9183
:104780009F918F917F916F915F914F913F912F9169
:104790001F910F910F900FBE0F901F9018950F93C0
:1047A0001F93CF93DF938C0104970CF065C0F894AE
:1047B000529A5A9885E08A95F1F70000C02FC69565
:1047C000C570802F8570C80F8C2F8370C695C695D5
:1047D00093E0000F111F9A95E1F7C80FC8018C2BC9
:1047E000EC010E948E2200C068E08C2F0E94ED2216
:1047F00090E19A95F1F752985A9A4A9B35C087E012
:1048000090E04A9933C0F801EC5EFE4F6381662365
:1048100061F0209185013091860184819581820F1C
:10482000931F0E94C122882321F10E94852280E2E9
:104830008A95F1F75A98529A90E19A95F1F7F80112
:10484000EC5EFE4F6081662351F02091850130912E
:10485000860181819281820F931F0E9410230E9402
:104860008E22789481E009C000C0C7CF01970097DD
:1048700049F4529A5A9A789480E0DF91CF911F912F
:104880000F91089500C0BDCFAA1BBB1B51E107C00B
:10489000AA1FBB1FA617B70710F0A61BB70B881FD0
:1048A000991F5A95A9F780959095BC01CD0108955F
:1048B0002F923F924F925F926F927F928F929F9230
:1048C000AF92BF92CF92DF92EF92FF920F931F931E
:1048D000CF93DF93CDB7DEB7CA1BDB0B0FB6F894CF
:1048E000DEBF0FBECDBF09942A88398848885F840F
:1048F0006E847D848C849B84AA84B984C884DF8080
:10490000EE80FD800C811B81AA81B981CE0FD11D63
:104910000FB6F894DEBF0FBECDBFED010895991B11
:1049200079E004C0991F961708F0961B881F7A95A6
:10493000C9F78095089597FB072E16F4009407D0C9
:1049400077FD09D00E94442407FC05D03EF49095E1
:1049500081959F4F0895709561957F4F0895A1E2CD
:104960001A2EAA1BBB1BFD010DC0AA1FBB1FEE1FE9
:10497000FF1FA217B307E407F50720F0A21BB30B34
:10498000E40BF50B661F771F881F991F1A9469F7B0
:1049900060957095809590959B01AC01BD01CF010C
:1049A0000895052E97FB1EF400940E94E82457FDFD
:1049B00007D00E94AF2407FC03D04EF40C94E824E7
:1049C00050954095309521953F4F4F4F5F4F08953B
:1049D00090958095709561957F4F8F4F9F4F08956B
:1049E000EE0FFF1F0590F491E02D09940E94092518
:1049F000A59F900DB49F900DA49F800D911D112433
:104A00000895B7FF0C94F6240E94F624821B930BA2
:104A10000895A29FB001B39FC001A39F700D811D97
:104A20001124911DB29F700D811D1124911D0895B7
:104A3000FB01DC0102C005900D9241505040D8F7B7
:104A40000895FB01DC0104C08D910190801921F4CF
:104A500041505040C8F7881B990B0895FB01DC01B9
:104A600002C001900D9241505040D8F70895F99935
:104A7000FECF92BD81BDF89A992780B50895A8E12F
:104A8000B0E042E050E00C947B25DC01A40FB51FA0
:104A90004150504048F0CB01840F951F2E910E9449
:104AA000562541505040D0F70895262FF999FECF52
:104AB00092BD81BDF89A019700B4021639F01FBA71
:104AC00020BD0FB6F894FA9AF99A0FBE089503968E
:104AD000272F0E9456250E945525252F0E945625D6
:104AE000242F0C9456250196272F0E9456250C94AE
:104AF0005525DC01CB01FC01F999FECF06C0F2BDC2
:104B0000E1BDF89A319600B40D9241505040B8F78B
:104B10000895F894FFCF310E570E5D0E570E5D0EBF
:104B2000B00ED20E5D0EBC0FC90F14147F141C14EE
:104B3000E613EA132014EE1324143014FA13781435
:104B4000FE13341402143814601406143C14671451
:104B50000C1442144A14F2132814F6132C141014D3
:104B60004614561470147614E01318148614BD13EA
:0C4B7000C113B313B913C513C913CD133F
:104B7C000101AC0A910CAF0AB00AB10A0100210084
:104B8C007F2200030000000100000000000000056F
:104B9C0001000000040600000000000051575254B0
:104BAC005900434F4C4D4B0047414D455300554E1A
:104BBC00444546004C415945520042617365200002
:104BCC005261697365004C6F7765720041646A20AD
:104BDC002000556E6465660077706D002D2D2D2DAF
:104BEC002D006697C63435F6F7313332360008108F
:084BFC00181810080021040044
:00000001FF
