:100000000C94C4050C94E1050C94E1050C94572262
:100010000C94E1050C94E1050C94E1050C94E105C8
:100020000C94E1050C94E1050C9402120C94BE11A1
:100030000C946F1B0C94E1050C94E1050C94E10504
:100040000C94E1050C94E1050C94E1050C94E10598
:100050000C94E1050C94DA120C94E1050C94E10582
:100060000C94E1050C94E1050C94E1050C94E10578
:100070000C94E1050C94E1050C94E1050C94E10568
:100080000C94E1050C94E1050C94E1050C94E10558
:100090000C94E1050C94E1050C94E1050C94E10548
:1000A0000C94E1050C94E1050C94E10529001E0077
:1000B0001F002000210022002B0014001A0008005D
:1000C00015001700E10004001600070009000A00EF
:1000D000E0001D001B000600190005000000E30001
:1000E0002252E2002C002F003500270026002500B8
:1000F000240023002D00130012000C0018001C0027
:10010000340033000F000E000D000B00E500380036
:1001100037003600100011000000E70023522A00CB
:100120002800300029001E001F00200021002200AE
:100130002B0014001A00090013000A00E10004005B
:100140001500160017000700E0001D001B00060048
:10015000190005000000E3002252E2002C002F00ED
:100160003500270026002500240023002D00330041
:100170001C0018000F000D00340012000C000800D5
:1001800011000B00E50038003700360010000E00AB
:100190000000E70023522A0028003000010001007F
:1001A00001000100010001003A003B003C003D005D
:1001B0003E003F0035001E021F02200221022202E3
:1001C0000100010001000100010001000000010028
:1001D0000100010001000100010001000100010017
:1001E000010001004500440043004200410040007E
:1001F00035022702260225022402230231023002A0
:100200002F022E022D02000000000100010001005B
:1002100001000100010001000100010001000100D6
:1002200035001E001F002000210022003A003B0084
:100230003C003D003E003F004000410042004300C2
:100240004400450000000100010001000100010020
:100250000100010001000100010001000100270070
:100260002600250024002300000000004F0052005B
:1002700051005000310030002F002E002D002E02C2
:100280000000010001000100010001000000000069
:10029000000000000000000000000000000000005E
:1002A000000000000000000000000000407E000090
:1002B000000000000000000000000000000001003D
:1002C000010001000100000000000000000000002B
:1002D000000000000000000000000000000000001E
:1002E0000000000000000000417E0000000000004F
:1002F00000000000000000000000010001000100FB
:100300000100000000DA0281FFD9F1DB20A4A62E53
:10031000AF00A0C0D30000A1C8D30000AED580A814
:100320001F408D14200000000080C0E07038180CC1
:100330000CCEE6F6F6FEFEF6F6E68E0C1C183870CD
:10034000E0C08000000000F8FEE7F9F8FCFCFCFCCF
:10035000F8FBE70F1FFFFF1F0FF7F9FCFCFCFCFC8D
:10036000F8F34FFEF800001F7FF0C30707070707E9
:10037000070F1C3870FFFF783C1F0F0707070707A0
:1003800007C3F07F1F000000000103070E1C183098
:1003900030706060607F7F606060703038181C0E65
:1003A00007030100000000000000000000C0E0F0B2
:1003B000F87C3E1F1F1F1C1E1F1F1F9FDF9F00007A
:1003C00000000000000000000000000000C33FFF2C
:1003D000FFF8E0C0C0C0C0C0E0F8FFFF3F870000EA
:1003E000000000000000000000000000001F7FFE71
:1003F000F9F1C38303030383C3F1F9FC3F0F00004A
:100400000000000000000000000000000078787884
:100410007B7F7F7F7E7C3E1F7F7F7B000000000014
:1004200000000000000000000000000000C0E0F03C
:10043000F87C3E1F1F1F1C1E1F1F1F9FDF9F0000F9
:1004400000000000000000000000000000033FFF6B
:10045000FFF8E0C0C0C0C0C0E0F8FFFF3F070000E9
:10046000000000000000000000000000000080E02C
:10047000E1010303070787C3F3F9F9F8F8F800006F
:10048000000000000000000000000000003F3F3FAF
:100490003FC0E0F8FCFE3F1F0707FFFFFFFF000023
:1004A000000000000000000000000000000000004C
:1004B000001F8FC3C1C0009EDEDEDFDFCFC700009C
:1004C00000000000000000000000000000F0F8FC48
:1004D000FE1F0F07070707070707C7E7F7E7000033
:1004E00000000000000000000000000000000F3FBE
:1004F0007F7EF8F0F0F0F0F0F87E7F3F0F01000013
:1005000000000000000000000000000000E0F8F81B
:10051000FCFC3C3C0101010000000080E0F0000018
:1005200000000000000000000000000000FFFFFFCE
:10053000FFFF00000080C0F0F8FE7F1F0F030000E7
:10054000000000000000000000000000000F0F0F7E
:100550000F8FCFEFEFEF87C3EFEFEFE0E0E00000AA
:100560000000000000000000000000000078FCFE19
:10057000FF0F0703030303030303E3F3FBF300008D
:100580000000000000000000000000000000071F45
:100590003F3F7C78F8F8F8787C3F3F1F0700000069
:1005A00000000000000000AF00AE05010906A10137
:1005B000050719E029E71500250195087501810255
:1005C0009501750881010507190029FF150026FF0F
:1005D00000950675088100050819012905150025F3
:1005E00001950575019102950175039101C00902FC
:1005F0002200010100A0FA0904000001030101002A
:1006000009211101000122440007058103080001AE
:100610001201000200000008D8042DEB00010102C5
:1006200000010E034C0069006C00790035003800B1
:10063000000010036C0069006C00690075006D001B
:1006400073000000040309040000000000003E5B8A
:100650004F5B3E003E6B4F6B3E001C3E7C3E1C00E1
:10066000183C7E3C18001C577D571C001C5E7F5EAA
:100670001C0000183C180000FFE7C3E7FF0000184B
:1006800024180000FFE7DBE7FF0030483A060E00C1
:10069000262979292600407F05050700407F05258A
:1006A0003F005A3CE73C5A007F3E1C1C0800081CD7
:1006B0001C3E7F0014227F2214005F5F005F5F00FA
:1006C00006097F017F00006689956A0060606060AE
:1006D000600094A2FFA2940008047E040800102089
:1006E0007E20100008082A1C0800081C2A080800A0
:1006F0001E10101010000C1E0C1E0C0030383E385E
:100700003000060E3E0E0600000000000000000053
:100710005F000000000700070000147F147F140032
:10072000242A7F2A120023130864620036495620C7
:100730005000000807030000001C22410000004197
:10074000221C00002A1C7F1C2A0008083E08080002
:100750000080703000000808080808000000606091
:1007600000002010080402003E5149453E000042AE
:100770007F4000007249494946002141494D3300FC
:100780001814127F10002745454539003C4A494955
:1007900031004121110907003649494936004649CF
:1007A00049291E0000001400000000403400000031
:1007B00000081422410014141414140000412214DF
:1007C00008000201590906003E415D594E007C12A5
:1007D00011127C007F49494936003E4141412200C7
:1007E0007F4141413E007F49494941007F09090954
:1007F00001003E41415173007F0808087F0000411D
:100800007F4100002040413F01007F081422410049
:100810007F40404040007F021C027F007F040810A0
:100820007F003E4141413E007F09090906003E41EB
:1008300051215E007F0919294600264949493200A5
:1008400003017F0103003F4040403F001F20402044
:100850001F003F4038403F00631408146300030446
:10086000780403006159494D4300007F4141410034
:10087000020408102000004141417F0004020102EF
:10088000040040404040400000030708000020549E
:10089000547840007F2844443800384444442800B9
:1008A000384444287F0038545454180000087E0906
:1008B00002001824241C78007F08040478000044F7
:1008C0007D4000002040403D00007F102844000093
:1008D00000417F4000007C04780478007C08040418
:1008E00078003844444438007C1824241800182424
:1008F00024187C007C080404080048545454240044
:1009000004043F4424003C4040207C001C20402044
:100910001C003C4030403C004428102844004C90CF
:1009200090907C004464544C440000083641000020
:1009300000007700000000413608000002010204B8
:1009400002003C2623263C0000000000008080803E
:1009500080000000000080E070180C1830E080007B
:100960000010F8901030783010B8FC3810000000FB
:10097000000000F8FCF8000000000000000000008B
:100980000000001C9C1C00000000F8FCF8000000A7
:100990000000001CFCF8C000000000000080E0F82F
:1009A0007C1C000000F0FCFCFC1C1C1C1C1C1C1C07
:1009B0001C000000000000C0F0F8381C1C1C1C1CAF
:1009C0001C3CF8F0E000E0F0F0F0E0ECEEF7F37043
:1009D00020007C7C7C7E007E7E7E7F7F7F0000808E
:1009E000C0E07E5B4F5BFEC00000C000DCD7DEDEF7
:1009F000DED7DC00C00000000000000000000000A6
:100A0000000000000000000000000000000FBCE03B
:100A1000818181838382870C183060C000001FFEB3
:100A200090B9FFBB91983C1811133F1100000000D2
:100A3000000000FFFFFF00000000000000000000B9
:100A4000000000FFFFFF00000000FFFFFF000000AC
:100A50000000000000030F7FF8E080F0FC3F0F0172
:100A600000000000003F3F3F1C1C1C1C1C3C78F891
:100A7000F0E08000000000C3E7FF7E3C387878702B
:100A800070F8FFDF87000F1F3F7F7F7F7F7F3F1E54
:100A90000C001F1F1F3F003F3F3F7F7F7F00307BC9
:100AA0007F7830202030787F3B0003000F7F0F0FCE
:100AB0000F7F0F0003000000000000000000000096
:100AC0000000000000000000183C24666341C18162
:100AD00080808080808081C14162386C4CC6818179
:100AE000808080808081C14362361C180000000035
:100AF000000000FFFFFFC0C0C0C0C0C0C0C0C080B9
:100B00000000007FFF7F000000007FFFFFC080002B
:100B10000000E0E0C0C0C0E0F97F1F070000000057
:100B2000000000000070F0E0E0C0C0C0C0E0F0F8DD
:100B30007F3F0F0000000F3F7FF9E0E0C0C0C0C062
:100B4000C0E0F97F3F1F000000000000000000002F
:100B50000000000000000000000000000000000095
:100B60000000000000000000000000000000000085
:100B70000000000000000000000000000000000075
:100B8000000000000000000011241FBECFEFDAE0DB
:100B9000DEBFCDBF11E0A0E0B1E0E2EFF9E402C0BA
:100BA00005900D92A238B107D9F724E0A2E8B1E090
:100BB00001C01D92A13EB207E1F70E94961B0C9462
:100BC000B8240C9400009091D602899FC001112492
:100BD000811522E0920714F090E080E087529D4F4B
:100BE0009093E0048093DF040895482F2091D2026F
:100BF0009091990257E0291302C080E0089530E0F7
:100C0000529FF001539FF00D1124E656FD4F818154
:100C1000681306C08081481303C085818111EECF1F
:100C20002F5F3F4F2770E7CFFC01AC014B5F5F4F59
:100C30008FEF91E32191822728E030E087FF09C000
:100C4000880F892721503109C9F7E417F50791F773
:100C50000895880FF7CF982F9093E900891779F0BE
:100C60005091EC002091ED004091F00021FD0AC070
:100C70009F5F973089F78093E90081E00895562FB0
:100C800040E022E03091EB003E7F3093EB0030916A
:100C9000ED003D7F3093ED003091EB0031603093FB
:100CA000EB005093EC002093ED004093F000209176
:100CB000EE0027FDDDCF80E00895E8EDF0E08081D3
:100CC0008E7F80831092E2001092DA001092E10091
:100CD000A0EEB0E08C9181608C9380818F778083CF
:100CE00019BCA7EDB0E08C918E7F8C9380818F7EB4
:100CF0008083109282020895B0E0A0E0E2E8F6E07E
:100D00000C949123C8EDD0E088818F7E8883E7ED35
:100D1000F0E080818160808384E082BF81E0809305
:100D2000820288818E7F888302EE10E0F8011082B3
:100D30001092DA0081EEC82ED12CF6011082888143
:100D40008F77888388818068888388818F7D888376
:100D500019BC1092980210928F0210928E0210927B
:100D60008D0290EEE92EF12CF70180818B7F80833C
:100D700088818160888360E080E00E942B06F60114
:100D800080818E7F8083F801808181608083808173
:100D900088608083F70180818E7F80838881806175
:100DA0008883CDB7DEB7E8E00C94AD232091E40052
:100DB0003091E50095E6A9012091EC00822F817029
:100DC00020FF06C08091E80080FF06C080E0089503
:100DD0002091E80022FD1AC080919802882389F0B2
:100DE000853089F08091EB0085FD0FC02091E400F3
:100DF0003091E50042175307F9F29150E1F684E093
:100E0000089582E0089583E0089581E00895809137
:100E1000900287FF13C08091E80082FF06C0809196
:100E2000E8008B778093E80004C0809198028111DC
:100E3000F2CF0895809198028823D9F38091E80039
:100E400080FFF8CF8091E8008E77ECCFFC01809195
:100E500096029091970286179707A0F06115710589
:100E600029F49091E8009E779093E80090E0611556
:100E7000710551F4911108C08091E80082FF34C0DF
:100E800080E00895BC01F2CF809198028823C1F1DF
:100E90008530C1F18091E80083FD30C08091E80089
:100EA00082FDEACF8091E80080FFE1CF8091F300DE
:100EB0002091F200382F6115710519F028303105A5
:100EC00058F091E02830310509F090E02091E800D9
:100ED0002E772093E800CBCF81918093F100615071
:100EE00071092F5F3F4FE7CF80919802882341F02F
:100EF000853041F08091E80083FFBECF81E0089506
:100F000082E0089583E008950895089508958091FA
:100F1000840208952FB7F89460917E0270917F0249
:100F200080918002909181022FBF08959C01FC0165
:100F300032969FEF80E04191461751F09F3F19F4A0
:100F4000411101C0982F8F5F8630A9F79F3F09F4A8
:100F50000895290F311D97FD3A95F901628308958F
:100F600080917902882359F0E0917B02F0917C0214
:100F7000309729F00190F081E02D0995089580E0E7
:100F80000895CF93DF932091DF043091E004295D31
:100F90003240A901460F571F4130524020F060E017
:100FA00072E0621B730B4091D7025091D802FC0192
:100FB000C901620F731FC1E0D0E08617970738F0B0
:100FC0005093D8024093D702DF91CF910895249196
:100FD000DC01A752BD4F3C91321781F02C939C014C
:100FE000A5E036952795AA95E1F7DE0102C0AA0F84
:100FF000BB1F2A95E2F79D014A2B532B0196319690
:10100000DCCF80E00895F894E82FE295EF70F0E0EF
:1010100031A1282F2F7081E090E001C0880F2A9520
:10102000EAF7982F9095932391A392A1892B82A3FD
:10103000789408950F931F9380917902882329F063
:101040000E948A071F910F9108950E948A070091BC
:10105000E5011091E6012091E7013091E801600F70
:10106000711F821F931FEECF9091F50192FF10C068
:1010700041E0282F2471243009F040E031E0282F8E
:101080002871283009F030E0431711F02CE0822756
:1010900093FF10C041E0282F2471243109F040E073
:1010A00031E0282F2871283109F030E0431711F082
:1010B0002CE082273091F60130FF10C051E0282F3C
:1010C0002171213009F050E041E0282F28712830AB
:1010D00009F040E0541711F029E0822731FF10C0D9
:1010E00041E0282F2171213109F040E031E0282F23
:1010F0002871283109F030E0431711F029E08227E8
:1011000094FD877E089582389105B9F1B0F481335A
:10111000910509F47DC048F48932910509F46DC048
:101120008A32910509F47BC008958533910509F44D
:101130005FC08933910509F10895833E9105D9F186
:1011400038F4803E910529F1823E910579F10895A8
:10115000863E9105D9F1873E910509F43EC0843E53
:10116000910541F52091F60121FF24C08091F50100
:1011700084FD19C087EE90E008952091F501237059
:1011800009F05AC02091F60123FF14C089E290E0D3
:1011900008952091F50120FD38C03091F60130FF0F
:1011A00009C024FF43C090E080E008952091F5013C
:1011B00022FDF7CF08952091F50122FD3AC030912C
:1011C000F60130FD39C024FFF5CFEDCF2091F501B8
:1011D00023FFF0CF24FDE7CFCDCF2091F50123FDF4
:1011E0002EC03091F60131FFEECF84EE90E00895ED
:1011F0002091F50125FFDECFC9CF2091F50125FD16
:1012000021C02091F60123FFD5CF89E390E0D2CF12
:101210002091F50126FFCECF8AE290E0089520913B
:10122000F50126FFC7CF81E390E0089583EE90E0BB
:10123000089582EE90E0089580EE90E0089586EEA5
:1012400090E0089585E390E00895972F7A30B8F400
:101250006630A8F48530B0F470E026E0929F600D0F
:10126000711D1124FB019CE3899FE00DF11D1124E8
:10127000EE0FFF1FE455FF4F85919491089580E094
:1012800090E0089581E0FCCF1F93CF93DF930E94FD
:101290008308EC01C11582E5D80708F03FC0C115ED
:1012A00090E5D90708F0C2C0C83ED105C0F4C03EE1
:1012B000D10580F4C53AD10548F4C430D10550F4C5
:1012C000C130D10539F0D0E0C0E004C0CD3CD1053B
:1012D000D0F3D065CE01DF91CF911F910895C11554
:1012E00080E4D80708F053C0C11590E2D90708F090
:1012F000B7C0C11581E0D80730F38D2F0E943408A4
:10130000182FCE0199270E948308C12FD0E0DC2F2F
:10131000CC27CC27DF71C82BD92BDCCFC03892E586
:10132000D907A8F4C03682E5D80708F063C0C034F6
:1013300092E5D90708F049C0C03282E5D80788F1A4
:10134000CF71D0E0DC2FCC27C16FD06AC3CFC03CB7
:1013500092E5D90780F48C2F8F71C03AD24508F4FA
:101360005EC00E943408C82FD0E0DC2FCC27CC27E9
:10137000DF71D062AFCFC03E82E5D80708F0A3CFBF
:10138000DC2FCC27CC27DF71C06FD06AA3CFCE0172
:1013900099270E948308CC27DF70C82BD92BD06AED
:1013A00099CF2C2F2695269590E2299F9001112404
:1013B0008C2F8370C1E0D0E002C0CC0FDD1F8A9576
:1013C000E2F7C22BD32BDD6885CF2C2F26952695EF
:1013D000277080E2289F900111248C2F8370C1E038
:1013E000D0E002C0CC0FDD1F8A95E2F7C22BD32BD1
:1013F000DC6870CF2C2F26952695277090E2299FC8
:10140000900111248C2F8370C1E0D0E002C0CC0F7A
:10141000DD1F8A95E2F7C22BD32BDA685BCFC82F8A
:10142000D0E0DC2FCC27C46FD06A54CF8C2F8F71C3
:101430000E94340855E0D695C7955A95E1F7CF70CC
:10144000D0E0DC2FCC27282F30E084FF05C044E01B
:10145000220F331F4A95E1F7C22BD32BD0693ACF25
:101460008D2F8F710E943408182FCE0199270E946A
:101470008308C12FD0E0DC2FCC27CC27DF71C82B0D
:10148000D92B77CF80959091C00198239093C0017C
:1014900008958091D20290919902981301C0089505
:1014A0008F5F8770FACFB0E0A0E0E9E5FAE00C9436
:1014B00090237C0100914A0210914B0280914C02D2
:1014C00090914D02082B192BCFE0D0E0CC24C3948F
:1014D000D12CBC2EC6010C2E02C0880F991F0A9475
:1014E000E2F780239123892B49F4219790F7B12CBF
:1014F0008B2DCDB7DEB7E9E00C94AC23B7018C2F70
:101500000E9425090E944409019779F3F1CFCF93F6
:10151000DF93EC010E94530ABE010E9425090E943C
:101520004409DF91CF9108959A3078F5863068F5B7
:10153000E82FF0E086E0989FE00DF11D11249E2F2A
:10154000977083E0F695E7958A95E1F7EE0FFF1F18
:10155000EE0FFF1FE257FE4F50E040E080E0219188
:1015600030E0092E02C0369527950A94E2F72170E3
:101570003327042E01C0220F0A94EAF7822B4F5F13
:101580005F4F4430510559F7089580E008959A302F
:1015900098F5863088F5E82FF0E086E0989FE00D1A
:1015A000F11D11248E2F877041E001C0440F8A95F0
:1015B000EAF783E0F695E7958A95E1F7EE0FFF1FCE
:1015C000EE0FFF1FE257FE4F30E020E070E0519138
:1015D000DF011197CB01022E02C0969587950A94E0
:1015E000E2F7817081958527842385278C932F5F6F
:1015F0003F4F2430310559F708959C012C70332753
:101600002C30310531F4806190934B0280934A0273
:1016100008958F7EF9CF21E030E002C0220F331F02
:101620008A95E2F72095309580914A0290914B027D
:10163000822393230E94FD0A08959091B50180951D
:1016400089238093B501282F277069F4891759F0F1
:101650009091F60192FF07C08695869586950E9427
:101660000B0B1092B501089521E030E002C0220F6B
:10167000331F8A95E2F780914A0290914B02822BA8
:10168000932B0E94FD0A089590934D0280934C0283
:101690000895FC0124812223C1F0808191810E9460
:1016A000870A92959F70963091F058F4925F9F70E0
:1016B000923058F4803F19F030F4883E30F481E0E5
:1016C00008959A5FF4CF843FD1F380E00895883E77
:1016D000B0F3813FD1F7F3CF292F332740E0211515
:1016E000310511F0C90148E09C0164E03695279569
:1016F0006A95E1F72115310511F04C5FC9019C0194
:1017000036952795369527952115310511F04E5FB1
:10171000C90196958795892B09F04F5F842F08950D
:10172000A6E0B0E0E6E9FBE00C94962349835A83F7
:1017300049815A819923A1F0222391F0CA010E9484
:10174000530A182F682F89819A810E94C70A6981DC
:101750007A81812F0E9425092696E3E00C94B2231A
:10176000CA010E94940A182FF2CFCF93DF93C09141
:10177000DF04D091E0048A30C1F42091D602CE017A
:10178000895D9240622F70E00E947323281B822F94
:1017900066E00E94BE23C82FC15018F4DF91CF919C
:1017A000089580E20E94B50BF7CF8D30E9F4C95D52
:1017B000D2402091D602622F70E0CE010E947323A6
:1017C000281B822F9E01280F311D2115324018F051
:1017D00080E0D0E0C0E0C80FD11DC752DD4FD093EC
:1017E000E004C093DF04DACF96E0FE01A9EDB4E097
:1017F00001900D929A95E1F7803E08F458C086E07A
:10180000FE0111928A95E9F7C091DF04D091E004BE
:1018100046E050E0BE0189ED94E00E9450249E0114
:10182000295D3240892B41F1C90145E096958795A4
:101830004A95E1F741E050E0BA0102C0660F771F18
:101840008A95E2F7CB016091D7027091D802862B7E
:10185000972BB9016B5F7F4FE5E076956795EA9529
:10186000E1F702C0440F551F6A95E2F7842B952BD0
:101870009093D8028093D7022A5F3F4F4091D602BF
:10188000642F70E0C9010E947323481B463010F496
:10189000240F311D211572E0370710F030E020E0F1
:1018A00027523D4F3093E0042093DF0477CFF6E0DA
:1018B0008F9FB0011124685B794F46E050E0CE0164
:1018C0000E944724A1CF2091C0018091B701282B0D
:1018D0008091B601882381F0282B30E086E891E0E2
:1018E000FC014191CF0141113F5FF1E08C389F072E
:1018F000B9F731111092B6012093840148E050E00D
:1019000068EB71E084E891E00E945024892BA9F0F3
:1019100088E0E4E8F1E0A8EBB1E001900D928A954F
:10192000E1F7E0917B02F0917C02309731F0028088
:10193000F381E02D84E891E0099508951092C001AB
:10194000E6E8F1E086E0DF011D928A95E9F7109262
:10195000B7010E94630C0895AAE2B0E0E2EBFCE05C
:101960000C94962380E992E02091F100FC012193F0
:10197000CF01F2E088399F07B9F780919102833057
:1019800009F470C0B8F4813009F447C0823009F41A
:10199000B1C08091E80083FF64C280919002909171
:1019A00091029A3008F05DC2E92FF0E0E654FB4D59
:1019B0000C941F248A3009F48CC08B3009F46FC05A
:1019C000893039F780919002813219F78091940221
:1019D00090919502892BE9F68091E800877F8093AA
:1019E000E8008091E80082FF38C09091F300809178
:1019F000F200029731F48091F100813011F08630CD
:101A000021F48091F100809384028091E8008B772B
:101A10008093E8000E940707BCCF80919002813A32
:101A200009F0B7CF8091E800877F8093E80080912C
:101A3000940290919502892B61F468E085E892E028
:101A400070E00E9426078091E8008B778093E80081
:101A5000A0CF60E090E080E0F3CF80919802811108
:101A6000C0CF97CF80919002813A09F092CF8091B8
:101A7000940290919502892B09F08BCF8091E80018
:101A8000877F8093E8008091E80080FFFCCF809101
:101A90002B018093F1008091E8008E77B9CF80917F
:101AA0009002813209F075CF809194029091950255
:101AB000892B09F06ECF8091E800877F8093E80042
:101AC0000E9407078091920280932B010E949E0C36
:101AD00060CF80919002813209F05BCF8091E80065
:101AE000877F8093E8000E9407078091930280938C
:101AF00083024FCF80919002813A09F04ACF8091C2
:101B0000E800877F8093E8008091E80080FFFCCFA9
:101B100080918302BECF803899F0823809F0A1C14C
:101B2000809194028F70873008F09BC18093E90008
:101B30008091EB0085FB882780F91092E90006C0B0
:101B400080918D0290918E02911182609091E800B7
:101B5000977F9093E8008093F1001092F1008091BC
:101B6000E8008E777AC1882309F468C1823009F0D1
:101B700078C18091920281116BC1809194028F7023
:101B80002FEF280F263008F06CC18093E9002091D8
:101B9000EB0020FF5DC1933031F48091EB00806257
:101BA0008093EB0055C19091EB0090619093EB0016
:101BB00021E030E001C0220F8A95EAF72093EA0085
:101BC0001092EA008091EB008860EACF811149C150
:101BD000109192021F778091E3008078812B80938F
:101BE000E3008091E800877F8093E8000E94070768
:101BF0008091E80080FFFCCF8091E30080688093B3
:101C0000E30082E0111183E0809398022AC180589A
:101C1000823008F026C180919202909193028C3D0F
:101C200023E09207A1F583E08A838AE289834FB794
:101C3000F894DE01139620E03EE051E2E32FF0E05D
:101C400050935700E49120FF03C0E295EF703F5F8F
:101C5000EF708E2F90E0EA30C0F0C7968D939D9381
:101C60002F5F243159F74FBF8091E800877F809321
:101C7000E8006AE270E0CE0101960E94260780919A
:101C8000E8008B778093E800ECC0C096E7CF4091E6
:101C9000940250919502292F33272330310509F4FE
:101CA0003FC078F52130310509F466C082E290E04A
:101CB000EEEEF5E02230310509F0D3C02091E800C6
:101CC000277F2093E8002091960230919702821797
:101CD000930708F49C0140E02115310509F051C03B
:101CE00041114FC08091E80082FDC9CF80919802D8
:101CF000882329F2853019F28091E80083FFF2CF22
:101D0000BECF2132310581F12232310509F0A9C05F
:101D1000452B09F0A6C084E490E0EAEAF5E0CECFD6
:101D2000992781309105C1F0009759F0029709F089
:101D300098C0E2E2F6E0E4918E2F90E0E2E2F6E075
:101D400007C0E4E4F6E0E4918E2F90E0E4E4F6E0EE
:101D5000009709F0B3CF85C0E2E3F6E0E4918E2F5F
:101D600090E0E2E3F6E0F4CF452B09F07AC089E099
:101D700090E0E0E0F6E0A2CF82E190E0E0E1F6E082
:101D80009DCF80919802882309F479CF853009F49A
:101D900076CF8091E80083FD72CF8091E80082FDCC
:101DA000A1CF8091E80080FF97CF9091F3008091C0
:101DB000F2002115310519F08830910550F041E00D
:101DC000089709F040E08091E8008E778093E80062
:101DD00083CF44914093F10031962150310901960F
:101DE000E8CF8038F1F58091E800877F8093E800A4
:101DF00080918F028093F100B2CE811132C0109198
:101E00009202123070F58091E800877F8093E8009D
:101E100010938F020E940707112311F084E005C080
:101E20008091E30087FDFACF81E08093980261EC16
:101E300081E00E942B068091980213C0809192024B
:101E4000813079F481E0933009F080E080938E0254
:101E50001092E9008091E800877F8093E8000E945B
:101E600007078091E80083FF0AC08091E800877F20
:101E70008093E8008091EB0080628093EB00AA964B
:101E8000E3E00C94B223882321F00E94420A0E94CE
:101E9000630C0895882339F09091C001982B90939A
:101EA000C0010E94630C0895882391F09CEF980F65
:101EB000913A78F4E6E8F1E09191891303C0DF01EB
:101EC00011971C9291E0EC38F907B1F70E94630C6E
:101ED000089590E2980F9830D8F7877091E001C08C
:101EE000990F8A95EAF7892F0E94420AEFCFCF9384
:101EF000C82F8823A9F08CEF8C0F813A00F5E6E813
:101F0000F1E0DF018D91C81769F081E0AC38B807C6
:101F1000C9F76C2F84E891E00E9496070E94630C39
:101F2000CF9108958191C81303C0DF0111971C92CE
:101F300081E0EC38F807B1F70E94630CEACF80E249
:101F40008C0F883068F7C77021E030E001C0220FA5
:101F5000CA95EAF78091C001822B8093C001DECF41
:101F60000F931F93CF93DF93EC01FC0101900020AE
:101F7000E9F78F0101501109C017D10728F0DF914F
:101F8000CF911F910F91089589910E94B50BF4CFC5
:101F90000F931F93CF93DF938C018091980284302D
:101FA00059F581E08093E9008FEF9091E80081502E
:101FB00095FD06C095ED9A95F1F700008111F5CFDA
:101FC0008091E80085FF18C00E94D60681110FC0DD
:101FD000C8E0D0E08091E80085FD13C08091E80062
:101FE0008E778093E8000E94D606882399F380912B
:101FF000E8008E778093E800DF91CF911F910F91D9
:102000000895F80181918F018093F100219711F7D4
:10201000EECFCF93DF93EC010E94C80F88E0FE0162
:10202000A5E8B2E001900D928A95E1F7DF91CF919A
:102030000895B0E0A0E0EFE1F0E10C948F237C0183
:102040005B016A018091E40101E010E08A3010F444
:102050000AE010E0C1E0D0E0B501C701F601099542
:10206000811104C021960C171D072CF4CDB7DEB7E3
:10207000EAE00C94AB23CC9F9001CD9F300D300D46
:10208000112490E080E045E34A95F1F700000196C5
:1020900082179307C1F7E0CF0E949E0C2FEF84E3D5
:1020A0009CE0215080409040E1F700C0000088E1B2
:1020B0009AE00FB6F894A895809360000FBE9093B5
:1020C0006000FFCFAB0124E630E0BC0188E70E944E
:1020D000272121E0892B09F020E0822F08958091AB
:1020E000770290917802911103C091E089270895B9
:1020F000882369F062E070E088EA95E00E9462104F
:10210000811103C080917702089510927702809127
:102110007702EBCFCF93C09177028091780288232A
:10212000D1F00E948A07605A75418F4F9F4F60938C
:102130007302709374028093750290937602C111BA
:1021400008C062E070E086EA95E00E9462108111AA
:1021500005C0C09177028C2FCF91089581E08093C4
:102160007702F7CF9091F60192FB222720F92817EA
:1021700079F080FB92F99093F6016091F5017091EE
:10218000F60184E090E00E94A22482E00E941D0BF0
:102190000895A4E0B0E0EFECF0E10C9496234091B8
:1021A000E0015091E1016091E2017091E3012FB7EC
:1021B000F89480917E0290917F02A0918002B0916C
:1021C00081022FBF841B950BA60BB70B11E0843641
:1021D0009105A105B10570F10E941A086E5F7F4F4D
:1021E0008F4F9F4F69837A838B839C8380911101EA
:1021F000909112018A529E4F4091100150E045305B
:10220000510510F044E050E0BE016F5F7F4F0E9427
:102210005D2482E090E00E94FD22182F882351F077
:102220000E948A076093E0017093E1018093E201CC
:102230009093E301812F2496E3E00C94B223EF9274
:10224000FF921F93CF93DF9300D000D000D0CDB783
:10225000DEB77B0190E080E00E94FD22182F8823EA
:1022600009F480C04091030150E04115510511F07F
:1022700041E050E060910401709105016A527E4F87
:10228000CE0106960E945D244091D2015091D30167
:102290006091D4017091D5012FB7F89480917E029E
:1022A00090917F02A0918002B09181022FBF841B88
:1022B000950BA60BB70B84369105A105B10540F42B
:1022C00087ED91E00E9414069E81891709F44AC0A7
:1022D00081E090E00E94FD22811116C010E085E0AF
:1022E000EDECF1E0D70101900D928A95E1F7812F95
:1022F00026960FB6F894DEBF0FBECDBFDF91CF910B
:102300001F91FF90EF90089540910B0150E04630EF
:10231000510510F045E050E060910C0170910D0105
:102320006A527E4FCE0101960E945D2487ED91E0B6
:102330000E9414069E818913D1CF0E948A07609360
:10234000D2017093D3018093D4019093D50185E09D
:10235000FE013196ADECB1E001900D928A95E1F766
:1023600011E0BDCF85E0E7EDF1E0DE0111960190CF
:102370000D928A95E1F71111EACFB1CF1F920F921A
:102380000FB60F9211242F933F934F935F936F9348
:102390007F938F939F93AF93BF93CF93DF93EF93ED
:1023A000FF93D091E900DF708091EC00C82FC170DD
:1023B00080FDC0E81092E9008091F000877F809353
:1023C000F00078940E94AC0C1092E9008091F0002B
:1023D00088608093F000CD2BCF70C093E900FF910F
:1023E000EF91DF91CF91BF91AF919F918F917F91AD
:1023F0006F915F914F913F912F910F900FBE0F9072
:102400001F9018951F920F920FB60F9211242F93C1
:102410003F934F935F936F937F938F939F93AF936C
:10242000BF93EF93FF938091E10082FF09C08091F9
:10243000E20082FF05C08091E1008B7F8093E10084
:102440008091DA0080FF24C08091D80080FF20C0F6
:102450008091DA008E7F8093DA008091D90080FF2E
:102460009CC080E189BD82E189BD09B400FEFDCF39
:1024700081E08093980280918202811109C00E94BC
:102480005D060E947C068091E20084608093E200F9
:102490008091E10080FF17C08091E20080FF13C0AF
:1024A0008091E2008E7F8093E2008091E200806163
:1024B0008093E2008091D80080628093D80019BC9C
:1024C00085E0809398028091E10084FF2BC0809189
:1024D000E20084FF27C080E189BD82E189BD89B522
:1024E000982F917080FFFBCF8091D8008F7D8093D3
:1024F000D8008091E1008F7E8093E1008091E2001E
:102500008F7E8093E2008091E20081608093E20000
:1025100080918F02882309F446C084E0809398025A
:10252000809198028091E10083FF26C08091E200B3
:1025300083FF22C08091E100877F8093E10082E0E9
:102540008093980210928F028091E1008E7F809399
:10255000E1008091E2008E7F8093E2008091E200B2
:1025600080618093E20060E080E00E942B06809111
:10257000F00088608093F000FF91EF91BF91AF91E0
:102580009F918F917F916F915F914F913F912F918B
:102590000F900FBE0F901F90189519BC10929802C3
:1025A0001092820275CF8091E30087FD93E09093B3
:1025B0009802B6CF78941F921FB61F9211248F9362
:1025C0009F93AF93BF9380917E0290917F02A091E1
:1025D0008002B09181020196A11DB11D80937E02FF
:1025E00090937F02A0938002B0938102BF91AF913C
:1025F0009F918F911F901FBE1F9018959C014FB700
:10260000F89480917E0290917F02A0918002B09117
:1026100081024FBF821B930B08952FB7F8948091CE
:102620007E0290917F02A0918002B09181022FBF23
:1026300008950F931F93CF93DF93C62FD42F022FAC
:10264000FC0185818823A9F06093D5020E940D13B7
:102650009093D4028093D302C77081E001C0880FA9
:10266000CA95EAF70E944A0FDF91CF911F910F910F
:1026700008958091D502681335C08091D30290915E
:10268000D4020E94FE128436910560F510E21D0FFF
:10269000CD17B9F080E28C0F883040F4C77081E02C
:1026A00001C0880FCA95EAF70E94430F183048F41A
:1026B00081E09D2F977001C0880F9A95EAF70E94DC
:1026C0004A0F802F0E94770F802F0E94540F1830DE
:1026D00058F6D77081E001C0880FDA95EAF70E94BA
:1026E000430FC2CFC77081E001C0880FCA95EAF7D7
:1026F000F6CFB0E0A0E0EFE7F3E10C948F238C017C
:10270000FC018481882309F460C021E0408151816B
:102710006281738195810E94900BEC01F801258103
:10272000222309F4C0C39A9581159F4470F5CE0108
:102730009927AC01445051094432510518F08B9748
:102740000E9780F4E0911202F0E0EE0FFF1FE95EB9
:10275000FD4F808191818F3F3FE7930719F00196EC
:1027600091838083C034FEE7DF07B9F0C1343EE7D0
:10277000D30781F1FE01E851FC47E730F10508F08D
:102780004FC0EC53FB4D0C941F2490E080E0CF3FF2
:10279000D10509F070F6CE01CCCF61E083E090E086
:1027A0000E94842481E090E00E94440B8091B50156
:1027B000877059F0F8018581882339F08091F601FE
:1027C00082FF03C082E00E941D0BCDB7DEB7EAE0B6
:1027D0000C94AB2362E083E090E00E94842482E0CA
:1027E00090E0E2CF26E241EE61EEC8010E941913AB
:1027F000DDCF27E245EE65EEF8CF26E241EE60EE52
:10280000F4CF27E245EE64EEF0CF26E241EE62EE31
:10281000ECCF27E245EE66EEE8CF28E241E0EBCFD1
:10282000222309F44CC31092D502CE01905783970E
:1028300008F05CC384E090E00E946E249093F6015F
:102840008093F501FE01E150F047E232F10520F4FA
:10285000E553FB4D0C941F248091F501816080931A
:10286000F50195C08091F60188608093F6018FC0D4
:102870008091F5018260F3CF8091F5018460EFCF04
:102880008091F5018860EBCF8091F6018160EDCFFA
:102890008091F6018260E9CF8091F5018061DFCF00
:1028A0008091F5018062DBCF8091F5018064D7CF04
:1028B0000E949E0C8091F5018068D1CF8091F50136
:1028C0008C60CDCF8091F6018360CFCF8091F501F0
:1028D0008E7FC5CF8091F601877FC7CF8091F501AC
:1028E0008D7FBDCF8091F5018B7FB9CF8091F501B0
:1028F000877FB5CF8091F6018E7FB7CF8091F601AB
:102900008D7FB3CF8091F5018F7EA9CF8091F501A6
:102910008F7DA5CF8091F5018F7BA1CF0E949E0C6A
:102920008091F5018F779BCF8091F501837F97CFC1
:102930008091F6018C7F99CF8091F50182FB9927D8
:1029400090F921E0922790FB82F990FB83F987CFE1
:102950008091F601982F909591708E7F892B90FB36
:1029600081F983CF9091F501892F8F7B96FF806449
:1029700076CF0E949E0C9091F501892F97FB87F9E5
:1029800080586DCF61E08EE090E00E9484246091D9
:10299000F5017091F60184E090E00E94A2240E946B
:1029A0009E0C04CF60E0EFCF9091F501892F8F7ED0
:1029B00094FF806154CF9091F501892F8E7F90FF15
:1029C00081604DCF9091F601892F877F93FF8860BA
:1029D0004CCF85E37DC20E949E0C8FEF94E3ECE028
:1029E00081509040E040E1F700C0000087E797E7A2
:1029F000909301088093000888E19AE00FB6F8945C
:102A0000A895809360000FBE90936000FFCF6FEF9A
:102A10007FEF90E080E00E94A2240E944C10809101
:102A2000F60182FB882780F991E089270E94B21085
:102A3000F8018581C081D181882309F44DC0CE0180
:102A40000E94530AF82E682FCE010E94C70ABE01C9
:102A50008F2D0E9425090E944409F82EC92FA82E07
:102A6000F801C580B680B2949FE0B9228091B5018B
:102A7000877009F1EC2CCC20F9F08C2F807F80340A
:102A800069F080E28F0D8830B0F08C2F807E80322C
:102A900029F4F1E0FF1578F4BB2069F08091F6018C
:102AA00082FF09C082E00E941D0B8091B5018770F2
:102AB000EE24E3948111E12CDC2ED2948FE0D82215
:102AC0002BE02D1508F46AC0ED2DF0E0E351FB4D2D
:102AD0000C941F2480E0AACFCE010E94940AF82E05
:102AE000B6CFDC2FDF70C07F11F0D295D07FCC2025
:102AF000B9F0DD2369F080E28F0D883010F0A1106D
:102B000009C08091C001D82BD093C0010E94630CF2
:102B10008F2D42C08091B701D82BD093B701F6CF4B
:102B20008F2D0E94540FDD23C9F180E28F0D883074
:102B300010F0A11004C08D2F0E94420A06C0D0954B
:102B40008091B701D823D093B7010E94630C26C0AF
:102B5000DC2FDF70C07FC03211F0D295D07FAA2069
:102B600059F031E0A31609F478C0CC2009F484C0F0
:102B7000BB2009F446C0CCCF8091F60182FD3DC058
:102B8000CC20A9F1DD2339F08091C001D82BD0935E
:102B9000C0010E94630C80E00E94770FED2DE85089
:102BA000FF0B349710F40E94B007EE20A9F080913B
:102BB000B50180FD11C0F801158286958695869530
:102BC0000E94340BC8010E9479138091B50186954B
:102BD000869586950E940B0B20E0F801408151817B
:102BE00062817381848195810E94900BEECD80E09B
:102BF0000E94540FDD2391F29ECFCC20A1F0B110A2
:102C000004C08D2F0E944A0FC9CF81E0B812C6CFF1
:102C10008091B6019D2F9823D91709F4BFCFD82BE7
:102C2000D093B601BBCFB110B9CF8D2F0E94430F07
:102C30009091B6018D2F892329F08D2F80958923BE
:102C40008093B60180918D019D2F982309F4A6CF22
:102C5000D095D823D0938D01A1CFCC2029F095E039
:102C60009B1508F49BCFCDCFE4E0EB1508F496CF8D
:102C70008D2F0E94430F92CFBB20D1F3F9E3AF1207
:102C80000BC12FEF37EE83E0215030408040E1F759
:102C900000C0000001C18C2F837009F03FC0C1103B
:102CA0007DCF4F2D429546954770440F440F2F2DF1
:102CB0002F7030E0042E02C0220F331F0A94E2F777
:102CC00090E080E0F4FE09C08FE090E002C0880F41
:102CD000991F4A95E2F780959095C695C695C37061
:102CE000C23099F078F440914C0250914D02C130BD
:102CF00039F0822B932B842395230E94440B4ECFD3
:102D0000242B352B822B932BF8CF822B932B2091C6
:102D10004C0230914D0282279327EFCF8695CC202D
:102D200011F08C2F8170882309F438CF4F2D4295F4
:102D300046954770440F440F2F2D2F7030E0042E1E
:102D400002C0220F331F0A94E2F790E080E0F4FE05
:102D500009C08FE090E002C0880F991F4A95E2F702
:102D600080959095C695C695C370C23099F078F459
:102D700040914A0250914B02C13039F0822B932B83
:102D8000842395230E94FD0A09CF242B352B822B07
:102D9000932BF8CF822B932B20914A0230914B0238
:102DA00082279327EFCFCF70CC2029F08C2F0E9461
:102DB000340B8F2D27CF8F2D0E94430F8C2F0E9415
:102DC0000B0BECCE8F2D92EFA91699F19A1570F09E
:102DD000E0EFAE16D1F0F1EFAF1691F0CC2009F490
:102DE00056C0B11095CE8C2F8F7127C023EFA2163D
:102DF00039F134EFA312F2CF9091F60192FD2EC07B
:102E00008C2F8F71CC20D9F218C0CC2069F084E0CF
:102E10008B1508F4C3CECF7181E090E002C0880F1B
:102E2000991FCA95E2F7B8CF95E09B1508F4B6CE86
:102E3000F2CF8C2F8F71C110C2CF0E94340BAECE57
:102E400090E080E0CC2009F49DCFCF7181E090E04C
:102E500002C0880F991FCA95E2F794CFCC2061F089
:102E60008C2F8F7192FFE9CFE8E08E9F90011124A3
:102E700023602093B501E1CF81E00E941D0BF1E0BA
:102E8000FB1508F08BCE82E00E941D0B87CEBB2085
:102E900039F0893309F4F5CE8F2D0E94540F7ECE80
:102EA0008C2F8F718CCF80549E47029708F47ECC74
:102EB000FE01E851FC47E730F10508F462CCC63169
:102EC000DC4709F0B5CD80918C01811182CD89E27A
:102ED000E6E8F1E02CE831E09191891303C0DF01CD
:102EE00011971C922E173F07B9F713C0C6318CE714
:102EF000D80791F48091C0018A7A91E009F490E0BA
:102F000090938C0169E2811165E384E891E00E946D
:102F100096070E94630C4ACCC330ECE7DE0709F445
:102F200076CD50F4C1152CE7D20709F454CDC13049
:102F3000DC4709F472CD7CCDCB358CE7D80709F49A
:102F4000C9CDCC359CE7D90709F469CDCA35DC4732
:102F500009F06ECD81E06ACDCF93DF938091B4010B
:102F6000807F09F04DC08091B301882309F448C0E7
:102F7000E091D20250919902C091AF01D091AE017F
:102F80006091B0017091B10147E05E17C9F18E2FD9
:102F900090E0E49FF0011124E656FD4F24812223A6
:102FA00091F1489FF001499FF00D1124DF01A656D1
:102FB000BD4F11962C9111972C1325C02C912D13D8
:102FC00022C015962C91159721111DC012962D9196
:102FD0003C91261B370B24363105A8F48091B401AF
:102FE0008F7080618093B401E056FD4F80818F70B7
:102FF000806180838EEA91E00E9479130E94490AE1
:10300000DF91CF910895FC013196E770BECFA4E126
:10301000B0E0EDE0F8E10C948D238C0186E0F8013E
:10302000DE011F9601900D928A95E1F7F8018481E7
:10303000E5809EEAA92E91E0B92E9091B2019111FE
:1030400028C0882319F1EE20F1F0C8010E94490B35
:10305000F82E8823C1F087E0F801D50101900D9288
:103060008A95E1F78091B201813031F48091AE010F
:103070009091AF010E94870A0E94AC178F2D649631
:10308000ECE00C94A923C8010E947913FF24F39467
:10309000F5CFD080C18082809380F090B3012091E1
:1030A000B0013091B101A401421B530BFF2009F480
:1030B000E5C04436510508F09EC08823F9F290918E
:1030C000AF018091B401282F207F09F056C0C912AA
:1030D00014C09091AE01D91210C0E11048C08F7099
:1030E00080618093B4018EEA91E00E94791380910F
:1030F000B401F8018683F12CC1CFE11038C06C2DEA
:103100008D2D0E94F5056C2D8D2D0E94F505E82E64
:103110008111F1CFDF86C88A8F8598890E94870A3E
:10312000292F22952F70243058F49F70223088F078
:10313000992399F0F8019681907F79F4FE2C9ECF27
:103140002A5F2F70223068F0C8010E947913EF2C9B
:10315000F5CF992311F0882389F3805E883070F3CE
:10316000F3CF803F58F3815F833070F7E7CF8091D2
:10317000B40181608093B401BECFC91213C0909195
:10318000AE01D9120FC0E1100DC08683C8010E94A4
:10319000791387E0F801AEEAB1E001900D928A95CB
:1031A000E1F76CCFC8010E94490B882309F46BCF6B
:1031B000EE2009F468CF8091B401803288F020912C
:1031C000AE013091AF01398728879B868A8690911E
:1031D000B2019C871D868E87CE0108960E947913C6
:1031E00087E0F801AEEAB1E001900D928A95E1F72F
:1031F0000E94AC174BCF9091B401292F207F51F43E
:103200008EEA91E00E94791387E0F50111928A9588
:10321000E9F771CF882309F431CF8091AF018C1188
:1032200010C08091AE01D8120CC0E1100AC0968384
:10323000C8010E94791387E0F50111928A95E9F798
:103240001DCFC8010E94490B882309F41CCFEE2032
:1032500009F419CF8091B401803210F22091AE01AF
:103260003091AF013A8329839C828B829091B20185
:103270009D831E828F83CE010196B0CF44365105C7
:10328000D0F6882309F402CFFE2CEE2009F4FBCE01
:103290008091AF018C1105C08091AE01D81609F460
:1032A00078CFC8010E94490B81119ACF8091B40157
:1032B00081608093B401C8010E947913DFCEABE135
:1032C000B0E0E5E6F9E10C9495234E8B5F8B688FB7
:1032D000798F8A8F9B8F192F91111092B7011D8AB8
:1032E00086E0FE017696DE011F9601900D928A958A
:1032F000E1F70A8D002341F021E04F855889698963
:103300007A89C8010E94900B0B8B1C8B87E0FE0111
:103310003F96DE01189601900D928A95E1F7CE0155
:1033200008960E94071881110CC087E0FE013896AC
:10333000DE01119601900D928A95E1F78C8581113D
:103340000BC017E08091D20290919902891331C08D
:103350006B96E4E00C94B1232091990230E0C9010E
:103360000196877099274091D2024817190699F063
:1033700097E0929FD001939FB00D1124A656BD4FA8
:10338000FE01319601900D929A95E1F78093990292
:103390000E94490AD6CF0E949E0C10929902109268
:1033A000D20287E0EEEAF1E0DF011D928A95E9F7AB
:1033B000C8CF819FC001112486569D4F0E940718D7
:1033C000882331F28091D20290E00196877099278C
:1033D0008093D202B7CFAFE0B0E0E1EFF9E10C9417
:1033E0008C238E010F5F1F4F8AE0F80111928A959E
:1033F000E9F78FE6C82E81E0D82EF12CE12CAA2423
:10340000A394B12C2AE7822E21E0922EF60181911D
:103410006F018F3F09F442C0F894E82FE295EF70F6
:10342000F0E021A18F70A50102C0440F551F8A95BD
:10343000E2F7CA01922F982B91A392A1809589233C
:1034400082A3789400C0E4E7F1E0712C31E021918F
:103450002F3F09F48CC0A22FA295AF70B0E09096D8
:103460008C9190E02F7002C0959587952A95E2F790
:1034700080FD7DC0832F782A330F8E169F0639F783
:10348000F601319780818F3F11F00E94030850EAC6
:103490005A95F1F7F801EE0DFF1D70828FEFE81AD3
:1034A000F80AE5E0EE16F10409F0B0CF4AE050E08A
:1034B000B80189EE91E00E945024009741F02AE083
:1034C000F801A9EEB1E001900D922A95E1F7009183
:1034D000F40110E009501E4F892B09F44AC081E025
:1034E0008093C5010E940D139093C4018093C30182
:1034F000F12CE0907902EE2009F492C06E01FBE01D
:10350000CF0ED11C85E0F60111928A95E9F78091E2
:10351000E4018A3008F051C04FE151E1B601C80121
:103520000E941910882309F46AC049EC50E1B601E1
:10353000C8010E941910882309F461C01092E401A7
:103540008091F30190E045E050E0B60189509E4F34
:103550000E94502421E02093CC01892B09F042C025
:10356000E12C8E2D8F292F96EDE00C94A82380E07E
:1035700082CFF090C501FF2009F4BACF8091C3013A
:103580009091C4010E94FE12059708F4B1CF45E066
:1035900050E069EE71E0C8010E945024892B59F077
:1035A00085E0E9EEF1E0D80101900D928A95E1F70E
:1035B0001092C5019ECFF12CFBCF8091C601909156
:1035C000C7010E94FE12843F914008F0A5CF809170
:1035D000CC01882329F285E0F60111928A95E9F75A
:1035E0001092CC01A091F301B0E0A950BE4F85E04C
:1035F000FE013B9601900D928A95E1F7B2CF809142
:10360000E4018F3F31F08F5F8093E4018A3008F44A
:1036100097CF0E940D139093C7018093C601D7CF17
:1036200085E0F801A7EDB1E001900D928A95E1F7F0
:1036300087ED91E00E9414068093D6018090DC0112
:103640009090DD01A090DE01B090DF018091C80173
:103650009091C901A091CA01B091CB018816990639
:10366000AA06BB0609F47DCF8092C8019092C901D9
:10367000A092CA01B092CB010E948A07861A970ACB
:10368000A80AB90A8092E5019092E601A092E701AA
:10369000B092E80166CFA6E0B0E0E1E5FBE10C9472
:1036A00095230E940D138C018091C1019091C2015C
:1036B0008017910781F019821A820E940D13682FDA
:1036C00049815A81792F80E090E00E945F19109320
:1036D000C2010093C1012696E4E00C94B1231F922D
:1036E0001FB61F9211248F939F93AF93BF93809126
:1036F0007D02811113C080917E0290917F02A09182
:103700008002B09181024196A11DB11D80937E027D
:1037100090937F02A0938002B0938102BF91AF91FA
:103720009F918F911F901FBE1F901895CDB7DEB748
:103730002F970FB6F894DEBF0FBECDBF85B7806858
:1037400085BF85B7806885BF84B7877F84BF0FB684
:10375000F894A89580916000886180936000109231
:1037600060000FBE80E890E00FB6F894809361008F
:10377000909361000FBE81E098E090938301809365
:1037800082010E945D060E947C068091E2008460B6
:103790008093E2007894809198028823A1F01091A0
:1037A000E9001F709091EC00892F817090FD80E8F6
:1037B000182B1092E9008091E80083FD0E94AC0C68
:1037C0001F701093E90082E084BD93E095BD9AEFED
:1037D00097BD80936E001092E5011092E601109261
:1037E000E7011092E8018091D80080618093D800B1
:1037F0002AE12A95F1F700C08091D900182F1170A5
:1038000080FD04C00E945D06109298021093790218
:1038100010937A021093180111110E9411228091C5
:1038200018018091180195E0811190E09093F401C6
:1038300085E0891B8093F3010FE611E0D8018D919B
:103840008D018F3F11F00E940308B1E004371B0780
:10385000A9F704E711E0FAE7EF2EF1E0FF2EF801F7
:1038600081918F018F3F11F00E940308E016F1064D
:10387000B1F78AE0E7EFF1E0DF01282F1D922A95EA
:10388000E9F7E9EEF1E0DF011D928A95E9F790E0B2
:1038900080E00E946E24853E9E4F09F461C065EE73
:1038A0007EEF90E080E00E94A22460E082E090E061
:1038B0000E94842481E090E090934D0280934C021A
:1038C00061E083E090E00E94842460E074E184E0A1
:1038D00090E00E94A22460E086E090E00E948424B0
:1038E00060E087E090E00E94842440E050E0BA016C
:1038F00088E090E00E94962460E083E290E00E94DD
:10390000842460E08CE090E00E94842460E08DE0FC
:1039100090E00E94842419821A821B821C821D82DC
:103920001E821F82188648E050E067E170E0CE01F9
:1039300001960E94742440E050E0BA018FE190E0CB
:103940000E94962440E050E0BA018FE090E00E948F
:10395000962440E050E0BA0183E190E00E94962472
:1039600082E090E00E9466248093010284E090E06F
:103970000E946E249093F6018093F50183E090E01D
:103980000E94662490E00E94440B8091790281118C
:10399000B4C081E080936E0280E28093D6020E94E0
:1039A000AF206BE070E08BE193E00E94621088230F
:1039B000E9F180916E0265E070E081FDA0C086E1D2
:1039C00093E00E946210882389F16DE070E084E04A
:1039D00093E00E946210882349F10E948A07605A8E
:1039E00075418F4F9F4F6093730270937402809361
:1039F000750290937602E9EDF2E080E092E0DF015B
:103A00009C011D9221503040E1F7F093E004E093D7
:103A1000DF048FEF9FEF9093D8028093D70281E06D
:103A2000809378028093770210926F0280917902DE
:103A3000811102C00E94142289E191E090937C02DE
:103A400080937B02E4E68E2E912CA12CB12C8091E8
:103A5000980200E112E1853009F48DC00E94EB1953
:103A600002E012E077EFE72E71E0F72ED701F801C0
:103A700091918D912CE032E02E173F0709F485C01B
:103A80009817B1F340907902D12C33243394D701A5
:103A9000CD907D01F80151908F015C1429F15C24D7
:103AA000712C66246394852D8621B1F04420A1F009
:103AB0007982DA820E940D139C838B833D8291E090
:103AC0008C2D862109F490E09E8349815A816B8177
:103AD0007C818D810E945F197394660CF6E07F12E1
:103AE000E2CFF8013197C082D3942AE0D212CFCF2F
:103AF0000E941A0831E03D874DC083E04BCF81E141
:103B000093E05FCF80919802843031F10E946F1072
:103B100010927D0288E190E0A0E40FB6F894A89599
:103B2000809360000FBEA093600083B7817F8460A4
:103B300083BF83B7816083BF7894889583B78E7F76
:103B400083BF0FB6F894A895809160008861809338
:103B50006000109260000FBE80918E02882359F0A1
:103B60000E94EB19E7EFF1E08191811190C2B2E080
:103B7000E130FB07C9F780919802853009F4C2CF84
:103B80000E949E0C0E94B00769CF98137BCF0E94C1
:103B90004B1B1D8680917902882309F4C5C0409093
:103BA000170250901802052C000C660877088091C7
:103BB000230190E0E7E1F2E021E030E03296821765
:103BC00093070CF0E6C08091130290911402A0912B
:103BD0001502B09116026FB7F894C0907E02D09093
:103BE0007F02E0908002F09081026FBFC81AD90A6C
:103BF000EA0AFB0A1091230189ECC816D104E104FA
:103C0000F10414F18091120290E0019669E170E0F4
:103C10000E94CA2380931202880F991FFC01E95E5B
:103C2000FD4F11821082812F183108F087E18F5FDC
:103C3000809323010E948A076093130270931402F9
:103C4000809315029093160292E049165104610484
:103C500071040CF4ABC0A0E6BAEEA30192010E947D
:103C600025242B013C01A8EC1A9F90011124032E5E
:103C7000000C440B550B2C0D3D1D4E1D5F1DA5E08A
:103C8000B0E00E9425249B01AC01C301B2010E9457
:103C9000DE2369017A01B1EFCB16D104E104F1040E
:103CA0002CF050EFC52ED12CE12CF12C80910E027E
:103CB00090910F02A0911002B09111022FB7F894C9
:103CC00040907E0250907F0260908002709081024E
:103CD0002FBF481A590A6A0A7B0AE5E64E165104B4
:103CE0006104710484F00E948A0760930E0270934D
:103CF0000F028093100290931102809149028093E9
:103D00000D02C0920C0210910D02A0910C02A11B99
:103D1000BB0BA30192010E943024A50194010E94D3
:103D20000024120F1093490280917802882309F42D
:103D3000B5C080917002909171020E94FE12C297EC
:103D400008F48DC00E940D1390937102809370024D
:103D500080E00E94E30580917902882309F4B4C0D1
:103D600080E00E94E30560E870E086E293E00E9454
:103D7000C10785E00E94E30580914C0290914D02BD
:103D80000E946C0B8823B1F0813089F189E391E0C6
:103D900013C040815181052E000C660B770B440E39
:103DA000551E661E771E2F5F3F4F08CFC12CD12CAA
:103DB00076017CCF8CE291E00E94B00F87E00E94F8
:103DC000E3058FE391E00E94B00F88E00E94E305D5
:103DD00080914A0290914B020E946C0B823009F450
:103DE00070C040F4882371F08DE591E00DC082E34E
:103DF00091E0E2CF833009F461C08430A9F787E510
:103E000091E002C085E491E00E94B00F1091490258
:103E10008AE00E94E3051C862AE0812F622F0E941F
:103E2000BE23905D9B870E94BE23905D9A87812F61
:103E300064E60E94BE23805D8987CE0109960E94B8
:103E4000B00F8BE00E94E30583E691E00E94B00F83
:103E50008DE00E94E30587E691E00E94B00F80911B
:103E6000D7029091D802892BB1F5809177028823EF
:103E7000A9F00E948A0700917302109174022091A8
:103E8000750230917602601B710B820B930B6F3FB2
:103E90007F4F8F4F9F4710F40E946F108D858111C7
:103EA0000E948A100E94B00790917202891709F44B
:103EB000CECD809372020E948A07C9CD8BE491E037
:103EC000A3CF81E591E0A0CF60E072E086EA93E0C5
:103ED0000E94C107C4CF80917802882331F280917B
:103EE0006F028111C2CF0E948A102091D7023091B7
:103EF000D8022115310509F4B8CF80E041E050E047
:103F0000082F10E02A01082E02C0440C551C0A9408
:103F1000E2F7B20162237323672B11F48F5FF0CFB6
:103F200090916E0290FF9AC0880F880F880F80933F
:103F3000260110922901895F8093270183E08093F5
:103F40002A0124E630E047E050E064E271E088E7CF
:103F50000E94E320892B09F088CFA80195E0440F47
:103F6000551F9A95E1F780916E0280FF89C0EEE4BB
:103F7000F2E080E2DF011D928A95E9F7EEE7F1E0D9
:103F8000FF87EE876AE771E087E0F82EAE85BF8590
:103F90002D91BF87AE87FB012190BF01240E352EE6
:103FA000311CC10187529D4F1C01E22FF0E0E25B02
:103FB000FD4F90E080E06F2C681AEE24E394082E09
:103FC00001C0EE0C0A94EAF7610100E0D6011D91F0
:103FD0006D011E21262D201B2770722E022E000C33
:103FE000330BB12F01C0BB0F7A94EAF77B2E3195CA
:103FF000219531092770332701C016952A95EAF7D4
:10400000712A1081712A70820F5F0830F9F60196CB
:1040100031968830910579F6E2E8F1E02E853F850A
:10402000E217F30709F0B2CF04E610E020E230E037
:104030004EE452E060E488E70E946D21892B09F08C
:1040400014CF409450948091D7029091D802482286
:1040500059225092D8024092D70207CF8295880FFA
:104060008076809326019801369527953695279579
:1040700020932901815E8093270120932A0161CF3B
:1040800047525D4F04E610E020E230E0D3CF09BD97
:1040900019BD09B400FEFDCF8091D8008F7D8093BB
:1040A000D8008091E00082608093E0008091E00081
:1040B00081FDFCCF0E949E0C5ECDEF92FF920F938C
:1040C0001F93CF93DF93182FEB011092BC0084EA6B
:1040D0008093BC000E940D137C018091BC0087FF7F
:1040E00027C08091B900887F883029F08091B9007D
:1040F000887F803189F51093BB0084E88093BC00F1
:104100000E940D138C018091BC0087FF1EC020917E
:10411000B900287F90E080E0283191F081E090E0C4
:10412000203411F490E080E091958195910908C0C8
:10413000C7010E94FE12C817D90778F68EEF9FEFCD
:10414000CDB7DEB7E6E00C94AF23C8010E94FE12A3
:10415000C817D907C0F6F2CF8FEF9FEFF1CF1092BB
:10416000B9008CE08093B80008950F931F93CF930C
:10417000DF93EB018093BB0084E88093BC000E9436
:104180000D138C018091BC0087FF11C02091B900F4
:10419000287F81E090E0283211F490E080E0919552
:1041A00081959109DF91CF911F910F910895CF3F94
:1041B000DC0741F3C8010E94FE12C817D90710F7A7
:1041C0008EEF9FEFEFCFB0E0A0E0E9EEF0E20C94CD
:1041D0008C23782E5B016A0189010E940D134C012A
:1041E000C1E0D0E00431110558F0C5E0D0E00F3F48
:1041F000100731F0C80164E170E00E947323EB0105
:10420000BE01872D0E945D207C0197FF09C00F3FF2
:104210001007B1F3C4010E94FE120817190780F7B6
:10422000E501CA0CDB1CCC15DD0511F0F7FE09C059
:1042300084E98093BC00C701CDB7DEB7EDE00C94F4
:10424000A823B80189910E94B5207C01ECCFB0E091
:10425000A0E0EDE2F1E20C948C23782E5B016A0180
:1042600089010E940D134C01C1E0D0E00431110519
:1042700058F0C5E0D0E00F3F100731F0C80164E10D
:1042800070E00E947323EB01BE01872D0E945D2028
:104290007C0197FF09C00F3F1007B1F3C4010E94D2
:1042A000FE120817190780F7E501CA0CDB1CCC15B4
:1042B000DD0511F0F7FE09C084E98093BC00C70159
:1042C000CDB7DEB7EDE00C94A823FE018491B801D0
:1042D0000E94B5207C012196EACFB0E0A0E0E3E7A0
:1042E000F1E20C948B23682E762E5A0169010E940C
:1042F0000D134C01C1E0D0E00431110558F0C5E0C8
:10430000D0E00F3F100731F0C80164E170E00E9477
:104310007323EB01BE01862D0E945D207C0197FF77
:104320001DC00F3F1007B1F3C4010E94FE12081711
:10433000190780F784E98093BC00C701CDB7DEB7C9
:10434000EEE00C94A723B80189910E94B5207C016E
:10435000CC16DD0679F3F7FEF6CFECCFB801872D4A
:104360000E94B5207C01E501CA0CDB1CF1CF8EE177
:104370004A9B02C08150E1F74A9BFECF08955A98AC
:1043800080E28A95F1F75A9A0895FC013BE03A954C
:10439000F1F798E020E080E031E040E14A95F1F764
:1043A000880F4A9B02C08160232742E04A95F1F7BB
:1043B000000040E14A95F1F7915079F790E19A9524
:1043C000F1F799B132E03A95F1F7000040E14A95F2
:1043D000F1F792FB992790F992272081920F908311
:1043E0000895A1E0B0E0E7EFF1E20C949323198285
:1043F0008C017C01E60EF11C0E151F0541F481E0D5
:104400009981911180E02196E6E00C94AF230E94FF
:10441000B721CE0101960E94C521F80181938F0139
:10442000EBCF529A5A9A089552985A9AEA9AE9E624
:10443000F0E080818F7C808308956150770B91E05C
:1044400001C0990F6A95EAF720E031E0911108C0A8
:10445000222391F05A9A80E28A95F1F75A980895AA
:10446000492F482339F05A9A232740E24A95F1F719
:104470009695ECCF5A98F9CF5A98EDCFFF920F93BB
:104480001F93CF93DF93EC018C01060F111DC01712
:10449000D10729F4CDB7DEB7E5E00C94B023F9904D
:1044A0000E94BF2168E08F2D0E941D22F0CF1F9235
:1044B0000F920FB60F9211240F931F932F933F93D8
:1044C0004F935F936F937F938F939F93AF93BF931C
:1044D000EF93FF93CF93DF930F92CDB7DEB719829F
:1044E0000E94B721CE0101960E94C521082F069592
:1044F00006950695282F22952570902F9570290FE7
:10450000922F937026952695920F98279770898100
:10451000982B09F05CC0043008F059C080E18A95FE
:10452000F1F75A9A529A82E08A95F1F700C05A98A8
:1045300088E0089F80011124D801A050BF4F169633
:10454000ED91FC9117973097A9F060916D017091F2
:104550006E0114962D913C911597260F371F1196D9
:104560008D919C911297680F791F13964C91139718
:104570008C910995F801E050FF4F6381662351F05B
:1045800020916D0130916E0184819581820F931F7E
:104590000E943E220E94BF2180E18A95F1F75A983D
:1045A00052985A9A80E18A95F1F7F801E050FF4F4E
:1045B0006081662351F020916D0130916E018181FF
:1045C0009281820F931F0E94F1210E94B7210F90C8
:1045D000DF91CF91FF91EF91BF91AF919F918F911B
:1045E0007F916F915F914F913F912F911F910F910B
:1045F0000F900FBE0F901F9018950F931F93CF939E
:10460000DF93EC0104970CF04CC0F894529A5A983E
:1046100085E08A95F1F700009C2F969595708C2F78
:104620008570980F892F83709695969523E0CC0F0F
:10463000DD1F2A95E1F7980F8E01092B0E94BF21FB
:1046400000C068E0802F0E941D2280E18A95F1F76A
:1046500052985A9A4A9B1EC087E090E04A991CC023
:10466000FE01E050FF4F63816623F9F020916D0158
:1046700030916E0184819581820F931F0E94F121F8
:10468000811113C0529A5A9A7894DF91CF911F9159
:104690000F91089500C0DECF019729F4529A5A9ADB
:1046A000789480E0F2CF00C0D9CF0E94B72180E299
:1046B0008A95F1F75A98529A80E18A95F1F7C0509D
:1046C000DF4F6881662351F020916D0130916E01BA
:1046D00089819A81820F931F0E943E220E94BF21EE
:1046E000789481E0D2CFAA1BBB1B51E107C0AA1F5F
:1046F000BB1FA617B70710F0A61BB70B881F991F83
:104700005A95A9F780959095BC01CD0108952F92F7
:104710003F924F925F926F927F928F929F92AF9251
:10472000BF92CF92DF92EF92FF920F931F93CF939E
:10473000DF93CDB7DEB7CA1BDB0B0FB6F894DEBF35
:104740000FBECDBF09942A88398848885F846E845B
:104750007D848C849B84AA84B984C884DF80EE80A5
:10476000FD800C811B81AA81B981CE0FD11D0FB6AE
:10477000F894DEBF0FBECDBFED010895991B79E01F
:1047800004C0991F961708F0961B881F7A95C9F7E1
:104790008095089597FB072E16F4009407D077FDB7
:1047A00009D00E94732307FC05D03EF490958195B3
:1047B0009F4F0895709561957F4F0895A1E21A2E3D
:1047C000AA1BBB1BFD010DC0AA1FBB1FEE1FFF1FB5
:1047D000A217B307E407F50720F0A21BB30BE40B05
:1047E000F50B661F771F881F991F1A9469F760954C
:1047F0007095809590959B01AC01BD01CF01089506
:10480000052E97FB1EF400940E94172457FD07D035
:104810000E94DE2307FC03D04EF40C94172450951D
:104820004095309521953F4F4F4F5F4F089590959C
:104830008095709561957F4F8F4F9F4F0895EE0F34
:10484000FF1F0590F491E02D09940E943824A59F44
:10485000900DB49F900DA49F800D911D112408957B
:10486000B7FF0C9425240E942524821B930B0895E6
:10487000A29FB001B39FC001A39F700D811D1124A1
:10488000911DB29F700D811D1124911D0895FB0192
:10489000DC0102C005900D9241505040D8F70895B8
:1048A000FB01DC0104C08D910190801921F441507D
:1048B0005040C8F7881B990B0895FB01DC0102C02A
:1048C00001900D9241505040D8F70895F999FECFCC
:1048D00092BD81BDF89A992780B50895A8E1B0E00E
:1048E00042E050E00C94AA24DC01A40FB51F415013
:1048F000504048F0CB01840F951F2E910E948524D3
:1049000041505040D0F70895262FF999FECF92BD1F
:1049100081BDF89A019700B4021639F01FBA20BD84
:104920000FB6F894FA9AF99A0FBE08950396272FB6
:104930000E9485240E948424252F0E948524242FF0
:104940000C9485240196272F0E9485240C9484249E
:10495000DC01CB01FC01F999FECF06C0F2BDE1BD3F
:10496000F89A319600B40D9241505040B8F708952E
:10497000F894FFCF8B0DB30D310FB30D310FE60D52
:10498000070E310FF10EFD0EFD130114F213F91392
:10499000051409140D146614DB146E1438143C1439
:1049A00072144014761482144C14D41450148614C7
:1049B00054148A14B21458148E14B9145E14941436
:1049C0009C1444147A1448147E1462149814A81485
:1049D000C214D21432146A14E21471157115A81598
:1049E000A815CE15CE15CE15CE154B16D316E2163C
:0249F000E216CD
:1049F20000000001000000000000000501000000AE
:104A020004060000000000000187070910840786E1
:104A1200078507010021007F2200030151575254EC
:104A22005900434F4C4D4B2000554E444546004CD7
:104A320041594552004261736520005261697365B4
:104A4200004C6F7765720041646A202000556E64E5
:104A520065660077706D002D2D2D2D2D00D6016617
:104A620097C63435F6F7313332360008101818106D
:024A720008003A
:00000001FF
